{
  "contractName": "Acro",
  "abi": [
    {
      "inputs": [],
      "stateMutability": "nonpayable",
      "type": "constructor"
    },
    {
      "anonymous": false,
      "inputs": [
        {
          "indexed": true,
          "internalType": "address",
          "name": "owner",
          "type": "address"
        },
        {
          "indexed": true,
          "internalType": "address",
          "name": "spender",
          "type": "address"
        },
        {
          "indexed": false,
          "internalType": "uint256",
          "name": "value",
          "type": "uint256"
        }
      ],
      "name": "Approval",
      "type": "event"
    },
    {
      "anonymous": false,
      "inputs": [
        {
          "indexed": true,
          "internalType": "address",
          "name": "previousOwner",
          "type": "address"
        },
        {
          "indexed": true,
          "internalType": "address",
          "name": "newOwner",
          "type": "address"
        }
      ],
      "name": "OwnershipTransferred",
      "type": "event"
    },
    {
      "anonymous": false,
      "inputs": [
        {
          "indexed": true,
          "internalType": "address",
          "name": "from",
          "type": "address"
        },
        {
          "indexed": true,
          "internalType": "address",
          "name": "to",
          "type": "address"
        },
        {
          "indexed": false,
          "internalType": "uint256",
          "name": "value",
          "type": "uint256"
        }
      ],
      "name": "Transfer",
      "type": "event"
    },
    {
      "anonymous": false,
      "inputs": [
        {
          "indexed": false,
          "internalType": "address",
          "name": "msgsender",
          "type": "address"
        },
        {
          "indexed": false,
          "internalType": "uint256",
          "name": "amount",
          "type": "uint256"
        }
      ],
      "name": "buyingAcro",
      "type": "event"
    },
    {
      "anonymous": false,
      "inputs": [
        {
          "indexed": false,
          "internalType": "address",
          "name": "msgsender",
          "type": "address"
        },
        {
          "indexed": false,
          "internalType": "uint256",
          "name": "amout",
          "type": "uint256"
        }
      ],
      "name": "donatingAcro",
      "type": "event"
    },
    {
      "anonymous": false,
      "inputs": [
        {
          "indexed": false,
          "internalType": "address",
          "name": "otheradress",
          "type": "address"
        },
        {
          "indexed": false,
          "internalType": "uint256",
          "name": "amount",
          "type": "uint256"
        }
      ],
      "name": "withdrawal",
      "type": "event"
    },
    {
      "inputs": [
        {
          "internalType": "address",
          "name": "owner",
          "type": "address"
        },
        {
          "internalType": "address",
          "name": "spender",
          "type": "address"
        }
      ],
      "name": "allowance",
      "outputs": [
        {
          "internalType": "uint256",
          "name": "",
          "type": "uint256"
        }
      ],
      "stateMutability": "view",
      "type": "function",
      "constant": true
    },
    {
      "inputs": [
        {
          "internalType": "address",
          "name": "spender",
          "type": "address"
        },
        {
          "internalType": "uint256",
          "name": "amount",
          "type": "uint256"
        }
      ],
      "name": "approve",
      "outputs": [
        {
          "internalType": "bool",
          "name": "",
          "type": "bool"
        }
      ],
      "stateMutability": "nonpayable",
      "type": "function"
    },
    {
      "inputs": [
        {
          "internalType": "address",
          "name": "account",
          "type": "address"
        }
      ],
      "name": "balanceOf",
      "outputs": [
        {
          "internalType": "uint256",
          "name": "",
          "type": "uint256"
        }
      ],
      "stateMutability": "view",
      "type": "function",
      "constant": true
    },
    {
      "inputs": [],
      "name": "decimals",
      "outputs": [
        {
          "internalType": "uint8",
          "name": "",
          "type": "uint8"
        }
      ],
      "stateMutability": "view",
      "type": "function",
      "constant": true
    },
    {
      "inputs": [
        {
          "internalType": "address",
          "name": "spender",
          "type": "address"
        },
        {
          "internalType": "uint256",
          "name": "subtractedValue",
          "type": "uint256"
        }
      ],
      "name": "decreaseAllowance",
      "outputs": [
        {
          "internalType": "bool",
          "name": "",
          "type": "bool"
        }
      ],
      "stateMutability": "nonpayable",
      "type": "function"
    },
    {
      "inputs": [
        {
          "internalType": "address",
          "name": "",
          "type": "address"
        }
      ],
      "name": "hasStaked",
      "outputs": [
        {
          "internalType": "bool",
          "name": "",
          "type": "bool"
        }
      ],
      "stateMutability": "view",
      "type": "function",
      "constant": true
    },
    {
      "inputs": [
        {
          "internalType": "address",
          "name": "spender",
          "type": "address"
        },
        {
          "internalType": "uint256",
          "name": "addedValue",
          "type": "uint256"
        }
      ],
      "name": "increaseAllowance",
      "outputs": [
        {
          "internalType": "bool",
          "name": "",
          "type": "bool"
        }
      ],
      "stateMutability": "nonpayable",
      "type": "function"
    },
    {
      "inputs": [
        {
          "internalType": "address",
          "name": "",
          "type": "address"
        }
      ],
      "name": "isStaking",
      "outputs": [
        {
          "internalType": "bool",
          "name": "",
          "type": "bool"
        }
      ],
      "stateMutability": "view",
      "type": "function",
      "constant": true
    },
    {
      "inputs": [],
      "name": "name",
      "outputs": [
        {
          "internalType": "string",
          "name": "",
          "type": "string"
        }
      ],
      "stateMutability": "view",
      "type": "function",
      "constant": true
    },
    {
      "inputs": [],
      "name": "owner",
      "outputs": [
        {
          "internalType": "address",
          "name": "",
          "type": "address"
        }
      ],
      "stateMutability": "view",
      "type": "function",
      "constant": true
    },
    {
      "inputs": [],
      "name": "renounceOwnership",
      "outputs": [],
      "stateMutability": "nonpayable",
      "type": "function"
    },
    {
      "inputs": [
        {
          "internalType": "uint256",
          "name": "",
          "type": "uint256"
        }
      ],
      "name": "stakers",
      "outputs": [
        {
          "internalType": "address",
          "name": "",
          "type": "address"
        }
      ],
      "stateMutability": "view",
      "type": "function",
      "constant": true
    },
    {
      "inputs": [
        {
          "internalType": "address",
          "name": "",
          "type": "address"
        }
      ],
      "name": "stakingBalance",
      "outputs": [
        {
          "internalType": "uint256",
          "name": "",
          "type": "uint256"
        }
      ],
      "stateMutability": "view",
      "type": "function",
      "constant": true
    },
    {
      "inputs": [],
      "name": "symbol",
      "outputs": [
        {
          "internalType": "string",
          "name": "",
          "type": "string"
        }
      ],
      "stateMutability": "view",
      "type": "function",
      "constant": true
    },
    {
      "inputs": [],
      "name": "totalSupply",
      "outputs": [
        {
          "internalType": "uint256",
          "name": "",
          "type": "uint256"
        }
      ],
      "stateMutability": "view",
      "type": "function",
      "constant": true
    },
    {
      "inputs": [
        {
          "internalType": "address",
          "name": "recipient",
          "type": "address"
        },
        {
          "internalType": "uint256",
          "name": "amount",
          "type": "uint256"
        }
      ],
      "name": "transfer",
      "outputs": [
        {
          "internalType": "bool",
          "name": "",
          "type": "bool"
        }
      ],
      "stateMutability": "nonpayable",
      "type": "function"
    },
    {
      "inputs": [
        {
          "internalType": "address",
          "name": "sender",
          "type": "address"
        },
        {
          "internalType": "address",
          "name": "recipient",
          "type": "address"
        },
        {
          "internalType": "uint256",
          "name": "amount",
          "type": "uint256"
        }
      ],
      "name": "transferFrom",
      "outputs": [
        {
          "internalType": "bool",
          "name": "",
          "type": "bool"
        }
      ],
      "stateMutability": "nonpayable",
      "type": "function"
    },
    {
      "inputs": [
        {
          "internalType": "address",
          "name": "newOwner",
          "type": "address"
        }
      ],
      "name": "transferOwnership",
      "outputs": [],
      "stateMutability": "nonpayable",
      "type": "function"
    },
    {
      "inputs": [],
      "name": "buy_acro",
      "outputs": [],
      "stateMutability": "payable",
      "type": "function",
      "payable": true
    },
    {
      "inputs": [],
      "name": "get_ether_balance_of_this_contract",
      "outputs": [
        {
          "internalType": "uint256",
          "name": "",
          "type": "uint256"
        }
      ],
      "stateMutability": "view",
      "type": "function",
      "constant": true
    },
    {
      "inputs": [],
      "name": "get_acro_balance_of_this_contract",
      "outputs": [
        {
          "internalType": "uint256",
          "name": "",
          "type": "uint256"
        }
      ],
      "stateMutability": "view",
      "type": "function",
      "constant": true
    },
    {
      "inputs": [],
      "name": "get_ether_balance_of_sender",
      "outputs": [
        {
          "internalType": "uint256",
          "name": "",
          "type": "uint256"
        }
      ],
      "stateMutability": "view",
      "type": "function",
      "constant": true
    },
    {
      "inputs": [],
      "name": "get_acro_balance_of_sender",
      "outputs": [
        {
          "internalType": "uint256",
          "name": "",
          "type": "uint256"
        }
      ],
      "stateMutability": "view",
      "type": "function",
      "constant": true
    },
    {
      "inputs": [
        {
          "internalType": "uint256",
          "name": "amount",
          "type": "uint256"
        }
      ],
      "name": "acro_donation",
      "outputs": [],
      "stateMutability": "nonpayable",
      "type": "function"
    },
    {
      "inputs": [
        {
          "internalType": "uint256",
          "name": "amount",
          "type": "uint256"
        }
      ],
      "name": "withdraw_ether",
      "outputs": [],
      "stateMutability": "payable",
      "type": "function",
      "payable": true
    },
    {
      "inputs": [
        {
          "internalType": "address",
          "name": "addr",
          "type": "address"
        }
      ],
      "name": "is_staking_acro",
      "outputs": [
        {
          "internalType": "bool",
          "name": "",
          "type": "bool"
        }
      ],
      "stateMutability": "view",
      "type": "function",
      "constant": true
    },
    {
      "inputs": [
        {
          "internalType": "address",
          "name": "addr",
          "type": "address"
        }
      ],
      "name": "staking_balance",
      "outputs": [
        {
          "internalType": "uint256",
          "name": "",
          "type": "uint256"
        }
      ],
      "stateMutability": "view",
      "type": "function",
      "constant": true
    },
    {
      "inputs": [
        {
          "internalType": "uint256",
          "name": "_amount",
          "type": "uint256"
        }
      ],
      "name": "stakeAcroTokens",
      "outputs": [],
      "stateMutability": "nonpayable",
      "type": "function"
    },
    {
      "inputs": [],
      "name": "unstakeTokens",
      "outputs": [],
      "stateMutability": "nonpayable",
      "type": "function"
    }
  ],
  "bytecode": "0x60806040523480156200001157600080fd5b506040518060400160405280600e81526020017f4163726f706f726120546f6b656e0000000000000000000000000000000000008152506040518060400160405280600481526020017f4143524f00000000000000000000000000000000000000000000000000000000815250816003908051906020019062000096929190620002f7565b508060049080519060200190620000af929190620002f7565b5050506000620000c46200018560201b60201c565b905080600560006101000a81548173ffffffffffffffffffffffffffffffffffffffff021916908373ffffffffffffffffffffffffffffffffffffffff1602179055508073ffffffffffffffffffffffffffffffffffffffff16600073ffffffffffffffffffffffffffffffffffffffff167f8be0079c531659141344cd1fd0a4f28419497f9722a3daafe3b4186f6b6457e060405160405180910390a3506200017f3069021e19e0c9bab24000006200018d60201b60201c565b62000545565b600033905090565b600073ffffffffffffffffffffffffffffffffffffffff168273ffffffffffffffffffffffffffffffffffffffff16141562000200576040517f08c379a0000000000000000000000000000000000000000000000000000000008152600401620001f790620003fa565b60405180910390fd5b6200021460008383620002f260201b60201c565b80600260008282546200022891906200044a565b92505081905550806000808473ffffffffffffffffffffffffffffffffffffffff1673ffffffffffffffffffffffffffffffffffffffff16815260200190815260200160002060008282546200027f91906200044a565b925050819055508173ffffffffffffffffffffffffffffffffffffffff16600073ffffffffffffffffffffffffffffffffffffffff167fddf252ad1be2c89b69c2b068fc378daa952ba7f163c4a11628f55a4df523b3ef83604051620002e691906200041c565b60405180910390a35050565b505050565b8280546200030590620004b1565b90600052602060002090601f01602090048101928262000329576000855562000375565b82601f106200034457805160ff191683800117855562000375565b8280016001018555821562000375579182015b828111156200037457825182559160200191906001019062000357565b5b50905062000384919062000388565b5090565b5b80821115620003a357600081600090555060010162000389565b5090565b6000620003b6601f8362000439565b91507f45524332303a206d696e7420746f20746865207a65726f2061646472657373006000830152602082019050919050565b620003f481620004a7565b82525050565b600060208201905081810360008301526200041581620003a7565b9050919050565b6000602082019050620004336000830184620003e9565b92915050565b600082825260208201905092915050565b60006200045782620004a7565b91506200046483620004a7565b9250827fffffffffffffffffffffffffffffffffffffffffffffffffffffffffffffffff038211156200049c576200049b620004e7565b5b828201905092915050565b6000819050919050565b60006002820490506001821680620004ca57607f821691505b60208210811415620004e157620004e062000516565b5b50919050565b7f4e487b7100000000000000000000000000000000000000000000000000000000600052601160045260246000fd5b7f4e487b7100000000000000000000000000000000000000000000000000000000600052602260045260246000fd5b61254980620005556000396000f3fe6080604052600436106101c25760003560e01c80638da5cb5b116100f7578063c231946911610095578063e18c056c11610064578063e18c056c1461067a578063eaea7019146106a3578063f2fde38b146106cc578063fd5e6dd1146106f5576101c2565b8063c2319469146105aa578063c93c8f34146105d5578063c9d6a32614610612578063dd62ed3e1461063d576101c2565b8063a457c2d7116100d1578063a457c2d7146104ee578063a5ce413b1461052b578063a9059cbb14610542578063b82f07491461057f576101c2565b80638da5cb5b1461045b57806395d89b4114610486578063a3e64ffa146104b1576101c2565b806345bc78ab1161016457806370a082311161013e57806370a08231146103d2578063715018a61461040f5780637a2af75a14610426578063832cce6414610451576101c2565b806345bc78ab1461031b57806357ce2caf146103585780636f49712b14610395576101c2565b806318160ddd116101a057806318160ddd1461024b57806323b872dd14610276578063313ce567146102b357806339509351146102de576101c2565b806306fdde03146101c7578063084c4174146101f2578063095ea7b31461020e575b600080fd5b3480156101d357600080fd5b506101dc610732565b6040516101e991906120e4565b60405180910390f35b61020c60048036038101906102079190611bb7565b6107c4565b005b34801561021a57600080fd5b5061023560048036038101906102309190611b7b565b610906565b60405161024291906120c9565b60405180910390f35b34801561025757600080fd5b50610260610924565b60405161026d9190612286565b60405180910390f35b34801561028257600080fd5b5061029d60048036038101906102989190611b2c565b61092e565b6040516102aa91906120c9565b60405180910390f35b3480156102bf57600080fd5b506102c8610a2f565b6040516102d591906122a1565b60405180910390f35b3480156102ea57600080fd5b5061030560048036038101906103009190611b7b565b610a38565b60405161031291906120c9565b60405180910390f35b34801561032757600080fd5b50610342600480360381019061033d9190611ac7565b610ae4565b60405161034f9190612286565b60405180910390f35b34801561036457600080fd5b5061037f600480360381019061037a9190611ac7565b610afc565b60405161038c9190612286565b60405180910390f35b3480156103a157600080fd5b506103bc60048036038101906103b79190611ac7565b610b45565b6040516103c991906120c9565b60405180910390f35b3480156103de57600080fd5b506103f960048036038101906103f49190611ac7565b610b65565b6040516104069190612286565b60405180910390f35b34801561041b57600080fd5b50610424610bad565b005b34801561043257600080fd5b5061043b610cea565b6040516104489190612286565b60405180910390f35b610459610cf2565b005b34801561046757600080fd5b50610470610d51565b60405161047d9190612085565b60405180910390f35b34801561049257600080fd5b5061049b610d7b565b6040516104a891906120e4565b60405180910390f35b3480156104bd57600080fd5b506104d860048036038101906104d39190611ac7565b610e0d565b6040516104e591906120c9565b60405180910390f35b3480156104fa57600080fd5b5061051560048036038101906105109190611b7b565b610e63565b60405161052291906120c9565b60405180910390f35b34801561053757600080fd5b50610540610f57565b005b34801561054e57600080fd5b5061056960048036038101906105649190611b7b565b611089565b60405161057691906120c9565b60405180910390f35b34801561058b57600080fd5b506105946110a7565b6040516105a19190612286565b60405180910390f35b3480156105b657600080fd5b506105bf6110c6565b6040516105cc9190612286565b60405180910390f35b3480156105e157600080fd5b506105fc60048036038101906105f79190611ac7565b6110d6565b60405161060991906120c9565b60405180910390f35b34801561061e57600080fd5b506106276110f6565b6040516106349190612286565b60405180910390f35b34801561064957600080fd5b50610664600480360381019061065f9190611af0565b611106565b6040516106719190612286565b60405180910390f35b34801561068657600080fd5b506106a1600480360381019061069c9190611bb7565b61118d565b005b3480156106af57600080fd5b506106ca60048036038101906106c59190611bb7565b6113d1565b005b3480156106d857600080fd5b506106f360048036038101906106ee9190611ac7565b61145b565b005b34801561070157600080fd5b5061071c60048036038101906107179190611bb7565b611607565b6040516107299190612085565b60405180910390f35b60606003805461074190612444565b80601f016020809104026020016040519081016040528092919081815260200182805461076d90612444565b80156107ba5780601f1061078f576101008083540402835291602001916107ba565b820191906000526020600020905b81548152906001019060200180831161079d57829003601f168201915b5050505050905090565b6107cc611646565b73ffffffffffffffffffffffffffffffffffffffff166107ea610d51565b73ffffffffffffffffffffffffffffffffffffffff1614610840576040517f08c379a0000000000000000000000000000000000000000000000000000000008152600401610837906121e6565b60405180910390fd5b80471015610883576040517f08c379a000000000000000000000000000000000000000000000000000000000815260040161087a906121a6565b60405180910390fd5b3373ffffffffffffffffffffffffffffffffffffffff166108fc829081150290604051600060405180830381858888f193505050501580156108c9573d6000803e3d6000fd5b507f5a6b26bafd3957bf06ea3b4915f51221953ed272573c779820e6e39df3e646cf33826040516108fb9291906120a0565b60405180910390a150565b600061091a610913611646565b848461164e565b6001905092915050565b6000600254905090565b600061093b848484611819565b6000600160008673ffffffffffffffffffffffffffffffffffffffff1673ffffffffffffffffffffffffffffffffffffffff1681526020019081526020016000206000610986611646565b73ffffffffffffffffffffffffffffffffffffffff1673ffffffffffffffffffffffffffffffffffffffff16815260200190815260200160002054905082811015610a06576040517f08c379a00000000000000000000000000000000000000000000000000000000081526004016109fd906121c6565b60405180910390fd5b610a2385610a12611646565b8584610a1e9190612388565b61164e565b60019150509392505050565b60006012905090565b6000610ada610a45611646565b848460016000610a53611646565b73ffffffffffffffffffffffffffffffffffffffff1673ffffffffffffffffffffffffffffffffffffffff16815260200190815260200160002060008873ffffffffffffffffffffffffffffffffffffffff1673ffffffffffffffffffffffffffffffffffffffff16815260200190815260200160002054610ad591906122d8565b61164e565b6001905092915050565b60076020528060005260406000206000915090505481565b6000600760008373ffffffffffffffffffffffffffffffffffffffff1673ffffffffffffffffffffffffffffffffffffffff168152602001908152602001600020549050919050565b60096020528060005260406000206000915054906101000a900460ff1681565b60008060008373ffffffffffffffffffffffffffffffffffffffff1673ffffffffffffffffffffffffffffffffffffffff168152602001908152602001600020549050919050565b610bb5611646565b73ffffffffffffffffffffffffffffffffffffffff16610bd3610d51565b73ffffffffffffffffffffffffffffffffffffffff1614610c29576040517f08c379a0000000000000000000000000000000000000000000000000000000008152600401610c20906121e6565b60405180910390fd5b600073ffffffffffffffffffffffffffffffffffffffff16600560009054906101000a900473ffffffffffffffffffffffffffffffffffffffff1673ffffffffffffffffffffffffffffffffffffffff167f8be0079c531659141344cd1fd0a4f28419497f9722a3daafe3b4186f6b6457e060405160405180910390a36000600560006101000a81548173ffffffffffffffffffffffffffffffffffffffff021916908373ffffffffffffffffffffffffffffffffffffffff160217905550565b600047905090565b60003411610cff57600080fd5b610d163033601434610d11919061232e565b611819565b7fe61a42443616fd63033ac05b7aaf024ec585198be2c5c1fba141538c86845f223334604051610d479291906120a0565b60405180910390a1565b6000600560009054906101000a900473ffffffffffffffffffffffffffffffffffffffff16905090565b606060048054610d8a90612444565b80601f0160208091040260200160405190810160405280929190818152602001828054610db690612444565b8015610e035780601f10610dd857610100808354040283529160200191610e03565b820191906000526020600020905b815481529060010190602001808311610de657829003601f168201915b5050505050905090565b6000600960008373ffffffffffffffffffffffffffffffffffffffff1673ffffffffffffffffffffffffffffffffffffffff16815260200190815260200160002060009054906101000a900460ff169050919050565b60008060016000610e72611646565b73ffffffffffffffffffffffffffffffffffffffff1673ffffffffffffffffffffffffffffffffffffffff16815260200190815260200160002060008573ffffffffffffffffffffffffffffffffffffffff1673ffffffffffffffffffffffffffffffffffffffff16815260200190815260200160002054905082811015610f2f576040517f08c379a0000000000000000000000000000000000000000000000000000000008152600401610f2690612266565b60405180910390fd5b610f4c610f3a611646565b858584610f479190612388565b61164e565b600191505092915050565b6000600760003373ffffffffffffffffffffffffffffffffffffffff1673ffffffffffffffffffffffffffffffffffffffff16815260200190815260200160002054905060008111610fde576040517f08c379a0000000000000000000000000000000000000000000000000000000008152600401610fd590612186565b60405180910390fd5b610fe9303383611819565b6000600760003373ffffffffffffffffffffffffffffffffffffffff1673ffffffffffffffffffffffffffffffffffffffff168152602001908152602001600020819055506000600960003373ffffffffffffffffffffffffffffffffffffffff1673ffffffffffffffffffffffffffffffffffffffff16815260200190815260200160002060006101000a81548160ff02191690831515021790555050565b600061109d611096611646565b8484611819565b6001905092915050565b60003373ffffffffffffffffffffffffffffffffffffffff1631905090565b60006110d133610b65565b905090565b60086020528060005260406000206000915054906101000a900460ff1681565b600061110130610b65565b905090565b6000600160008473ffffffffffffffffffffffffffffffffffffffff1673ffffffffffffffffffffffffffffffffffffffff16815260200190815260200160002060008373ffffffffffffffffffffffffffffffffffffffff1673ffffffffffffffffffffffffffffffffffffffff16815260200190815260200160002054905092915050565b600081116111d0576040517f08c379a00000000000000000000000000000000000000000000000000000000081526004016111c790612246565b60405180910390fd5b6111da3082611089565b5080600760003373ffffffffffffffffffffffffffffffffffffffff1673ffffffffffffffffffffffffffffffffffffffff1681526020019081526020016000205461122691906122d8565b600760003373ffffffffffffffffffffffffffffffffffffffff1673ffffffffffffffffffffffffffffffffffffffff16815260200190815260200160002081905550600860003373ffffffffffffffffffffffffffffffffffffffff1673ffffffffffffffffffffffffffffffffffffffff16815260200190815260200160002060009054906101000a900460ff1661131e576006339080600181540180825580915050600190039060005260206000200160009091909190916101000a81548173ffffffffffffffffffffffffffffffffffffffff021916908373ffffffffffffffffffffffffffffffffffffffff1602179055505b6001600960003373ffffffffffffffffffffffffffffffffffffffff1673ffffffffffffffffffffffffffffffffffffffff16815260200190815260200160002060006101000a81548160ff0219169083151502179055506001600860003373ffffffffffffffffffffffffffffffffffffffff1673ffffffffffffffffffffffffffffffffffffffff16815260200190815260200160002060006101000a81548160ff02191690831515021790555050565b60008111611414576040517f08c379a000000000000000000000000000000000000000000000000000000000815260040161140b90612246565b60405180910390fd5b61141e3082611089565b507f51c89abb112c19eb904790566d8caac17803d38178ce48d49eb2a80661409ba133826040516114509291906120a0565b60405180910390a150565b611463611646565b73ffffffffffffffffffffffffffffffffffffffff16611481610d51565b73ffffffffffffffffffffffffffffffffffffffff16146114d7576040517f08c379a00000000000000000000000000000000000000000000000000000000081526004016114ce906121e6565b60405180910390fd5b600073ffffffffffffffffffffffffffffffffffffffff168173ffffffffffffffffffffffffffffffffffffffff161415611547576040517f08c379a000000000000000000000000000000000000000000000000000000000815260040161153e90612126565b60405180910390fd5b8073ffffffffffffffffffffffffffffffffffffffff16600560009054906101000a900473ffffffffffffffffffffffffffffffffffffffff1673ffffffffffffffffffffffffffffffffffffffff167f8be0079c531659141344cd1fd0a4f28419497f9722a3daafe3b4186f6b6457e060405160405180910390a380600560006101000a81548173ffffffffffffffffffffffffffffffffffffffff021916908373ffffffffffffffffffffffffffffffffffffffff16021790555050565b6006818154811061161757600080fd5b906000526020600020016000915054906101000a900473ffffffffffffffffffffffffffffffffffffffff1681565b600033905090565b600073ffffffffffffffffffffffffffffffffffffffff168373ffffffffffffffffffffffffffffffffffffffff1614156116be576040517f08c379a00000000000000000000000000000000000000000000000000000000081526004016116b590612226565b60405180910390fd5b600073ffffffffffffffffffffffffffffffffffffffff168273ffffffffffffffffffffffffffffffffffffffff16141561172e576040517f08c379a000000000000000000000000000000000000000000000000000000000815260040161172590612146565b60405180910390fd5b80600160008573ffffffffffffffffffffffffffffffffffffffff1673ffffffffffffffffffffffffffffffffffffffff16815260200190815260200160002060008473ffffffffffffffffffffffffffffffffffffffff1673ffffffffffffffffffffffffffffffffffffffff168152602001908152602001600020819055508173ffffffffffffffffffffffffffffffffffffffff168373ffffffffffffffffffffffffffffffffffffffff167f8c5be1e5ebec7d5bd14f71427d1e84f3dd0314c0f7b2291e5b200ac8c7c3b9258360405161180c9190612286565b60405180910390a3505050565b600073ffffffffffffffffffffffffffffffffffffffff168373ffffffffffffffffffffffffffffffffffffffff161415611889576040517f08c379a000000000000000000000000000000000000000000000000000000000815260040161188090612206565b60405180910390fd5b600073ffffffffffffffffffffffffffffffffffffffff168273ffffffffffffffffffffffffffffffffffffffff1614156118f9576040517f08c379a00000000000000000000000000000000000000000000000000000000081526004016118f090612106565b60405180910390fd5b611904838383611a98565b60008060008573ffffffffffffffffffffffffffffffffffffffff1673ffffffffffffffffffffffffffffffffffffffff1681526020019081526020016000205490508181101561198a576040517f08c379a000000000000000000000000000000000000000000000000000000000815260040161198190612166565b60405180910390fd5b81816119969190612388565b6000808673ffffffffffffffffffffffffffffffffffffffff1673ffffffffffffffffffffffffffffffffffffffff16815260200190815260200160002081905550816000808573ffffffffffffffffffffffffffffffffffffffff1673ffffffffffffffffffffffffffffffffffffffff1681526020019081526020016000206000828254611a2691906122d8565b925050819055508273ffffffffffffffffffffffffffffffffffffffff168473ffffffffffffffffffffffffffffffffffffffff167fddf252ad1be2c89b69c2b068fc378daa952ba7f163c4a11628f55a4df523b3ef84604051611a8a9190612286565b60405180910390a350505050565b505050565b600081359050611aac816124e5565b92915050565b600081359050611ac1816124fc565b92915050565b600060208284031215611ad957600080fd5b6000611ae784828501611a9d565b91505092915050565b60008060408385031215611b0357600080fd5b6000611b1185828601611a9d565b9250506020611b2285828601611a9d565b9150509250929050565b600080600060608486031215611b4157600080fd5b6000611b4f86828701611a9d565b9350506020611b6086828701611a9d565b9250506040611b7186828701611ab2565b9150509250925092565b60008060408385031215611b8e57600080fd5b6000611b9c85828601611a9d565b9250506020611bad85828601611ab2565b9150509250929050565b600060208284031215611bc957600080fd5b6000611bd784828501611ab2565b91505092915050565b611be9816123bc565b82525050565b611bf8816123ce565b82525050565b6000611c09826122bc565b611c1381856122c7565b9350611c23818560208601612411565b611c2c816124d4565b840191505092915050565b6000611c446023836122c7565b91507f45524332303a207472616e7366657220746f20746865207a65726f206164647260008301527f65737300000000000000000000000000000000000000000000000000000000006020830152604082019050919050565b6000611caa6026836122c7565b91507f4f776e61626c653a206e6577206f776e657220697320746865207a65726f206160008301527f64647265737300000000000000000000000000000000000000000000000000006020830152604082019050919050565b6000611d106022836122c7565b91507f45524332303a20617070726f766520746f20746865207a65726f20616464726560008301527f73730000000000000000000000000000000000000000000000000000000000006020830152604082019050919050565b6000611d766026836122c7565b91507f45524332303a207472616e7366657220616d6f756e742065786365656473206260008301527f616c616e636500000000000000000000000000000000000000000000000000006020830152604082019050919050565b6000611ddc601b836122c7565b91507f7374616b696e672062616c616e63652063616e6e6f74206265203000000000006000830152602082019050919050565b6000611e1c601a836122c7565b91507f6163636f756e742062616c616e636520697320746f6f206c6f770000000000006000830152602082019050919050565b6000611e5c6028836122c7565b91507f45524332303a207472616e7366657220616d6f756e742065786365656473206160008301527f6c6c6f77616e63650000000000000000000000000000000000000000000000006020830152604082019050919050565b6000611ec26020836122c7565b91507f4f776e61626c653a2063616c6c6572206973206e6f7420746865206f776e65726000830152602082019050919050565b6000611f026025836122c7565b91507f45524332303a207472616e736665722066726f6d20746865207a65726f20616460008301527f64726573730000000000000000000000000000000000000000000000000000006020830152604082019050919050565b6000611f686024836122c7565b91507f45524332303a20617070726f76652066726f6d20746865207a65726f2061646460008301527f72657373000000000000000000000000000000000000000000000000000000006020830152604082019050919050565b6000611fce6012836122c7565b91507f616d6f756e742063616e6e6f74206265203000000000000000000000000000006000830152602082019050919050565b600061200e6025836122c7565b91507f45524332303a2064656372656173656420616c6c6f77616e63652062656c6f7760008301527f207a65726f0000000000000000000000000000000000000000000000000000006020830152604082019050919050565b612070816123fa565b82525050565b61207f81612404565b82525050565b600060208201905061209a6000830184611be0565b92915050565b60006040820190506120b56000830185611be0565b6120c26020830184612067565b9392505050565b60006020820190506120de6000830184611bef565b92915050565b600060208201905081810360008301526120fe8184611bfe565b905092915050565b6000602082019050818103600083015261211f81611c37565b9050919050565b6000602082019050818103600083015261213f81611c9d565b9050919050565b6000602082019050818103600083015261215f81611d03565b9050919050565b6000602082019050818103600083015261217f81611d69565b9050919050565b6000602082019050818103600083015261219f81611dcf565b9050919050565b600060208201905081810360008301526121bf81611e0f565b9050919050565b600060208201905081810360008301526121df81611e4f565b9050919050565b600060208201905081810360008301526121ff81611eb5565b9050919050565b6000602082019050818103600083015261221f81611ef5565b9050919050565b6000602082019050818103600083015261223f81611f5b565b9050919050565b6000602082019050818103600083015261225f81611fc1565b9050919050565b6000602082019050818103600083015261227f81612001565b9050919050565b600060208201905061229b6000830184612067565b92915050565b60006020820190506122b66000830184612076565b92915050565b600081519050919050565b600082825260208201905092915050565b60006122e3826123fa565b91506122ee836123fa565b9250827fffffffffffffffffffffffffffffffffffffffffffffffffffffffffffffffff0382111561232357612322612476565b5b828201905092915050565b6000612339826123fa565b9150612344836123fa565b9250817fffffffffffffffffffffffffffffffffffffffffffffffffffffffffffffffff048311821515161561237d5761237c612476565b5b828202905092915050565b6000612393826123fa565b915061239e836123fa565b9250828210156123b1576123b0612476565b5b828203905092915050565b60006123c7826123da565b9050919050565b60008115159050919050565b600073ffffffffffffffffffffffffffffffffffffffff82169050919050565b6000819050919050565b600060ff82169050919050565b60005b8381101561242f578082015181840152602081019050612414565b8381111561243e576000848401525b50505050565b6000600282049050600182168061245c57607f821691505b602082108114156124705761246f6124a5565b5b50919050565b7f4e487b7100000000000000000000000000000000000000000000000000000000600052601160045260246000fd5b7f4e487b7100000000000000000000000000000000000000000000000000000000600052602260045260246000fd5b6000601f19601f8301169050919050565b6124ee816123bc565b81146124f957600080fd5b50565b612505816123fa565b811461251057600080fd5b5056fea26469706673582212209e736bae4be50e1634c6e0d7efde156a71dd1dd7957a66a823dfac218ba679a464736f6c63430008000033",
  "immutableReferences": {},
  "source": "//Acro.sol token Acropora\n// SPDX-License-Identifier: MIT\npragma solidity 0.8.0;\n\nimport \"@openzeppelin/contracts/token/ERC20/ERC20.sol\";\nimport \"@openzeppelin/contracts/access/Ownable.sol\";\n\n/** @title Token acro - production and storage */\ncontract Acro is ERC20, Ownable {\n\n   /// @dev Initial supply is produced at deployment\n   /// ERC20 Standard, token is named Acro\n    constructor() ERC20(\"Acropora Token\", \"ACRO\") {\n      _mint(address(this), 10000000000000000000000);\n    }\n    \n   //List of events\n   event buyingAcro(address msgsender, uint256 amount);\n   event donatingAcro(address msgsender, uint256 amout);\n   event withdrawal(address otheradress, uint256 amount);\n\n   // TO DO - modify fonction, to be discussed\n   /// @dev to buy acro\n    function buy_acro() external payable {\n       require(msg.value>0);\n       _transfer(address(this), msg.sender, msg.value*20);\n       emit buyingAcro(msg.sender, msg.value);\n    }\n\n   /// @dev to get the balance in ether of this contract\n   /// @return uint balance in ether\n    function get_ether_balance_of_this_contract() external view returns (uint) {\n       return address(this).balance;\n    }\n\n   /// @dev to get the balance in acro of this contract\n   /// @return uint balance in acro\n    function get_acro_balance_of_this_contract() external view returns (uint) {\n       return balanceOf(address(this));\n    }\n\n   // Does not work on Ganache: wrong user eth balance value. seems to be a Ganache bug!\n   /// @dev to get the balance in ether of the message sender\n   /// @return uint balance in ether\n    function get_ether_balance_of_sender() external view returns (uint) {\n       return msg.sender.balance;\n    }\n   /// @dev to get the balance in acro of the message sender\n   /// @return uint balance in acro\n    function get_acro_balance_of_sender() external view returns (uint) {\n       return balanceOf(msg.sender);\n    }\n\n   /// @dev to make a donation in acro to this contract\n   /// acro'balance must be greater than 0\n   /// @param amount amount in acro to be donated \n    function acro_donation(uint256 amount) external {\n       require(amount > 0, \"amount cannot be 0\");\n       transfer(address(this), amount);\n       emit donatingAcro(msg.sender, amount);\n    }\n\n   //to be checked and modified?\n   /// @dev to withdraw ether from this contract - so they are not stucked for ever!\n   /// ether'balance must be greater than the requested amount\n   /// @param amount amount in ether to be withdraw\n    function withdraw_ether(uint256 amount) external payable onlyOwner {\n      require(address(this).balance >= amount, \"account balance is too low\");\n      payable(msg.sender).transfer(amount);\n      emit withdrawal(msg.sender, amount);\n    }\n\n   //---------------------------------------------------------------------------------------------\n   //Staking Acro: Actors must stake a certain amount of Acro to be able to vote for other actors\n   //--------------------------------------------------------------------------------------------\n\n    address[] public stakers;\n    mapping(address => uint) public stakingBalance;\n    mapping(address => bool) public hasStaked;\n    mapping(address => bool) public isStaking;\n\n   \n   /// @dev get if an actor is staking acro or not (for IU)\n   /// @param addr actor'address\n   /// @return true or false\n    function is_staking_acro(address addr) external view returns (bool) {\n      return isStaking[addr];\n   }\n\n   /// @dev get the staking balance of an actor (for IU)\n   /// @param addr actor'address\n   /// @return uint amount in acro\n   function staking_balance(address addr) external view returns (uint) {\n      return stakingBalance[addr];\n   }\n   \n\n   /// @dev to stake acro in the contract in order to vote (used in AcroActors.sol)\n   /// staked amount must be greater than zero\n   /// staking balance is updated\n   /// sdd user to stakers array *only* if they haven't staked already\n   /// staking staking status are updated\n   /// @param _amount nb of acros to be staked\n   function stakeAcroTokens(uint _amount) public {\n         require(_amount > 0, \"amount cannot be 0\");\n         transfer(address(this), _amount);\n         stakingBalance[msg.sender] = stakingBalance[msg.sender] + _amount;\n         \n         if(!hasStaked[msg.sender]) {\n               stakers.push(msg.sender);\n         }\n         \n         isStaking[msg.sender] = true;\n         hasStaked[msg.sender] = true;\n            \n       }\n\n   ///TO DO: a timelock! i.e. stakers must stake for at least a certain period of time\n   /// @dev to unstake all the user'acro from the contract\n   /// staking balance of user must be greater than zero\n   /// staking balance is updated\n   /// staking staking status are updated\n    function unstakeTokens() public {\n        uint256 balance = stakingBalance[msg.sender];\n        require(balance > 0, \"staking balance cannot be 0\");\n        _transfer( address(this), msg.sender, balance);\n        stakingBalance[msg.sender] = 0;\n        isStaking[msg.sender] = false;\n    }\n\n}\n\n",
  "sourcePath": "/home/deva/decri/contracts/Acro.sol",
  "compiler": {
    "name": "solc",
    "version": "0.8.0+commit.c7dfd78e.Emscripten.clang"
  },
  "schemaVersion": "3.3.4",
  "updatedAt": "2021-04-16T07:44:49.861Z",
  "networkType": "ethereum",
  "devdoc": {
    "kind": "dev",
    "methods": {
      "acro_donation(uint256)": {
        "details": "to make a donation in acro to this contract acro'balance must be greater than 0",
        "params": {
          "amount": "amount in acro to be donated "
        }
      },
      "allowance(address,address)": {
        "details": "See {IERC20-allowance}."
      },
      "approve(address,uint256)": {
        "details": "See {IERC20-approve}. Requirements: - `spender` cannot be the zero address."
      },
      "balanceOf(address)": {
        "details": "See {IERC20-balanceOf}."
      },
      "buy_acro()": {
        "details": "to buy acro"
      },
      "constructor": {
        "details": "Initial supply is produced at deployment ERC20 Standard, token is named Acro"
      },
      "decimals()": {
        "details": "Returns the number of decimals used to get its user representation. For example, if `decimals` equals `2`, a balance of `505` tokens should be displayed to a user as `5,05` (`505 / 10 ** 2`). Tokens usually opt for a value of 18, imitating the relationship between Ether and Wei. This is the value {ERC20} uses, unless this function is overloaded; NOTE: This information is only used for _display_ purposes: it in no way affects any of the arithmetic of the contract, including {IERC20-balanceOf} and {IERC20-transfer}."
      },
      "decreaseAllowance(address,uint256)": {
        "details": "Atomically decreases the allowance granted to `spender` by the caller. This is an alternative to {approve} that can be used as a mitigation for problems described in {IERC20-approve}. Emits an {Approval} event indicating the updated allowance. Requirements: - `spender` cannot be the zero address. - `spender` must have allowance for the caller of at least `subtractedValue`."
      },
      "get_acro_balance_of_sender()": {
        "details": "to get the balance in acro of the message sender",
        "returns": {
          "_0": "uint balance in acro"
        }
      },
      "get_acro_balance_of_this_contract()": {
        "details": "to get the balance in acro of this contract",
        "returns": {
          "_0": "uint balance in acro"
        }
      },
      "get_ether_balance_of_sender()": {
        "details": "to get the balance in ether of the message sender",
        "returns": {
          "_0": "uint balance in ether"
        }
      },
      "get_ether_balance_of_this_contract()": {
        "details": "to get the balance in ether of this contract",
        "returns": {
          "_0": "uint balance in ether"
        }
      },
      "increaseAllowance(address,uint256)": {
        "details": "Atomically increases the allowance granted to `spender` by the caller. This is an alternative to {approve} that can be used as a mitigation for problems described in {IERC20-approve}. Emits an {Approval} event indicating the updated allowance. Requirements: - `spender` cannot be the zero address."
      },
      "is_staking_acro(address)": {
        "details": "get if an actor is staking acro or not (for IU)",
        "params": {
          "addr": "actor'address"
        },
        "returns": {
          "_0": "true or false"
        }
      },
      "name()": {
        "details": "Returns the name of the token."
      },
      "owner()": {
        "details": "Returns the address of the current owner."
      },
      "renounceOwnership()": {
        "details": "Leaves the contract without owner. It will not be possible to call `onlyOwner` functions anymore. Can only be called by the current owner. NOTE: Renouncing ownership will leave the contract without an owner, thereby removing any functionality that is only available to the owner."
      },
      "stakeAcroTokens(uint256)": {
        "details": "to stake acro in the contract in order to vote (used in AcroActors.sol) staked amount must be greater than zero staking balance is updated sdd user to stakers array *only* if they haven't staked already staking staking status are updated",
        "params": {
          "_amount": "nb of acros to be staked"
        }
      },
      "staking_balance(address)": {
        "details": "get the staking balance of an actor (for IU)",
        "params": {
          "addr": "actor'address"
        },
        "returns": {
          "_0": "uint amount in acro"
        }
      },
      "symbol()": {
        "details": "Returns the symbol of the token, usually a shorter version of the name."
      },
      "totalSupply()": {
        "details": "See {IERC20-totalSupply}."
      },
      "transfer(address,uint256)": {
        "details": "See {IERC20-transfer}. Requirements: - `recipient` cannot be the zero address. - the caller must have a balance of at least `amount`."
      },
      "transferFrom(address,address,uint256)": {
        "details": "See {IERC20-transferFrom}. Emits an {Approval} event indicating the updated allowance. This is not required by the EIP. See the note at the beginning of {ERC20}. Requirements: - `sender` and `recipient` cannot be the zero address. - `sender` must have a balance of at least `amount`. - the caller must have allowance for ``sender``'s tokens of at least `amount`."
      },
      "transferOwnership(address)": {
        "details": "Transfers ownership of the contract to a new account (`newOwner`). Can only be called by the current owner."
      },
      "unstakeTokens()": {
        "details": "to unstake all the user'acro from the contract staking balance of user must be greater than zero staking balance is updated staking staking status are updated"
      },
      "withdraw_ether(uint256)": {
        "details": "to withdraw ether from this contract - so they are not stucked for ever! ether'balance must be greater than the requested amount",
        "params": {
          "amount": "amount in ether to be withdraw"
        }
      }
    },
    "title": "Token acro - production and storage ",
    "version": 1
  },
  "userdoc": {
    "kind": "user",
    "methods": {
      "unstakeTokens()": {
        "notice": "TO DO: a timelock! i.e. stakers must stake for at least a certain period of time"
      }
    },
    "version": 1
  }
}