{
  "contractName": "Acro",
  "abi": [
    {
      "inputs": [],
      "stateMutability": "nonpayable",
      "type": "constructor"
    },
    {
      "anonymous": false,
      "inputs": [
        {
          "indexed": true,
          "internalType": "address",
          "name": "owner",
          "type": "address"
        },
        {
          "indexed": true,
          "internalType": "address",
          "name": "spender",
          "type": "address"
        },
        {
          "indexed": false,
          "internalType": "uint256",
          "name": "value",
          "type": "uint256"
        }
      ],
      "name": "Approval",
      "type": "event"
    },
    {
      "anonymous": false,
      "inputs": [
        {
          "indexed": true,
          "internalType": "address",
          "name": "previousOwner",
          "type": "address"
        },
        {
          "indexed": true,
          "internalType": "address",
          "name": "newOwner",
          "type": "address"
        }
      ],
      "name": "OwnershipTransferred",
      "type": "event"
    },
    {
      "anonymous": false,
      "inputs": [
        {
          "indexed": true,
          "internalType": "address",
          "name": "from",
          "type": "address"
        },
        {
          "indexed": true,
          "internalType": "address",
          "name": "to",
          "type": "address"
        },
        {
          "indexed": false,
          "internalType": "uint256",
          "name": "value",
          "type": "uint256"
        }
      ],
      "name": "Transfer",
      "type": "event"
    },
    {
      "anonymous": false,
      "inputs": [
        {
          "indexed": false,
          "internalType": "address",
          "name": "msgsender",
          "type": "address"
        },
        {
          "indexed": false,
          "internalType": "uint256",
          "name": "amount",
          "type": "uint256"
        }
      ],
      "name": "buyingAcro",
      "type": "event"
    },
    {
      "anonymous": false,
      "inputs": [
        {
          "indexed": false,
          "internalType": "address",
          "name": "msgsender",
          "type": "address"
        },
        {
          "indexed": false,
          "internalType": "uint256",
          "name": "amout",
          "type": "uint256"
        }
      ],
      "name": "donatingAcro",
      "type": "event"
    },
    {
      "anonymous": false,
      "inputs": [
        {
          "indexed": false,
          "internalType": "address",
          "name": "otheradress",
          "type": "address"
        },
        {
          "indexed": false,
          "internalType": "uint256",
          "name": "amount",
          "type": "uint256"
        }
      ],
      "name": "withdrawal",
      "type": "event"
    },
    {
      "inputs": [
        {
          "internalType": "address",
          "name": "owner",
          "type": "address"
        },
        {
          "internalType": "address",
          "name": "spender",
          "type": "address"
        }
      ],
      "name": "allowance",
      "outputs": [
        {
          "internalType": "uint256",
          "name": "",
          "type": "uint256"
        }
      ],
      "stateMutability": "view",
      "type": "function"
    },
    {
      "inputs": [
        {
          "internalType": "address",
          "name": "spender",
          "type": "address"
        },
        {
          "internalType": "uint256",
          "name": "amount",
          "type": "uint256"
        }
      ],
      "name": "approve",
      "outputs": [
        {
          "internalType": "bool",
          "name": "",
          "type": "bool"
        }
      ],
      "stateMutability": "nonpayable",
      "type": "function"
    },
    {
      "inputs": [
        {
          "internalType": "address",
          "name": "account",
          "type": "address"
        }
      ],
      "name": "balanceOf",
      "outputs": [
        {
          "internalType": "uint256",
          "name": "",
          "type": "uint256"
        }
      ],
      "stateMutability": "view",
      "type": "function"
    },
    {
      "inputs": [],
      "name": "decimals",
      "outputs": [
        {
          "internalType": "uint8",
          "name": "",
          "type": "uint8"
        }
      ],
      "stateMutability": "view",
      "type": "function"
    },
    {
      "inputs": [
        {
          "internalType": "address",
          "name": "spender",
          "type": "address"
        },
        {
          "internalType": "uint256",
          "name": "subtractedValue",
          "type": "uint256"
        }
      ],
      "name": "decreaseAllowance",
      "outputs": [
        {
          "internalType": "bool",
          "name": "",
          "type": "bool"
        }
      ],
      "stateMutability": "nonpayable",
      "type": "function"
    },
    {
      "inputs": [
        {
          "internalType": "address",
          "name": "spender",
          "type": "address"
        },
        {
          "internalType": "uint256",
          "name": "addedValue",
          "type": "uint256"
        }
      ],
      "name": "increaseAllowance",
      "outputs": [
        {
          "internalType": "bool",
          "name": "",
          "type": "bool"
        }
      ],
      "stateMutability": "nonpayable",
      "type": "function"
    },
    {
      "inputs": [],
      "name": "name",
      "outputs": [
        {
          "internalType": "string",
          "name": "",
          "type": "string"
        }
      ],
      "stateMutability": "view",
      "type": "function"
    },
    {
      "inputs": [],
      "name": "owner",
      "outputs": [
        {
          "internalType": "address",
          "name": "",
          "type": "address"
        }
      ],
      "stateMutability": "view",
      "type": "function"
    },
    {
      "inputs": [],
      "name": "renounceOwnership",
      "outputs": [],
      "stateMutability": "nonpayable",
      "type": "function"
    },
    {
      "inputs": [],
      "name": "symbol",
      "outputs": [
        {
          "internalType": "string",
          "name": "",
          "type": "string"
        }
      ],
      "stateMutability": "view",
      "type": "function"
    },
    {
      "inputs": [],
      "name": "totalSupply",
      "outputs": [
        {
          "internalType": "uint256",
          "name": "",
          "type": "uint256"
        }
      ],
      "stateMutability": "view",
      "type": "function"
    },
    {
      "inputs": [
        {
          "internalType": "address",
          "name": "recipient",
          "type": "address"
        },
        {
          "internalType": "uint256",
          "name": "amount",
          "type": "uint256"
        }
      ],
      "name": "transfer",
      "outputs": [
        {
          "internalType": "bool",
          "name": "",
          "type": "bool"
        }
      ],
      "stateMutability": "nonpayable",
      "type": "function"
    },
    {
      "inputs": [
        {
          "internalType": "address",
          "name": "sender",
          "type": "address"
        },
        {
          "internalType": "address",
          "name": "recipient",
          "type": "address"
        },
        {
          "internalType": "uint256",
          "name": "amount",
          "type": "uint256"
        }
      ],
      "name": "transferFrom",
      "outputs": [
        {
          "internalType": "bool",
          "name": "",
          "type": "bool"
        }
      ],
      "stateMutability": "nonpayable",
      "type": "function"
    },
    {
      "inputs": [
        {
          "internalType": "address",
          "name": "newOwner",
          "type": "address"
        }
      ],
      "name": "transferOwnership",
      "outputs": [],
      "stateMutability": "nonpayable",
      "type": "function"
    },
    {
      "inputs": [],
      "name": "buy_acro",
      "outputs": [],
      "stateMutability": "payable",
      "type": "function"
    },
    {
      "inputs": [],
      "name": "get_ether_balance_of_this_contract",
      "outputs": [
        {
          "internalType": "uint256",
          "name": "",
          "type": "uint256"
        }
      ],
      "stateMutability": "view",
      "type": "function"
    },
    {
      "inputs": [],
      "name": "get_acro_balance_of_this_contract",
      "outputs": [
        {
          "internalType": "uint256",
          "name": "",
          "type": "uint256"
        }
      ],
      "stateMutability": "view",
      "type": "function"
    },
    {
      "inputs": [],
      "name": "get_ether_balance_of_sender",
      "outputs": [
        {
          "internalType": "uint256",
          "name": "",
          "type": "uint256"
        }
      ],
      "stateMutability": "view",
      "type": "function"
    },
    {
      "inputs": [],
      "name": "get_acro_balance_of_sender",
      "outputs": [
        {
          "internalType": "uint256",
          "name": "",
          "type": "uint256"
        }
      ],
      "stateMutability": "view",
      "type": "function"
    },
    {
      "inputs": [
        {
          "internalType": "uint256",
          "name": "amount",
          "type": "uint256"
        }
      ],
      "name": "acro_donation",
      "outputs": [],
      "stateMutability": "nonpayable",
      "type": "function"
    },
    {
      "inputs": [
        {
          "internalType": "uint256",
          "name": "amount",
          "type": "uint256"
        }
      ],
      "name": "withdraw_ether",
      "outputs": [],
      "stateMutability": "nonpayable",
      "type": "function"
    },
    {
      "inputs": [
        {
          "internalType": "address",
          "name": "addr",
          "type": "address"
        }
      ],
      "name": "is_staking_acro",
      "outputs": [
        {
          "internalType": "bool",
          "name": "",
          "type": "bool"
        }
      ],
      "stateMutability": "view",
      "type": "function"
    },
    {
      "inputs": [
        {
          "internalType": "address",
          "name": "addr",
          "type": "address"
        }
      ],
      "name": "staking_balance",
      "outputs": [
        {
          "internalType": "uint256",
          "name": "",
          "type": "uint256"
        }
      ],
      "stateMutability": "view",
      "type": "function"
    },
    {
      "inputs": [
        {
          "internalType": "uint256",
          "name": "_amount",
          "type": "uint256"
        }
      ],
      "name": "stakeAcroTokens",
      "outputs": [],
      "stateMutability": "nonpayable",
      "type": "function"
    },
    {
      "inputs": [],
      "name": "unstakeTokens",
      "outputs": [],
      "stateMutability": "nonpayable",
      "type": "function"
    }
  ],
  "bytecode": "0x60806040523480156200001157600080fd5b506040518060400160405280600e81526020017f4163726f706f726120546f6b656e0000000000000000000000000000000000008152506040518060400160405280600481526020017f4143524f00000000000000000000000000000000000000000000000000000000815250816003908051906020019062000096929190620002f7565b508060049080519060200190620000af929190620002f7565b5050506000620000c46200018560201b60201c565b905080600560006101000a81548173ffffffffffffffffffffffffffffffffffffffff021916908373ffffffffffffffffffffffffffffffffffffffff1602179055508073ffffffffffffffffffffffffffffffffffffffff16600073ffffffffffffffffffffffffffffffffffffffff167f8be0079c531659141344cd1fd0a4f28419497f9722a3daafe3b4186f6b6457e060405160405180910390a3506200017f3069021e19e0c9bab24000006200018d60201b60201c565b62000545565b600033905090565b600073ffffffffffffffffffffffffffffffffffffffff168273ffffffffffffffffffffffffffffffffffffffff16141562000200576040517f08c379a0000000000000000000000000000000000000000000000000000000008152600401620001f790620003fa565b60405180910390fd5b6200021460008383620002f260201b60201c565b80600260008282546200022891906200044a565b92505081905550806000808473ffffffffffffffffffffffffffffffffffffffff1673ffffffffffffffffffffffffffffffffffffffff16815260200190815260200160002060008282546200027f91906200044a565b925050819055508173ffffffffffffffffffffffffffffffffffffffff16600073ffffffffffffffffffffffffffffffffffffffff167fddf252ad1be2c89b69c2b068fc378daa952ba7f163c4a11628f55a4df523b3ef83604051620002e691906200041c565b60405180910390a35050565b505050565b8280546200030590620004b1565b90600052602060002090601f01602090048101928262000329576000855562000375565b82601f106200034457805160ff191683800117855562000375565b8280016001018555821562000375579182015b828111156200037457825182559160200191906001019062000357565b5b50905062000384919062000388565b5090565b5b80821115620003a357600081600090555060010162000389565b5090565b6000620003b6601f8362000439565b91507f45524332303a206d696e7420746f20746865207a65726f2061646472657373006000830152602082019050919050565b620003f481620004a7565b82525050565b600060208201905081810360008301526200041581620003a7565b9050919050565b6000602082019050620004336000830184620003e9565b92915050565b600082825260208201905092915050565b60006200045782620004a7565b91506200046483620004a7565b9250827fffffffffffffffffffffffffffffffffffffffffffffffffffffffffffffffff038211156200049c576200049b620004e7565b5b828201905092915050565b6000819050919050565b60006002820490506001821680620004ca57607f821691505b60208210811415620004e157620004e062000516565b5b50919050565b7f4e487b7100000000000000000000000000000000000000000000000000000000600052601160045260246000fd5b7f4e487b7100000000000000000000000000000000000000000000000000000000600052602260045260246000fd5b61239780620005556000396000f3fe6080604052600436106101665760003560e01c80638da5cb5b116100d1578063b82f07491161008a578063dd62ed3e11610064578063dd62ed3e14610537578063e18c056c14610574578063eaea70191461059d578063f2fde38b146105c657610166565b8063b82f0749146104b6578063c2319469146104e1578063c9d6a3261461050c57610166565b80638da5cb5b1461039257806395d89b41146103bd578063a3e64ffa146103e8578063a457c2d714610425578063a5ce413b14610462578063a9059cbb1461047957610166565b80633950935111610123578063395093511461028f57806357ce2caf146102cc57806370a0823114610309578063715018a6146103465780637a2af75a1461035d578063832cce641461038857610166565b806306fdde031461016b578063084c417414610196578063095ea7b3146101bf57806318160ddd146101fc57806323b872dd14610227578063313ce56714610264575b600080fd5b34801561017757600080fd5b506101806105ef565b60405161018d9190611ef2565b60405180910390f35b3480156101a257600080fd5b506101bd60048036038101906101b8919061191f565b610681565b005b3480156101cb57600080fd5b506101e660048036038101906101e191906118e3565b6107c3565b6040516101f39190611ed7565b60405180910390f35b34801561020857600080fd5b506102116107e1565b60405161021e91906120d4565b60405180910390f35b34801561023357600080fd5b5061024e60048036038101906102499190611894565b6107eb565b60405161025b9190611ed7565b60405180910390f35b34801561027057600080fd5b506102796108ec565b60405161028691906120ef565b60405180910390f35b34801561029b57600080fd5b506102b660048036038101906102b191906118e3565b6108f5565b6040516102c39190611ed7565b60405180910390f35b3480156102d857600080fd5b506102f360048036038101906102ee919061182f565b6109a1565b60405161030091906120d4565b60405180910390f35b34801561031557600080fd5b50610330600480360381019061032b919061182f565b6109ea565b60405161033d91906120d4565b60405180910390f35b34801561035257600080fd5b5061035b610a32565b005b34801561036957600080fd5b50610372610b6f565b60405161037f91906120d4565b60405180910390f35b610390610b77565b005b34801561039e57600080fd5b506103a7610c0c565b6040516103b49190611e93565b60405180910390f35b3480156103c957600080fd5b506103d2610c36565b6040516103df9190611ef2565b60405180910390f35b3480156103f457600080fd5b5061040f600480360381019061040a919061182f565b610cc8565b60405161041c9190611ed7565b60405180910390f35b34801561043157600080fd5b5061044c600480360381019061044791906118e3565b610d13565b6040516104599190611ed7565b60405180910390f35b34801561046e57600080fd5b50610477610e07565b005b34801561048557600080fd5b506104a0600480360381019061049b91906118e3565b610f63565b6040516104ad9190611ed7565b60405180910390f35b3480156104c257600080fd5b506104cb610f81565b6040516104d891906120d4565b60405180910390f35b3480156104ed57600080fd5b506104f6610fa0565b60405161050391906120d4565b60405180910390f35b34801561051857600080fd5b50610521610fb0565b60405161052e91906120d4565b60405180910390f35b34801561054357600080fd5b5061055e60048036038101906105599190611858565b610fc0565b60405161056b91906120d4565b60405180910390f35b34801561058057600080fd5b5061059b6004803603810190610596919061191f565b611047565b005b3480156105a957600080fd5b506105c460048036038101906105bf919061191f565b611178565b005b3480156105d257600080fd5b506105ed60048036038101906105e8919061182f565b611202565b005b6060600380546105fe90612292565b80601f016020809104026020016040519081016040528092919081815260200182805461062a90612292565b80156106775780601f1061064c57610100808354040283529160200191610677565b820191906000526020600020905b81548152906001019060200180831161065a57829003601f168201915b5050505050905090565b6106896113ae565b73ffffffffffffffffffffffffffffffffffffffff166106a7610c0c565b73ffffffffffffffffffffffffffffffffffffffff16146106fd576040517f08c379a00000000000000000000000000000000000000000000000000000000081526004016106f490612014565b60405180910390fd5b80471015610740576040517f08c379a000000000000000000000000000000000000000000000000000000000815260040161073790611fd4565b60405180910390fd5b3373ffffffffffffffffffffffffffffffffffffffff166108fc829081150290604051600060405180830381858888f19350505050158015610786573d6000803e3d6000fd5b507f5a6b26bafd3957bf06ea3b4915f51221953ed272573c779820e6e39df3e646cf33826040516107b8929190611eae565b60405180910390a150565b60006107d76107d06113ae565b84846113b6565b6001905092915050565b6000600254905090565b60006107f8848484611581565b6000600160008673ffffffffffffffffffffffffffffffffffffffff1673ffffffffffffffffffffffffffffffffffffffff16815260200190815260200160002060006108436113ae565b73ffffffffffffffffffffffffffffffffffffffff1673ffffffffffffffffffffffffffffffffffffffff168152602001908152602001600020549050828110156108c3576040517f08c379a00000000000000000000000000000000000000000000000000000000081526004016108ba90611ff4565b60405180910390fd5b6108e0856108cf6113ae565b85846108db91906121d6565b6113b6565b60019150509392505050565b60006012905090565b60006109976109026113ae565b8484600160006109106113ae565b73ffffffffffffffffffffffffffffffffffffffff1673ffffffffffffffffffffffffffffffffffffffff16815260200190815260200160002060008873ffffffffffffffffffffffffffffffffffffffff1673ffffffffffffffffffffffffffffffffffffffff168152602001908152602001600020546109929190612126565b6113b6565b6001905092915050565b6000600660008373ffffffffffffffffffffffffffffffffffffffff1673ffffffffffffffffffffffffffffffffffffffff168152602001908152602001600020549050919050565b60008060008373ffffffffffffffffffffffffffffffffffffffff1673ffffffffffffffffffffffffffffffffffffffff168152602001908152602001600020549050919050565b610a3a6113ae565b73ffffffffffffffffffffffffffffffffffffffff16610a58610c0c565b73ffffffffffffffffffffffffffffffffffffffff1614610aae576040517f08c379a0000000000000000000000000000000000000000000000000000000008152600401610aa590612014565b60405180910390fd5b600073ffffffffffffffffffffffffffffffffffffffff16600560009054906101000a900473ffffffffffffffffffffffffffffffffffffffff1673ffffffffffffffffffffffffffffffffffffffff167f8be0079c531659141344cd1fd0a4f28419497f9722a3daafe3b4186f6b6457e060405160405180910390a36000600560006101000a81548173ffffffffffffffffffffffffffffffffffffffff021916908373ffffffffffffffffffffffffffffffffffffffff160217905550565b600047905090565b60003411610bba576040517f08c379a0000000000000000000000000000000000000000000000000000000008152600401610bb190612094565b60405180910390fd5b610bd13033601434610bcc919061217c565b611581565b7fe61a42443616fd63033ac05b7aaf024ec585198be2c5c1fba141538c86845f223334604051610c02929190611eae565b60405180910390a1565b6000600560009054906101000a900473ffffffffffffffffffffffffffffffffffffffff16905090565b606060048054610c4590612292565b80601f0160208091040260200160405190810160405280929190818152602001828054610c7190612292565b8015610cbe5780601f10610c9357610100808354040283529160200191610cbe565b820191906000526020600020905b815481529060010190602001808311610ca157829003601f168201915b5050505050905090565b600080600660008473ffffffffffffffffffffffffffffffffffffffff1673ffffffffffffffffffffffffffffffffffffffff16815260200190815260200160002054119050919050565b60008060016000610d226113ae565b73ffffffffffffffffffffffffffffffffffffffff1673ffffffffffffffffffffffffffffffffffffffff16815260200190815260200160002060008573ffffffffffffffffffffffffffffffffffffffff1673ffffffffffffffffffffffffffffffffffffffff16815260200190815260200160002054905082811015610ddf576040517f08c379a0000000000000000000000000000000000000000000000000000000008152600401610dd6906120b4565b60405180910390fd5b610dfc610dea6113ae565b858584610df791906121d6565b6113b6565b600191505092915050565b6000600660003373ffffffffffffffffffffffffffffffffffffffff1673ffffffffffffffffffffffffffffffffffffffff16815260200190815260200160002054905060008111610e8e576040517f08c379a0000000000000000000000000000000000000000000000000000000008152600401610e8590611fb4565b60405180910390fd5b600760003373ffffffffffffffffffffffffffffffffffffffff1673ffffffffffffffffffffffffffffffffffffffff16815260200190815260200160002054421015610f10576040517f08c379a0000000000000000000000000000000000000000000000000000000008152600401610f0790611f74565b60405180910390fd5b610f1b303383611581565b6000600660003373ffffffffffffffffffffffffffffffffffffffff1673ffffffffffffffffffffffffffffffffffffffff1681526020019081526020016000208190555050565b6000610f77610f706113ae565b8484611581565b6001905092915050565b60003373ffffffffffffffffffffffffffffffffffffffff1631905090565b6000610fab336109ea565b905090565b6000610fbb306109ea565b905090565b6000600160008473ffffffffffffffffffffffffffffffffffffffff1673ffffffffffffffffffffffffffffffffffffffff16815260200190815260200160002060008373ffffffffffffffffffffffffffffffffffffffff1673ffffffffffffffffffffffffffffffffffffffff16815260200190815260200160002054905092915050565b6000811161108a576040517f08c379a000000000000000000000000000000000000000000000000000000000815260040161108190612074565b60405180910390fd5b6110943082610f63565b5080600660003373ffffffffffffffffffffffffffffffffffffffff1673ffffffffffffffffffffffffffffffffffffffff168152602001908152602001600020546110e09190612126565b600660003373ffffffffffffffffffffffffffffffffffffffff1673ffffffffffffffffffffffffffffffffffffffff168152602001908152602001600020819055506213c680426111329190612126565b600760003373ffffffffffffffffffffffffffffffffffffffff1673ffffffffffffffffffffffffffffffffffffffff1681526020019081526020016000208190555050565b600081116111bb576040517f08c379a00000000000000000000000000000000000000000000000000000000081526004016111b290612074565b60405180910390fd5b6111c53082610f63565b507f51c89abb112c19eb904790566d8caac17803d38178ce48d49eb2a80661409ba133826040516111f7929190611eae565b60405180910390a150565b61120a6113ae565b73ffffffffffffffffffffffffffffffffffffffff16611228610c0c565b73ffffffffffffffffffffffffffffffffffffffff161461127e576040517f08c379a000000000000000000000000000000000000000000000000000000000815260040161127590612014565b60405180910390fd5b600073ffffffffffffffffffffffffffffffffffffffff168173ffffffffffffffffffffffffffffffffffffffff1614156112ee576040517f08c379a00000000000000000000000000000000000000000000000000000000081526004016112e590611f34565b60405180910390fd5b8073ffffffffffffffffffffffffffffffffffffffff16600560009054906101000a900473ffffffffffffffffffffffffffffffffffffffff1673ffffffffffffffffffffffffffffffffffffffff167f8be0079c531659141344cd1fd0a4f28419497f9722a3daafe3b4186f6b6457e060405160405180910390a380600560006101000a81548173ffffffffffffffffffffffffffffffffffffffff021916908373ffffffffffffffffffffffffffffffffffffffff16021790555050565b600033905090565b600073ffffffffffffffffffffffffffffffffffffffff168373ffffffffffffffffffffffffffffffffffffffff161415611426576040517f08c379a000000000000000000000000000000000000000000000000000000000815260040161141d90612054565b60405180910390fd5b600073ffffffffffffffffffffffffffffffffffffffff168273ffffffffffffffffffffffffffffffffffffffff161415611496576040517f08c379a000000000000000000000000000000000000000000000000000000000815260040161148d90611f54565b60405180910390fd5b80600160008573ffffffffffffffffffffffffffffffffffffffff1673ffffffffffffffffffffffffffffffffffffffff16815260200190815260200160002060008473ffffffffffffffffffffffffffffffffffffffff1673ffffffffffffffffffffffffffffffffffffffff168152602001908152602001600020819055508173ffffffffffffffffffffffffffffffffffffffff168373ffffffffffffffffffffffffffffffffffffffff167f8c5be1e5ebec7d5bd14f71427d1e84f3dd0314c0f7b2291e5b200ac8c7c3b9258360405161157491906120d4565b60405180910390a3505050565b600073ffffffffffffffffffffffffffffffffffffffff168373ffffffffffffffffffffffffffffffffffffffff1614156115f1576040517f08c379a00000000000000000000000000000000000000000000000000000000081526004016115e890612034565b60405180910390fd5b600073ffffffffffffffffffffffffffffffffffffffff168273ffffffffffffffffffffffffffffffffffffffff161415611661576040517f08c379a000000000000000000000000000000000000000000000000000000000815260040161165890611f14565b60405180910390fd5b61166c838383611800565b60008060008573ffffffffffffffffffffffffffffffffffffffff1673ffffffffffffffffffffffffffffffffffffffff168152602001908152602001600020549050818110156116f2576040517f08c379a00000000000000000000000000000000000000000000000000000000081526004016116e990611f94565b60405180910390fd5b81816116fe91906121d6565b6000808673ffffffffffffffffffffffffffffffffffffffff1673ffffffffffffffffffffffffffffffffffffffff16815260200190815260200160002081905550816000808573ffffffffffffffffffffffffffffffffffffffff1673ffffffffffffffffffffffffffffffffffffffff168152602001908152602001600020600082825461178e9190612126565b925050819055508273ffffffffffffffffffffffffffffffffffffffff168473ffffffffffffffffffffffffffffffffffffffff167fddf252ad1be2c89b69c2b068fc378daa952ba7f163c4a11628f55a4df523b3ef846040516117f291906120d4565b60405180910390a350505050565b505050565b60008135905061181481612333565b92915050565b6000813590506118298161234a565b92915050565b60006020828403121561184157600080fd5b600061184f84828501611805565b91505092915050565b6000806040838503121561186b57600080fd5b600061187985828601611805565b925050602061188a85828601611805565b9150509250929050565b6000806000606084860312156118a957600080fd5b60006118b786828701611805565b93505060206118c886828701611805565b92505060406118d98682870161181a565b9150509250925092565b600080604083850312156118f657600080fd5b600061190485828601611805565b92505060206119158582860161181a565b9150509250929050565b60006020828403121561193157600080fd5b600061193f8482850161181a565b91505092915050565b6119518161220a565b82525050565b6119608161221c565b82525050565b60006119718261210a565b61197b8185612115565b935061198b81856020860161225f565b61199481612322565b840191505092915050565b60006119ac602383612115565b91507f45524332303a207472616e7366657220746f20746865207a65726f206164647260008301527f65737300000000000000000000000000000000000000000000000000000000006020830152604082019050919050565b6000611a12602683612115565b91507f4f776e61626c653a206e6577206f776e657220697320746865207a65726f206160008301527f64647265737300000000000000000000000000000000000000000000000000006020830152604082019050919050565b6000611a78602283612115565b91507f45524332303a20617070726f766520746f20746865207a65726f20616464726560008301527f73730000000000000000000000000000000000000000000000000000000000006020830152604082019050919050565b6000611ade602883612115565b91507f796f75206d757374206265207374616b696e6720666f72206174206c6561737460008301527f20313520646179730000000000000000000000000000000000000000000000006020830152604082019050919050565b6000611b44602683612115565b91507f45524332303a207472616e7366657220616d6f756e742065786365656473206260008301527f616c616e636500000000000000000000000000000000000000000000000000006020830152604082019050919050565b6000611baa601b83612115565b91507f7374616b696e672062616c616e63652063616e6e6f74206265203000000000006000830152602082019050919050565b6000611bea601a83612115565b91507f6163636f756e742062616c616e636520697320746f6f206c6f770000000000006000830152602082019050919050565b6000611c2a602883612115565b91507f45524332303a207472616e7366657220616d6f756e742065786365656473206160008301527f6c6c6f77616e63650000000000000000000000000000000000000000000000006020830152604082019050919050565b6000611c90602083612115565b91507f4f776e61626c653a2063616c6c6572206973206e6f7420746865206f776e65726000830152602082019050919050565b6000611cd0602583612115565b91507f45524332303a207472616e736665722066726f6d20746865207a65726f20616460008301527f64726573730000000000000000000000000000000000000000000000000000006020830152604082019050919050565b6000611d36602483612115565b91507f45524332303a20617070726f76652066726f6d20746865207a65726f2061646460008301527f72657373000000000000000000000000000000000000000000000000000000006020830152604082019050919050565b6000611d9c601283612115565b91507f616d6f756e742063616e6e6f74206265203000000000000000000000000000006000830152602082019050919050565b6000611ddc601b83612115565b91507f596f75206d75737420656e74657220616e20616d6f756e74203e3000000000006000830152602082019050919050565b6000611e1c602583612115565b91507f45524332303a2064656372656173656420616c6c6f77616e63652062656c6f7760008301527f207a65726f0000000000000000000000000000000000000000000000000000006020830152604082019050919050565b611e7e81612248565b82525050565b611e8d81612252565b82525050565b6000602082019050611ea86000830184611948565b92915050565b6000604082019050611ec36000830185611948565b611ed06020830184611e75565b9392505050565b6000602082019050611eec6000830184611957565b92915050565b60006020820190508181036000830152611f0c8184611966565b905092915050565b60006020820190508181036000830152611f2d8161199f565b9050919050565b60006020820190508181036000830152611f4d81611a05565b9050919050565b60006020820190508181036000830152611f6d81611a6b565b9050919050565b60006020820190508181036000830152611f8d81611ad1565b9050919050565b60006020820190508181036000830152611fad81611b37565b9050919050565b60006020820190508181036000830152611fcd81611b9d565b9050919050565b60006020820190508181036000830152611fed81611bdd565b9050919050565b6000602082019050818103600083015261200d81611c1d565b9050919050565b6000602082019050818103600083015261202d81611c83565b9050919050565b6000602082019050818103600083015261204d81611cc3565b9050919050565b6000602082019050818103600083015261206d81611d29565b9050919050565b6000602082019050818103600083015261208d81611d8f565b9050919050565b600060208201905081810360008301526120ad81611dcf565b9050919050565b600060208201905081810360008301526120cd81611e0f565b9050919050565b60006020820190506120e96000830184611e75565b92915050565b60006020820190506121046000830184611e84565b92915050565b600081519050919050565b600082825260208201905092915050565b600061213182612248565b915061213c83612248565b9250827fffffffffffffffffffffffffffffffffffffffffffffffffffffffffffffffff03821115612171576121706122c4565b5b828201905092915050565b600061218782612248565b915061219283612248565b9250817fffffffffffffffffffffffffffffffffffffffffffffffffffffffffffffffff04831182151516156121cb576121ca6122c4565b5b828202905092915050565b60006121e182612248565b91506121ec83612248565b9250828210156121ff576121fe6122c4565b5b828203905092915050565b600061221582612228565b9050919050565b60008115159050919050565b600073ffffffffffffffffffffffffffffffffffffffff82169050919050565b6000819050919050565b600060ff82169050919050565b60005b8381101561227d578082015181840152602081019050612262565b8381111561228c576000848401525b50505050565b600060028204905060018216806122aa57607f821691505b602082108114156122be576122bd6122f3565b5b50919050565b7f4e487b7100000000000000000000000000000000000000000000000000000000600052601160045260246000fd5b7f4e487b7100000000000000000000000000000000000000000000000000000000600052602260045260246000fd5b6000601f19601f8301169050919050565b61233c8161220a565b811461234757600080fd5b50565b61235381612248565b811461235e57600080fd5b5056fea2646970667358221220fc25ab2ca4e8103a14b4e4f9bf2914781e256fe3bd901e22cd68eab14257ef6664736f6c63430008000033",
  "immutableReferences": {},
  "source": "//Acro.sol token Acropora\n// SPDX-License-Identifier: MIT\npragma solidity 0.8.0;\n\nimport \"@openzeppelin/contracts/token/ERC20/ERC20.sol\";\nimport \"@openzeppelin/contracts/access/Ownable.sol\";\n\n/** @title Token acro - production and storage */\ncontract Acro is ERC20, Ownable {\n\n   /// @dev Initial supply is produced at deployment\n   /// ERC20 Standard, token is named Acro\n    constructor() ERC20(\"Acropora Token\", \"ACRO\") {\n      _mint(address(this), 10000000000000000000000);\n    }\n    \n   //List of events\n   event buyingAcro(address msgsender, uint256 amount);\n   event donatingAcro(address msgsender, uint256 amout);\n   event withdrawal(address otheradress, uint256 amount);\n\n   // TO DO - modify fonction, to be discussed\n   /// @dev to buy acro\n    function buy_acro() external payable {\n       require(msg.value>0, \"You must enter an amount >0\");\n       _transfer(address(this), msg.sender, msg.value*20);\n       emit buyingAcro(msg.sender, msg.value);\n    }\n\n   /// @dev to get the balance in ether of this contract\n   /// @return uint balance in ether\n    function get_ether_balance_of_this_contract() external view returns (uint) {\n       return address(this).balance;\n    }\n\n   /// @dev to get the balance in acro of this contract\n   /// @return uint balance in acro\n    function get_acro_balance_of_this_contract() external view returns (uint) {\n       return balanceOf(address(this));\n    }\n\n   // Does not work on Ganache: wrong user eth balance value. seems to be a Ganache bug!\n   /// @dev to get the balance in ether of the message sender\n   /// @return uint balance in ether\n    function get_ether_balance_of_sender() external view returns (uint) {\n       return msg.sender.balance;\n    }\n   /// @dev to get the balance in acro of the message sender\n   /// @return uint balance in acro\n    function get_acro_balance_of_sender() external view returns (uint) {\n       return balanceOf(msg.sender);\n    }\n\n   /// @dev to make a donation in acro to this contract\n   /// acro'balance must be greater than 0\n   /// @param amount amount in acro to be donated \n    function acro_donation(uint256 amount) external {\n       require(amount > 0, \"amount cannot be 0\");\n       transfer(address(this), amount);\n       emit donatingAcro(msg.sender, amount);\n    }\n\n   //// @dev to withdraw ether from this contract - so they are not stucked for ever!\n   /// ether'balance must be greater than the requested amount\n   \n    function withdraw_ether(uint256 amount) external onlyOwner {\n      require(address(this).balance >= amount, \"account balance is too low\");\n      payable(msg.sender).transfer(amount);\n      emit withdrawal(msg.sender, amount);\n    }\n\n   //---------------------------------------------------------------------------------------------\n   //Staking Acro: Actors must stake a certain amount of Acro to be able to vote for other actors\n   //--------------------------------------------------------------------------------------------\n\n    mapping(address => uint) private stakingBalance;\n    mapping(address => uint) private stakingUnlockDate;\n   \n   /// @dev get if an actor is staking acro or not (for IU)\n   /// @param addr actor'address\n   /// @return true or false\n    function is_staking_acro(address addr) external view returns (bool) {\n      return (stakingBalance[addr]>0);\n   }\n\n   /// @dev get the staking balance of an actor (for IU)\n   /// @param addr actor'address\n   /// @return uint amount in acro\n   function staking_balance(address addr) external view returns (uint) {\n      return stakingBalance[addr];\n   }\n\n   /// @dev to stake acro in the contract in order to vote (used in AcroActors.sol)\n   /// staked amount must be greater than zero\n   /// staking balance is updated\n   /// sdd user to stakers array *only* if they haven't staked already\n   /// staking staking status are updated\n   /// @param _amount nb of acros to be staked\n   function stakeAcroTokens(uint _amount) public {\n     require(_amount > 0, \"amount cannot be 0\");\n     transfer(address(this), _amount);\n     stakingBalance[msg.sender] = stakingBalance[msg.sender] + _amount;\n     stakingUnlockDate[msg.sender] = block.timestamp + 15 days;\n   }\n\n   /// @dev to unstake all the user'acro from the contract\n   /// staking balance of user must be greater than zero\n   /// staking balance is updated\n   /// staking staking status are updated\n    function unstakeTokens() public {\n        uint256 balance = stakingBalance[msg.sender];\n        require(balance > 0, \"staking balance cannot be 0\");\n        require(block.timestamp >= stakingUnlockDate[msg.sender], \"you must be staking for at least 15 days\");\n        _transfer( address(this), msg.sender, balance);\n        stakingBalance[msg.sender] = 0;\n    }\n\n}\n\n",
  "sourcePath": "/home/deva/decri/contracts/Acro.sol",
  "compiler": {
    "name": "solc",
    "version": "0.8.0+commit.c7dfd78e.Emscripten.clang"
  },
  "schemaVersion": "3.3.4",
  "updatedAt": "2021-04-22T05:37:17.460Z",
  "devdoc": {
    "kind": "dev",
    "methods": {
      "acro_donation(uint256)": {
        "details": "to make a donation in acro to this contract acro'balance must be greater than 0",
        "params": {
          "amount": "amount in acro to be donated "
        }
      },
      "allowance(address,address)": {
        "details": "See {IERC20-allowance}."
      },
      "approve(address,uint256)": {
        "details": "See {IERC20-approve}. Requirements: - `spender` cannot be the zero address."
      },
      "balanceOf(address)": {
        "details": "See {IERC20-balanceOf}."
      },
      "buy_acro()": {
        "details": "to buy acro"
      },
      "constructor": {
        "details": "Initial supply is produced at deployment ERC20 Standard, token is named Acro"
      },
      "decimals()": {
        "details": "Returns the number of decimals used to get its user representation. For example, if `decimals` equals `2`, a balance of `505` tokens should be displayed to a user as `5,05` (`505 / 10 ** 2`). Tokens usually opt for a value of 18, imitating the relationship between Ether and Wei. This is the value {ERC20} uses, unless this function is overloaded; NOTE: This information is only used for _display_ purposes: it in no way affects any of the arithmetic of the contract, including {IERC20-balanceOf} and {IERC20-transfer}."
      },
      "decreaseAllowance(address,uint256)": {
        "details": "Atomically decreases the allowance granted to `spender` by the caller. This is an alternative to {approve} that can be used as a mitigation for problems described in {IERC20-approve}. Emits an {Approval} event indicating the updated allowance. Requirements: - `spender` cannot be the zero address. - `spender` must have allowance for the caller of at least `subtractedValue`."
      },
      "get_acro_balance_of_sender()": {
        "details": "to get the balance in acro of the message sender",
        "returns": {
          "_0": "uint balance in acro"
        }
      },
      "get_acro_balance_of_this_contract()": {
        "details": "to get the balance in acro of this contract",
        "returns": {
          "_0": "uint balance in acro"
        }
      },
      "get_ether_balance_of_sender()": {
        "details": "to get the balance in ether of the message sender",
        "returns": {
          "_0": "uint balance in ether"
        }
      },
      "get_ether_balance_of_this_contract()": {
        "details": "to get the balance in ether of this contract",
        "returns": {
          "_0": "uint balance in ether"
        }
      },
      "increaseAllowance(address,uint256)": {
        "details": "Atomically increases the allowance granted to `spender` by the caller. This is an alternative to {approve} that can be used as a mitigation for problems described in {IERC20-approve}. Emits an {Approval} event indicating the updated allowance. Requirements: - `spender` cannot be the zero address."
      },
      "is_staking_acro(address)": {
        "details": "get if an actor is staking acro or not (for IU)",
        "params": {
          "addr": "actor'address"
        },
        "returns": {
          "_0": "true or false"
        }
      },
      "name()": {
        "details": "Returns the name of the token."
      },
      "owner()": {
        "details": "Returns the address of the current owner."
      },
      "renounceOwnership()": {
        "details": "Leaves the contract without owner. It will not be possible to call `onlyOwner` functions anymore. Can only be called by the current owner. NOTE: Renouncing ownership will leave the contract without an owner, thereby removing any functionality that is only available to the owner."
      },
      "stakeAcroTokens(uint256)": {
        "details": "to stake acro in the contract in order to vote (used in AcroActors.sol) staked amount must be greater than zero staking balance is updated sdd user to stakers array *only* if they haven't staked already staking staking status are updated",
        "params": {
          "_amount": "nb of acros to be staked"
        }
      },
      "staking_balance(address)": {
        "details": "get the staking balance of an actor (for IU)",
        "params": {
          "addr": "actor'address"
        },
        "returns": {
          "_0": "uint amount in acro"
        }
      },
      "symbol()": {
        "details": "Returns the symbol of the token, usually a shorter version of the name."
      },
      "totalSupply()": {
        "details": "See {IERC20-totalSupply}."
      },
      "transfer(address,uint256)": {
        "details": "See {IERC20-transfer}. Requirements: - `recipient` cannot be the zero address. - the caller must have a balance of at least `amount`."
      },
      "transferFrom(address,address,uint256)": {
        "details": "See {IERC20-transferFrom}. Emits an {Approval} event indicating the updated allowance. This is not required by the EIP. See the note at the beginning of {ERC20}. Requirements: - `sender` and `recipient` cannot be the zero address. - `sender` must have a balance of at least `amount`. - the caller must have allowance for ``sender``'s tokens of at least `amount`."
      },
      "transferOwnership(address)": {
        "details": "Transfers ownership of the contract to a new account (`newOwner`). Can only be called by the current owner."
      },
      "unstakeTokens()": {
        "details": "to unstake all the user'acro from the contract staking balance of user must be greater than zero staking balance is updated staking staking status are updated"
      }
    },
    "title": "Token acro - production and storage ",
    "version": 1
  },
  "userdoc": {
    "kind": "user",
    "methods": {
      "withdraw_ether(uint256)": {
        "notice": "ether'balance must be greater than the requested amount"
      }
    },
    "version": 1
  }
}