{
  "contractName": "AcroActors",
  "abi": [
    {
      "inputs": [
        {
          "internalType": "contract Acro",
          "name": "_acro_contract",
          "type": "address"
        }
      ],
      "stateMutability": "nonpayable",
      "type": "constructor"
    },
    {
      "anonymous": false,
      "inputs": [
        {
          "indexed": false,
          "internalType": "address",
          "name": "actorAddress",
          "type": "address"
        }
      ],
      "name": "ActorIsValided",
      "type": "event"
    },
    {
      "anonymous": false,
      "inputs": [
        {
          "indexed": false,
          "internalType": "address",
          "name": "actorAddress",
          "type": "address"
        }
      ],
      "name": "ActorRegistered",
      "type": "event"
    },
    {
      "anonymous": false,
      "inputs": [
        {
          "indexed": false,
          "internalType": "address",
          "name": "actorAddress",
          "type": "address"
        }
      ],
      "name": "votedEvent",
      "type": "event"
    },
    {
      "inputs": [
        {
          "internalType": "address",
          "name": "",
          "type": "address"
        }
      ],
      "name": "RegisteredActors",
      "outputs": [
        {
          "internalType": "bool",
          "name": "isRegistered",
          "type": "bool"
        },
        {
          "internalType": "bool",
          "name": "isValidated",
          "type": "bool"
        },
        {
          "internalType": "string",
          "name": "actorName",
          "type": "string"
        },
        {
          "internalType": "string",
          "name": "country",
          "type": "string"
        },
        {
          "internalType": "int256",
          "name": "latCenter",
          "type": "int256"
        },
        {
          "internalType": "int256",
          "name": "longCenter",
          "type": "int256"
        },
        {
          "internalType": "uint256",
          "name": "yearOfCreation",
          "type": "uint256"
        },
        {
          "internalType": "string",
          "name": "email",
          "type": "string"
        },
        {
          "internalType": "enum AcroActors.ActorTypes",
          "name": "actorType",
          "type": "uint8"
        },
        {
          "internalType": "string",
          "name": "dateOfRegistration",
          "type": "string"
        },
        {
          "internalType": "uint256",
          "name": "vote_score",
          "type": "uint256"
        }
      ],
      "stateMutability": "view",
      "type": "function",
      "constant": true
    },
    {
      "inputs": [
        {
          "internalType": "uint256",
          "name": "",
          "type": "uint256"
        }
      ],
      "name": "actors",
      "outputs": [
        {
          "internalType": "address",
          "name": "",
          "type": "address"
        }
      ],
      "stateMutability": "view",
      "type": "function",
      "constant": true
    },
    {
      "inputs": [
        {
          "internalType": "address",
          "name": "addr",
          "type": "address"
        },
        {
          "components": [
            {
              "internalType": "bool",
              "name": "isRegistered",
              "type": "bool"
            },
            {
              "internalType": "bool",
              "name": "isValidated",
              "type": "bool"
            },
            {
              "internalType": "string",
              "name": "actorName",
              "type": "string"
            },
            {
              "internalType": "string",
              "name": "country",
              "type": "string"
            },
            {
              "internalType": "int256",
              "name": "latCenter",
              "type": "int256"
            },
            {
              "internalType": "int256",
              "name": "longCenter",
              "type": "int256"
            },
            {
              "internalType": "uint256",
              "name": "yearOfCreation",
              "type": "uint256"
            },
            {
              "internalType": "string",
              "name": "email",
              "type": "string"
            },
            {
              "internalType": "enum AcroActors.ActorTypes",
              "name": "actorType",
              "type": "uint8"
            },
            {
              "internalType": "string",
              "name": "dateOfRegistration",
              "type": "string"
            },
            {
              "internalType": "uint256",
              "name": "vote_score",
              "type": "uint256"
            }
          ],
          "internalType": "struct AcroActors.Actor",
          "name": "actor",
          "type": "tuple"
        }
      ],
      "name": "add_new_actor",
      "outputs": [],
      "stateMutability": "nonpayable",
      "type": "function"
    },
    {
      "inputs": [
        {
          "internalType": "address",
          "name": "addr",
          "type": "address"
        }
      ],
      "name": "is_validated_actor",
      "outputs": [
        {
          "internalType": "bool",
          "name": "",
          "type": "bool"
        }
      ],
      "stateMutability": "view",
      "type": "function",
      "constant": true
    },
    {
      "inputs": [],
      "name": "get_actors_count",
      "outputs": [
        {
          "internalType": "uint256",
          "name": "",
          "type": "uint256"
        }
      ],
      "stateMutability": "view",
      "type": "function",
      "constant": true
    },
    {
      "inputs": [
        {
          "internalType": "address",
          "name": "actor_address",
          "type": "address"
        }
      ],
      "name": "votingForActor",
      "outputs": [],
      "stateMutability": "nonpayable",
      "type": "function"
    }
  ],
  "bytecode": "0x60806040523480156200001157600080fd5b5060405162001fd238038062001fd28339818101604052810190620000379190620005d6565b80600360006101000a81548173ffffffffffffffffffffffffffffffffffffffff021916908373ffffffffffffffffffffffffffffffffffffffff160217905550620001c8336040518061016001604052806001151581526020016001151581526020016040518060400160405280600a81526020017f4465637269205465616d0000000000000000000000000000000000000000000081525081526020016040518060400160405280600681526020017f4672616e63650000000000000000000000000000000000000000000000000000815250815260200160008152602001600081526020016107e581526020016040518060400160405280601681526020017f6a756c69656e2e637279707440676d61696c2e636f6d000000000000000000008152508152602001600060028111156200019d577f4e487b7100000000000000000000000000000000000000000000000000000000600052602160045260246000fd5b815260200160405180602001604052806000815250815260200160008152506200022960201b60201c565b60016000803373ffffffffffffffffffffffffffffffffffffffff1673ffffffffffffffffffffffffffffffffffffffff16815260200190815260200160002060000160016101000a81548160ff021916908315150217905550506200076c565b600015156000808473ffffffffffffffffffffffffffffffffffffffff1673ffffffffffffffffffffffffffffffffffffffff16815260200190815260200160002060000160009054906101000a900460ff16151514620002c1576040517f08c379a0000000000000000000000000000000000000000000000000000000008152600401620002b89062000672565b60405180910390fd5b60018160000190151590811515815250506000816020019015159081151581525050600081610140018181525050806000808473ffffffffffffffffffffffffffffffffffffffff1673ffffffffffffffffffffffffffffffffffffffff16815260200190815260200160002060008201518160000160006101000a81548160ff02191690831515021790555060208201518160000160016101000a81548160ff02191690831515021790555060408201518160010190805190602001906200038c9291906200050f565b506060820151816002019080519060200190620003ab9291906200050f565b506080820151816003015560a0820151816004015560c0820151816005015560e0820151816006019080519060200190620003e89291906200050f565b506101008201518160070160006101000a81548160ff021916908360028111156200043c577f4e487b7100000000000000000000000000000000000000000000000000000000600052602160045260246000fd5b0217905550610120820151816008019080519060200190620004609291906200050f565b5061014082015181600901559050506001829080600181540180825580915050600190039060005260206000200160009091909190916101000a81548173ffffffffffffffffffffffffffffffffffffffff021916908373ffffffffffffffffffffffffffffffffffffffff1602179055507f12efe77ebda8838bbe0dba7054e3659625da41a6d9281ff1c4b6e6b6f6db11c48260405162000503919062000655565b60405180910390a15050565b8280546200051d90620006ed565b90600052602060002090601f0160209004810192826200054157600085556200058d565b82601f106200055c57805160ff19168380011785556200058d565b828001600101855582156200058d579182015b828111156200058c5782518255916020019190600101906200056f565b5b5090506200059c9190620005a0565b5090565b5b80821115620005bb576000816000905550600101620005a1565b5090565b600081519050620005d08162000752565b92915050565b600060208284031215620005e957600080fd5b6000620005f984828501620005bf565b91505092915050565b6200060d81620006a5565b82525050565b60006200062260188362000694565b91507f4163746f7220616c7265616479207265676973746572656400000000000000006000830152602082019050919050565b60006020820190506200066c600083018462000602565b92915050565b600060208201905081810360008301526200068d8162000613565b9050919050565b600082825260208201905092915050565b6000620006b282620006cd565b9050919050565b6000620006c682620006a5565b9050919050565b600073ffffffffffffffffffffffffffffffffffffffff82169050919050565b600060028204905060018216806200070657607f821691505b602082108114156200071d576200071c62000723565b5b50919050565b7f4e487b7100000000000000000000000000000000000000000000000000000000600052602260045260246000fd5b6200075d81620006b9565b81146200076957600080fd5b50565b611856806200077c6000396000f3fe608060405234801561001057600080fd5b50600436106100625760003560e01c80634581ec20146100675780634d571c0c146100835780638ba75da81461009f57806393c0e83a146100cf5780639770c9e7146100ff578063dddb25df14610139575b600080fd5b610081600480360381019061007c9190611070565b610157565b005b61009d60048036038101906100989190611099565b6105dd565b005b6100b960048036038101906100b49190611070565b6108b5565b6040516100c6919061131e565b60405180910390f35b6100e960048036038101906100e491906110ed565b61090d565b6040516100f69190611303565b60405180910390f35b61011960048036038101906101149190611070565b61094c565b6040516101309b9a99989796959493929190611339565b60405180910390f35b610141610bed565b60405161014e91906114a0565b60405180910390f35b600115156000803373ffffffffffffffffffffffffffffffffffffffff1673ffffffffffffffffffffffffffffffffffffffff16815260200190815260200160002060000160019054906101000a900460ff161515146101ec576040517f08c379a00000000000000000000000000000000000000000000000000000000081526004016101e390611440565b60405180910390fd5b600115156000808373ffffffffffffffffffffffffffffffffffffffff1673ffffffffffffffffffffffffffffffffffffffff16815260200190815260200160002060000160009054906101000a900460ff16151514610281576040517f08c379a000000000000000000000000000000000000000000000000000000000815260040161027890611400565b60405180910390fd5b8073ffffffffffffffffffffffffffffffffffffffff163373ffffffffffffffffffffffffffffffffffffffff1614156102f0576040517f08c379a00000000000000000000000000000000000000000000000000000000081526004016102e790611420565b60405180910390fd5b60001515600260003373ffffffffffffffffffffffffffffffffffffffff1673ffffffffffffffffffffffffffffffffffffffff16815260200190815260200160002060008373ffffffffffffffffffffffffffffffffffffffff1673ffffffffffffffffffffffffffffffffffffffff16815260200190815260200160002060009054906101000a900460ff161515146103c0576040517f08c379a00000000000000000000000000000000000000000000000000000000081526004016103b790611480565b60405180910390fd5b60006103cb33610bfa565b90508060016103da919061158e565b6000808473ffffffffffffffffffffffffffffffffffffffff1673ffffffffffffffffffffffffffffffffffffffff168152602001908152602001600020600901600082825461042a9190611538565b925050819055506001600260003373ffffffffffffffffffffffffffffffffffffffff1673ffffffffffffffffffffffffffffffffffffffff16815260200190815260200160002060008473ffffffffffffffffffffffffffffffffffffffff1673ffffffffffffffffffffffffffffffffffffffff16815260200190815260200160002060006101000a81548160ff0219169083151502179055507f06640b67015c37470a2bc2e00a76d594f6794fae0d12b9e206bc1bf369fe0676826040516104f59190611303565b60405180910390a160026000808473ffffffffffffffffffffffffffffffffffffffff1673ffffffffffffffffffffffffffffffffffffffff1681526020019081526020016000206009015411156105d95760016000808473ffffffffffffffffffffffffffffffffffffffff1673ffffffffffffffffffffffffffffffffffffffff16815260200190815260200160002060000160016101000a81548160ff0219169083151502179055507f88a4084bc23056c379de5cd2e44e47b519dae93a04ddc213b5547084ab2203e8826040516105d09190611303565b60405180910390a15b5050565b600015156000808473ffffffffffffffffffffffffffffffffffffffff1673ffffffffffffffffffffffffffffffffffffffff16815260200190815260200160002060000160009054906101000a900460ff16151514610672576040517f08c379a000000000000000000000000000000000000000000000000000000000815260040161066990611460565b60405180910390fd5b60018160000190151590811515815250506000816020019015159081151581525050600081610140018181525050806000808473ffffffffffffffffffffffffffffffffffffffff1673ffffffffffffffffffffffffffffffffffffffff16815260200190815260200160002060008201518160000160006101000a81548160ff02191690831515021790555060208201518160000160016101000a81548160ff021916908315150217905550604082015181600101908051906020019061073b929190610d7f565b506060820151816002019080519060200190610758929190610d7f565b506080820151816003015560a0820151816004015560c0820151816005015560e0820151816006019080519060200190610793929190610d7f565b506101008201518160070160006101000a81548160ff021916908360028111156107e6577f4e487b7100000000000000000000000000000000000000000000000000000000600052602160045260246000fd5b0217905550610120820151816008019080519060200190610808929190610d7f565b5061014082015181600901559050506001829080600181540180825580915050600190039060005260206000200160009091909190916101000a81548173ffffffffffffffffffffffffffffffffffffffff021916908373ffffffffffffffffffffffffffffffffffffffff1602179055507f12efe77ebda8838bbe0dba7054e3659625da41a6d9281ff1c4b6e6b6f6db11c4826040516108a99190611303565b60405180910390a15050565b60008060008373ffffffffffffffffffffffffffffffffffffffff1673ffffffffffffffffffffffffffffffffffffffff16815260200190815260200160002060000160019054906101000a900460ff169050919050565b6001818154811061091d57600080fd5b906000526020600020016000915054906101000a900473ffffffffffffffffffffffffffffffffffffffff1681565b60006020528060005260406000206000915090508060000160009054906101000a900460ff16908060000160019054906101000a900460ff1690806001018054610995906116a1565b80601f01602080910402602001604051908101604052809291908181526020018280546109c1906116a1565b8015610a0e5780601f106109e357610100808354040283529160200191610a0e565b820191906000526020600020905b8154815290600101906020018083116109f157829003601f168201915b505050505090806002018054610a23906116a1565b80601f0160208091040260200160405190810160405280929190818152602001828054610a4f906116a1565b8015610a9c5780601f10610a7157610100808354040283529160200191610a9c565b820191906000526020600020905b815481529060010190602001808311610a7f57829003601f168201915b505050505090806003015490806004015490806005015490806006018054610ac3906116a1565b80601f0160208091040260200160405190810160405280929190818152602001828054610aef906116a1565b8015610b3c5780601f10610b1157610100808354040283529160200191610b3c565b820191906000526020600020905b815481529060010190602001808311610b1f57829003601f168201915b5050505050908060070160009054906101000a900460ff1690806008018054610b64906116a1565b80601f0160208091040260200160405190810160405280929190818152602001828054610b90906116a1565b8015610bdd5780601f10610bb257610100808354040283529160200191610bdd565b820191906000526020600020905b815481529060010190602001808311610bc057829003601f168201915b505050505090806009015490508b565b6000600180549050905090565b600080600090506001600360009054906101000a900473ffffffffffffffffffffffffffffffffffffffff1673ffffffffffffffffffffffffffffffffffffffff166357ce2caf856040518263ffffffff1660e01b8152600401610c5e9190611303565b60206040518083038186803b158015610c7657600080fd5b505afa158015610c8a573d6000803e3d6000fd5b505050506040513d601f19601f82011682018060405250810190610cae9190611116565b1115610cbd5760019050610d76565b6032600360009054906101000a900473ffffffffffffffffffffffffffffffffffffffff1673ffffffffffffffffffffffffffffffffffffffff166357ce2caf856040518263ffffffff1660e01b8152600401610d1a9190611303565b60206040518083038186803b158015610d3257600080fd5b505afa158015610d46573d6000803e3d6000fd5b505050506040513d601f19601f82011682018060405250810190610d6a9190611116565b1115610d7557600290505b5b80915050919050565b828054610d8b906116a1565b90600052602060002090601f016020900481019282610dad5760008555610df4565b82601f10610dc657805160ff1916838001178555610df4565b82800160010185558215610df4579182015b82811115610df3578251825591602001919060010190610dd8565b5b509050610e019190610e05565b5090565b5b80821115610e1e576000816000905550600101610e06565b5090565b6000610e35610e30846114ec565b6114bb565b905082815260208101848484011115610e4d57600080fd5b610e5884828561165f565b509392505050565b600081359050610e6f816117b4565b92915050565b600081359050610e84816117cb565b92915050565b600081359050610e99816117e2565b92915050565b600081359050610eae816117f2565b92915050565b600082601f830112610ec557600080fd5b8135610ed5848260208601610e22565b91505092915050565b60006101608284031215610ef157600080fd5b610efc6101606114bb565b90506000610f0c84828501610e75565b6000830152506020610f2084828501610e75565b602083015250604082013567ffffffffffffffff811115610f4057600080fd5b610f4c84828501610eb4565b604083015250606082013567ffffffffffffffff811115610f6c57600080fd5b610f7884828501610eb4565b6060830152506080610f8c84828501610e9f565b60808301525060a0610fa084828501610e9f565b60a08301525060c0610fb484828501611046565b60c08301525060e082013567ffffffffffffffff811115610fd457600080fd5b610fe084828501610eb4565b60e083015250610100610ff584828501610e8a565b6101008301525061012082013567ffffffffffffffff81111561101757600080fd5b61102384828501610eb4565b6101208301525061014061103984828501611046565b6101408301525092915050565b60008135905061105581611809565b92915050565b60008151905061106a81611809565b92915050565b60006020828403121561108257600080fd5b600061109084828501610e60565b91505092915050565b600080604083850312156110ac57600080fd5b60006110ba85828601610e60565b925050602083013567ffffffffffffffff8111156110d757600080fd5b6110e385828601610ede565b9150509250929050565b6000602082840312156110ff57600080fd5b600061110d84828501611046565b91505092915050565b60006020828403121561112857600080fd5b60006111368482850161105b565b91505092915050565b611148816115e8565b82525050565b611157816115fa565b82525050565b6111668161164d565b82525050565b61117581611619565b82525050565b60006111868261151c565b6111908185611527565b93506111a081856020860161166e565b6111a98161178f565b840191505092915050565b60006111c1600d83611527565b91507f556e6b6e6f776e206163746f72000000000000000000000000000000000000006000830152602082019050919050565b6000611201601d83611527565b91507f4163746f722063616e6e6f7420766f746520666f722068696d73656c660000006000830152602082019050919050565b6000611241601783611527565b91507f566f746572206d7573742062652076616c6964617465640000000000000000006000830152602082019050919050565b6000611281601883611527565b91507f4163746f7220616c7265616479207265676973746572656400000000000000006000830152602082019050919050565b60006112c1601a83611527565b91507f416c7265616420766f746520666f722074686973206163746f720000000000006000830152602082019050919050565b6112fd81611643565b82525050565b6000602082019050611318600083018461113f565b92915050565b6000602082019050611333600083018461114e565b92915050565b60006101608201905061134f600083018e61114e565b61135c602083018d61114e565b818103604083015261136e818c61117b565b90508181036060830152611382818b61117b565b9050611391608083018a61116c565b61139e60a083018961116c565b6113ab60c08301886112f4565b81810360e08301526113bd818761117b565b90506113cd61010083018661115d565b8181036101208301526113e0818561117b565b90506113f06101408301846112f4565b9c9b505050505050505050505050565b60006020820190508181036000830152611419816111b4565b9050919050565b60006020820190508181036000830152611439816111f4565b9050919050565b6000602082019050818103600083015261145981611234565b9050919050565b6000602082019050818103600083015261147981611274565b9050919050565b60006020820190508181036000830152611499816112b4565b9050919050565b60006020820190506114b560008301846112f4565b92915050565b6000604051905081810181811067ffffffffffffffff821117156114e2576114e1611760565b5b8060405250919050565b600067ffffffffffffffff82111561150757611506611760565b5b601f19601f8301169050602081019050919050565b600081519050919050565b600082825260208201905092915050565b600061154382611643565b915061154e83611643565b9250827fffffffffffffffffffffffffffffffffffffffffffffffffffffffffffffffff03821115611583576115826116d3565b5b828201905092915050565b600061159982611643565b91506115a483611643565b9250817fffffffffffffffffffffffffffffffffffffffffffffffffffffffffffffffff04831182151516156115dd576115dc6116d3565b5b828202905092915050565b60006115f382611623565b9050919050565b60008115159050919050565b6000819050611614826117a0565b919050565b6000819050919050565b600073ffffffffffffffffffffffffffffffffffffffff82169050919050565b6000819050919050565b600061165882611606565b9050919050565b82818337600083830152505050565b60005b8381101561168c578082015181840152602081019050611671565b8381111561169b576000848401525b50505050565b600060028204905060018216806116b957607f821691505b602082108114156116cd576116cc611731565b5b50919050565b7f4e487b7100000000000000000000000000000000000000000000000000000000600052601160045260246000fd5b7f4e487b7100000000000000000000000000000000000000000000000000000000600052602160045260246000fd5b7f4e487b7100000000000000000000000000000000000000000000000000000000600052602260045260246000fd5b7f4e487b7100000000000000000000000000000000000000000000000000000000600052604160045260246000fd5b6000601f19601f8301169050919050565b600381106117b1576117b0611702565b5b50565b6117bd816115e8565b81146117c857600080fd5b50565b6117d4816115fa565b81146117df57600080fd5b50565b600381106117ef57600080fd5b50565b6117fb81611619565b811461180657600080fd5b50565b61181281611643565b811461181d57600080fd5b5056fea26469706673582212206e30f6bae88f6a3aeb3ce876b1bdb59261807e3b750d7a2feb9e13ebefafb95d64736f6c63430008000033",
  "immutableReferences": {},
  "source": "// SPDX-License-Identifier: MIT\npragma solidity 0.8.0;\n\nimport \"./Acro.sol\";\n\n/** @title Dabase of self-registering actors */\ncontract AcroActors {\n\n   event ActorRegistered(address actorAddress);\n   event votedEvent(address actorAddress);\n   event ActorIsValided(address actorAddress);\n\n   enum ActorTypes { NGO, DIVING_CLUB, RESEARCHER }\n   \n   // TODO be cleaned and optimized //cf order of variables\n   struct Actor {\n      bool isRegistered;\n      bool isValidated;\n      string actorName;\n      string country; \n      int latCenter; //can be negative\n      int longCenter; //can be negative\n      uint yearOfCreation; // year of birth of NGO \n      string email;\n      ActorTypes actorType;\n      string dateOfRegistration;  \n      uint vote_score;\n   }\n\n   mapping(address => Actor) public RegisteredActors;\n   address[] public actors;\n   mapping(address => mapping(address => bool)) private already_vote;\n   Acro private acro_contract;\n\n   /// @dev Acro contract address is set on this contract during deployment\n   /// @param _acro_contract Acro contract address\n   constructor(Acro _acro_contract) {\n     acro_contract = _acro_contract;\n     add_new_actor(msg.sender, Actor({\n       isRegistered: true,\n       isValidated: true,\n       actorName: \"Decri Team\",\n       country: \"France\",\n       latCenter: 0,\n       longCenter: 0,\n       yearOfCreation: 2021,\n       email: \"julien.crypt@gmail.com\",\n       actorType: ActorTypes.NGO,\n       dateOfRegistration: \"\",\n       vote_score: 0}));\n     RegisteredActors[msg.sender].isValidated = true;\n   }\n\n   /**\n     * @dev Add a new actor to the database, anybody can add a new actor (one at once)\n     * requires that the address has not already been recorded\n     * @param addr Actor's wallet address\n     * @param actor Actor's informations\n     */\n   function add_new_actor(address addr, Actor memory actor) public {\n      require(RegisteredActors[addr].isRegistered==false,\"Actor already registered\");\n      actor.isRegistered = true;\n      actor.isValidated = false;\n      actor.vote_score = 0;\n      RegisteredActors[addr] = actor;\n      actors.push(addr);\n      emit ActorRegistered(addr);\n   }\n \n   /// @dev get if an actor is on the registered\n   /// @param addr actor'address\n   /// @return true or false\n   function is_validated_actor(address addr) external view returns (bool) {\n      return RegisteredActors[addr].isValidated;\n   }\n\n   /**\n     * @notice get registred actors array count\n     * @return actors count\n     */\n   function get_actors_count() external view returns (uint) {\n      return actors.length;\n   }\n  \n   //TO DO LATER: add a minimum delay of staking, i.e. at least a month\n   // Warning: amount to be decided\n\n   /// @dev Calculation of voting coefficient according to the actor'staking balance\n   /// this coefficient is used in the votingForActor function\n   /// @param addr actor'address\n   /// @return uint coefficient\n   function votingCoefficient(address addr) private view returns(uint)\n   {\n      uint coef = 0;\n      if (acro_contract.staking_balance(addr) > 1) \n      {\n         coef = 1;\n      }\n      else if (acro_contract.staking_balance(addr) > 50)\n      {\n         coef = 2;\n      }\n      return uint(coef);\n   }\n\n   /// @dev Allows to vote for an actor. Only a validated actor can vote for another actor.\n   /// The voter cannot vote for a non-registered actor, he cannot vote for himself\n   /// The voter can vote only once for an actor.\n   /// @param actor_address actor'address for who the voter wants to vote\n   function votingForActor(address actor_address) external { \n      require(RegisteredActors[msg.sender].isValidated == true,\"Voter must be validated\");\n      require(RegisteredActors[actor_address].isRegistered == true,\"Unknown actor\");\n      require(msg.sender != actor_address,\"Actor cannot vote for himself\");\n      require(already_vote[msg.sender][actor_address] == false,\"Alread vote for this actor\");\n\n      uint coef_vote = votingCoefficient(msg.sender);\n      //A voir car si zero il ne faudrait pas l'enregistrer sur already_vote\n      RegisteredActors[actor_address].vote_score += (1*coef_vote);\n\n      already_vote[msg.sender][actor_address] = true;\n      emit votedEvent(actor_address);\n      \n      if (RegisteredActors[actor_address].vote_score>2) { // !!! NUMBER TO BE SPECIFIED, set low here for testing purpose. FUNCTION?\n         RegisteredActors[actor_address].isValidated = true;\n         emit ActorIsValided(actor_address);\n      }\n   }\n}\n",
  "sourcePath": "/home/deva/decri/contracts/AcroActors.sol",
  "compiler": {
    "name": "solc",
    "version": "0.8.0+commit.c7dfd78e.Emscripten.clang"
  },
  "schemaVersion": "3.3.4",
  "updatedAt": "2021-04-16T07:44:49.901Z",
  "networkType": "ethereum",
  "devdoc": {
    "kind": "dev",
    "methods": {
      "add_new_actor(address,(bool,bool,string,string,int256,int256,uint256,string,uint8,string,uint256))": {
        "details": "Add a new actor to the database, anybody can add a new actor (one at once) requires that the address has not already been recorded",
        "params": {
          "actor": "Actor's informations",
          "addr": "Actor's wallet address"
        }
      },
      "constructor": {
        "details": "Acro contract address is set on this contract during deployment",
        "params": {
          "_acro_contract": "Acro contract address"
        }
      },
      "get_actors_count()": {
        "returns": {
          "_0": "actors count"
        }
      },
      "is_validated_actor(address)": {
        "details": "get if an actor is on the registered",
        "params": {
          "addr": "actor'address"
        },
        "returns": {
          "_0": "true or false"
        }
      },
      "votingForActor(address)": {
        "details": "Allows to vote for an actor. Only a validated actor can vote for another actor. The voter cannot vote for a non-registered actor, he cannot vote for himself The voter can vote only once for an actor.",
        "params": {
          "actor_address": "actor'address for who the voter wants to vote"
        }
      }
    },
    "title": "Dabase of self-registering actors ",
    "version": 1
  },
  "userdoc": {
    "kind": "user",
    "methods": {
      "get_actors_count()": {
        "notice": "get registred actors array count"
      }
    },
    "version": 1
  }
}