{
  "contractName": "AcroActors",
  "abi": [
    {
      "inputs": [
        {
          "internalType": "contract Acro",
          "name": "_acro_contract",
          "type": "address"
        }
      ],
      "stateMutability": "nonpayable",
      "type": "constructor"
    },
    {
      "anonymous": false,
      "inputs": [
        {
          "indexed": false,
          "internalType": "address",
          "name": "actorAddress",
          "type": "address"
        }
      ],
      "name": "ActorDeleted",
      "type": "event"
    },
    {
      "anonymous": false,
      "inputs": [
        {
          "indexed": false,
          "internalType": "address",
          "name": "actorAddress",
          "type": "address"
        }
      ],
      "name": "ActorIsValided",
      "type": "event"
    },
    {
      "anonymous": false,
      "inputs": [
        {
          "indexed": false,
          "internalType": "address",
          "name": "actorAddress",
          "type": "address"
        }
      ],
      "name": "ActorRegistered",
      "type": "event"
    },
    {
      "anonymous": false,
      "inputs": [
        {
          "indexed": true,
          "internalType": "address",
          "name": "previousOwner",
          "type": "address"
        },
        {
          "indexed": true,
          "internalType": "address",
          "name": "newOwner",
          "type": "address"
        }
      ],
      "name": "OwnershipTransferred",
      "type": "event"
    },
    {
      "anonymous": false,
      "inputs": [
        {
          "indexed": false,
          "internalType": "address",
          "name": "actorAddress",
          "type": "address"
        }
      ],
      "name": "votedEvent",
      "type": "event"
    },
    {
      "inputs": [
        {
          "internalType": "address",
          "name": "",
          "type": "address"
        }
      ],
      "name": "RegisteredActors",
      "outputs": [
        {
          "internalType": "bool",
          "name": "isRegistered",
          "type": "bool"
        },
        {
          "internalType": "uint256",
          "name": "id",
          "type": "uint256"
        },
        {
          "internalType": "string",
          "name": "dateOfRegistration",
          "type": "string"
        },
        {
          "internalType": "string",
          "name": "actorName",
          "type": "string"
        },
        {
          "internalType": "string",
          "name": "country",
          "type": "string"
        },
        {
          "internalType": "uint256",
          "name": "latCenter",
          "type": "uint256"
        },
        {
          "internalType": "uint256",
          "name": "longCenter",
          "type": "uint256"
        },
        {
          "internalType": "uint256",
          "name": "yearOfCreation",
          "type": "uint256"
        },
        {
          "internalType": "string",
          "name": "email",
          "type": "string"
        },
        {
          "internalType": "string",
          "name": "actorType",
          "type": "string"
        }
      ],
      "stateMutability": "view",
      "type": "function"
    },
    {
      "inputs": [],
      "name": "acro_contract",
      "outputs": [
        {
          "internalType": "contract Acro",
          "name": "",
          "type": "address"
        }
      ],
      "stateMutability": "view",
      "type": "function"
    },
    {
      "inputs": [
        {
          "internalType": "uint256",
          "name": "",
          "type": "uint256"
        }
      ],
      "name": "actors",
      "outputs": [
        {
          "internalType": "address",
          "name": "",
          "type": "address"
        }
      ],
      "stateMutability": "view",
      "type": "function"
    },
    {
      "inputs": [
        {
          "internalType": "address",
          "name": "",
          "type": "address"
        }
      ],
      "name": "actors_registred_id",
      "outputs": [
        {
          "internalType": "uint256",
          "name": "",
          "type": "uint256"
        }
      ],
      "stateMutability": "view",
      "type": "function"
    },
    {
      "inputs": [
        {
          "internalType": "address",
          "name": "",
          "type": "address"
        }
      ],
      "name": "actors_score_whitelist",
      "outputs": [
        {
          "internalType": "uint256",
          "name": "",
          "type": "uint256"
        }
      ],
      "stateMutability": "view",
      "type": "function"
    },
    {
      "inputs": [
        {
          "internalType": "address",
          "name": "",
          "type": "address"
        }
      ],
      "name": "actors_whitelist",
      "outputs": [
        {
          "internalType": "bool",
          "name": "",
          "type": "bool"
        }
      ],
      "stateMutability": "view",
      "type": "function"
    },
    {
      "inputs": [
        {
          "internalType": "address",
          "name": "",
          "type": "address"
        },
        {
          "internalType": "address",
          "name": "",
          "type": "address"
        }
      ],
      "name": "already_vote",
      "outputs": [
        {
          "internalType": "bool",
          "name": "",
          "type": "bool"
        }
      ],
      "stateMutability": "view",
      "type": "function"
    },
    {
      "inputs": [
        {
          "internalType": "address",
          "name": "",
          "type": "address"
        }
      ],
      "name": "isRegistered",
      "outputs": [
        {
          "internalType": "bool",
          "name": "",
          "type": "bool"
        }
      ],
      "stateMutability": "view",
      "type": "function"
    },
    {
      "inputs": [],
      "name": "owner",
      "outputs": [
        {
          "internalType": "address",
          "name": "",
          "type": "address"
        }
      ],
      "stateMutability": "view",
      "type": "function"
    },
    {
      "inputs": [],
      "name": "renounceOwnership",
      "outputs": [],
      "stateMutability": "nonpayable",
      "type": "function"
    },
    {
      "inputs": [
        {
          "internalType": "address",
          "name": "newOwner",
          "type": "address"
        }
      ],
      "name": "transferOwnership",
      "outputs": [],
      "stateMutability": "nonpayable",
      "type": "function"
    },
    {
      "inputs": [
        {
          "internalType": "address",
          "name": "addr",
          "type": "address"
        }
      ],
      "name": "is_actor",
      "outputs": [
        {
          "internalType": "bool",
          "name": "",
          "type": "bool"
        }
      ],
      "stateMutability": "view",
      "type": "function"
    },
    {
      "inputs": [
        {
          "internalType": "address",
          "name": "addr",
          "type": "address"
        }
      ],
      "name": "is_registered",
      "outputs": [
        {
          "internalType": "bool",
          "name": "",
          "type": "bool"
        }
      ],
      "stateMutability": "view",
      "type": "function"
    },
    {
      "inputs": [
        {
          "internalType": "address",
          "name": "addr",
          "type": "address"
        }
      ],
      "name": "get_actor_id",
      "outputs": [
        {
          "internalType": "uint256",
          "name": "",
          "type": "uint256"
        }
      ],
      "stateMutability": "view",
      "type": "function"
    },
    {
      "inputs": [
        {
          "internalType": "address",
          "name": "addr",
          "type": "address"
        }
      ],
      "name": "get_actors_score_whitelist",
      "outputs": [
        {
          "internalType": "uint256",
          "name": "",
          "type": "uint256"
        }
      ],
      "stateMutability": "view",
      "type": "function"
    },
    {
      "inputs": [
        {
          "internalType": "address",
          "name": "_address",
          "type": "address"
        },
        {
          "internalType": "string",
          "name": "_actorName",
          "type": "string"
        },
        {
          "internalType": "string",
          "name": "_country",
          "type": "string"
        },
        {
          "internalType": "uint256",
          "name": "_latCenter",
          "type": "uint256"
        },
        {
          "internalType": "uint256",
          "name": "_longCenter",
          "type": "uint256"
        },
        {
          "internalType": "uint256",
          "name": "_yearOfCreation",
          "type": "uint256"
        },
        {
          "internalType": "string",
          "name": "_email",
          "type": "string"
        },
        {
          "internalType": "string",
          "name": "_actorType",
          "type": "string"
        },
        {
          "internalType": "string",
          "name": "date",
          "type": "string"
        }
      ],
      "name": "add_new_actor",
      "outputs": [],
      "stateMutability": "nonpayable",
      "type": "function"
    },
    {
      "inputs": [
        {
          "internalType": "address",
          "name": "addr",
          "type": "address"
        }
      ],
      "name": "votingCoefficient",
      "outputs": [
        {
          "internalType": "uint256",
          "name": "",
          "type": "uint256"
        }
      ],
      "stateMutability": "view",
      "type": "function"
    },
    {
      "inputs": [
        {
          "internalType": "address",
          "name": "actor_address",
          "type": "address"
        }
      ],
      "name": "votingForActor",
      "outputs": [],
      "stateMutability": "nonpayable",
      "type": "function"
    },
    {
      "inputs": [
        {
          "internalType": "address",
          "name": "actor_address",
          "type": "address"
        }
      ],
      "name": "validateActor",
      "outputs": [],
      "stateMutability": "nonpayable",
      "type": "function"
    }
  ],
  "bytecode": "0x608060405260006001553480156200001657600080fd5b50604051620022a4380380620022a483398181016040528101906200003c9190620001ab565b60006200004e6200018c60201b60201c565b9050806000806101000a81548173ffffffffffffffffffffffffffffffffffffffff021916908373ffffffffffffffffffffffffffffffffffffffff1602179055508073ffffffffffffffffffffffffffffffffffffffff16600073ffffffffffffffffffffffffffffffffffffffff167f8be0079c531659141344cd1fd0a4f28419497f9722a3daafe3b4186f6b6457e060405160405180910390a35080600960006101000a81548173ffffffffffffffffffffffffffffffffffffffff021916908373ffffffffffffffffffffffffffffffffffffffff1602179055506001600360003373ffffffffffffffffffffffffffffffffffffffff1673ffffffffffffffffffffffffffffffffffffffff16815260200190815260200160002060006101000a81548160ff0219169083151502179055505062000239565b600033905090565b600081519050620001a5816200021f565b92915050565b600060208284031215620001be57600080fd5b6000620001ce8482850162000194565b91505092915050565b6000620001e482620001ff565b9050919050565b6000620001f882620001d7565b9050919050565b600073ffffffffffffffffffffffffffffffffffffffff82169050919050565b6200022a81620001eb565b81146200023657600080fd5b50565b61205b80620002496000396000f3fe608060405234801561001057600080fd5b50600436106101215760003560e01c80639770c9e7116100ad578063c3c5a54711610071578063c3c5a54714610349578063d71748fb14610379578063e26a77e0146103a9578063f2fde38b146103d9578063f3bca8a9146103f557610121565b80639770c9e714610264578063a909440c1461029d578063ae9e8efc146102b9578063b7a8f43a146102e9578063be6cf61e1461031957610121565b80636aed5675116100f45780636aed5675146101c05780636d6d1bf9146101dc578063715018a61461020c5780638da5cb5b1461021657806393c0e83a1461023457610121565b8063383e5213146101265780634581ec201461015657806355e22a6314610172578063619ea80614610190575b600080fd5b610140600480360381019061013b9190611802565b610425565b60405161014d9190611ce8565b60405180910390f35b610170600480360381019061016b9190611802565b61046e565b005b61017a610778565b6040516101879190611c6d565b60405180910390f35b6101aa60048036038101906101a59190611802565b61079e565b6040516101b79190611b93565b60405180910390f35b6101da60048036038101906101d59190611867565b6107f4565b005b6101f660048036038101906101f19190611802565b610be2565b6040516102039190611ce8565b60405180910390f35b610214610bfa565b005b61021e610d34565b60405161022b9190611b78565b60405180910390f35b61024e600480360381019061024991906119a5565b610d5d565b60405161025b9190611b78565b60405180910390f35b61027e60048036038101906102799190611802565b610d9c565b6040516102949a99989796959493929190611bae565b60405180910390f35b6102b760048036038101906102b29190611802565b6110a5565b005b6102d360048036038101906102ce9190611802565b61125c565b6040516102e09190611ce8565b60405180910390f35b61030360048036038101906102fe9190611802565b6113e1565b6040516103109190611ce8565b60405180910390f35b610333600480360381019061032e9190611802565b6113f9565b6040516103409190611b93565b60405180910390f35b610363600480360381019061035e9190611802565b61144f565b6040516103709190611b93565b60405180910390f35b610393600480360381019061038e9190611802565b61146f565b6040516103a09190611b93565b60405180910390f35b6103c360048036038101906103be9190611802565b61148f565b6040516103d09190611ce8565b60405180910390f35b6103f360048036038101906103ee9190611802565b6114d8565b005b61040f600480360381019061040a919061182b565b611681565b60405161041c9190611b93565b60405180910390f35b6000600460008373ffffffffffffffffffffffffffffffffffffffff1673ffffffffffffffffffffffffffffffffffffffff168152602001908152602001600020549050919050565b60011515600260003373ffffffffffffffffffffffffffffffffffffffff1673ffffffffffffffffffffffffffffffffffffffff16815260200190815260200160002060000160009054906101000a900460ff161515146104ce57600080fd5b60011515600260008373ffffffffffffffffffffffffffffffffffffffff1673ffffffffffffffffffffffffffffffffffffffff16815260200190815260200160002060000160009054906101000a900460ff1615151461052e57600080fd5b8073ffffffffffffffffffffffffffffffffffffffff163373ffffffffffffffffffffffffffffffffffffffff16141561056757600080fd5b60001515600760003373ffffffffffffffffffffffffffffffffffffffff1673ffffffffffffffffffffffffffffffffffffffff16815260200190815260200160002060008373ffffffffffffffffffffffffffffffffffffffff1673ffffffffffffffffffffffffffffffffffffffff16815260200190815260200160002060009054906101000a900460ff1615151461060157600080fd5b600061060c3361125c565b905080600161061b9190611dd6565b600460008473ffffffffffffffffffffffffffffffffffffffff1673ffffffffffffffffffffffffffffffffffffffff168152602001908152602001600020546106659190611d80565b600460008473ffffffffffffffffffffffffffffffffffffffff1673ffffffffffffffffffffffffffffffffffffffff168152602001908152602001600020819055506001600760003373ffffffffffffffffffffffffffffffffffffffff1673ffffffffffffffffffffffffffffffffffffffff16815260200190815260200160002060008473ffffffffffffffffffffffffffffffffffffffff1673ffffffffffffffffffffffffffffffffffffffff16815260200190815260200160002060006101000a81548160ff0219169083151502179055507f06640b67015c37470a2bc2e00a76d594f6794fae0d12b9e206bc1bf369fe06768260405161076c9190611b78565b60405180910390a15050565b600960009054906101000a900473ffffffffffffffffffffffffffffffffffffffff1681565b6000600660008373ffffffffffffffffffffffffffffffffffffffff1673ffffffffffffffffffffffffffffffffffffffff16815260200190815260200160002060009054906101000a900460ff169050919050565b60011515600260008b73ffffffffffffffffffffffffffffffffffffffff1673ffffffffffffffffffffffffffffffffffffffff16815260200190815260200160002060000160009054906101000a900460ff161515141561088b576040517f08c379a000000000000000000000000000000000000000000000000000000000815260040161088290611ca8565b60405180910390fd5b60011515600660008b73ffffffffffffffffffffffffffffffffffffffff1673ffffffffffffffffffffffffffffffffffffffff16815260200190815260200160002060009054906101000a900460ff161515141561091f576040517f08c379a000000000000000000000000000000000000000000000000000000000815260040161091690611ca8565b60405180910390fd5b604051806101400160405280600115158152602001600154815260200182815260200189815260200188815260200187815260200186815260200185815260200184815260200183815250600260008b73ffffffffffffffffffffffffffffffffffffffff1673ffffffffffffffffffffffffffffffffffffffff16815260200190815260200160002060008201518160000160006101000a81548160ff0219169083151502179055506020820151816001015560408201518160020190805190602001906109ef9291906116b8565b506060820151816003019080519060200190610a0c9291906116b8565b506080820151816004019080519060200190610a299291906116b8565b5060a0820151816005015560c0820151816006015560e08201518160070155610100820151816008019080519060200190610a659291906116b8565b50610120820151816009019080519060200190610a839291906116b8565b509050506008899080600181540180825580915050600190039060005260206000200160009091909190916101000a81548173ffffffffffffffffffffffffffffffffffffffff021916908373ffffffffffffffffffffffffffffffffffffffff160217905550600154600560008b73ffffffffffffffffffffffffffffffffffffffff1673ffffffffffffffffffffffffffffffffffffffff168152602001908152602001600020819055506001600660008b73ffffffffffffffffffffffffffffffffffffffff1673ffffffffffffffffffffffffffffffffffffffff16815260200190815260200160002060006101000a81548160ff02191690831515021790555060016000815480929190610b9b90611f10565b91905055507f12efe77ebda8838bbe0dba7054e3659625da41a6d9281ff1c4b6e6b6f6db11c489604051610bcf9190611b78565b60405180910390a1505050505050505050565b60056020528060005260406000206000915090505481565b610c026116b0565b73ffffffffffffffffffffffffffffffffffffffff16610c20610d34565b73ffffffffffffffffffffffffffffffffffffffff1614610c76576040517f08c379a0000000000000000000000000000000000000000000000000000000008152600401610c6d90611cc8565b60405180910390fd5b600073ffffffffffffffffffffffffffffffffffffffff1660008054906101000a900473ffffffffffffffffffffffffffffffffffffffff1673ffffffffffffffffffffffffffffffffffffffff167f8be0079c531659141344cd1fd0a4f28419497f9722a3daafe3b4186f6b6457e060405160405180910390a360008060006101000a81548173ffffffffffffffffffffffffffffffffffffffff021916908373ffffffffffffffffffffffffffffffffffffffff160217905550565b60008060009054906101000a900473ffffffffffffffffffffffffffffffffffffffff16905090565b60088181548110610d6d57600080fd5b906000526020600020016000915054906101000a900473ffffffffffffffffffffffffffffffffffffffff1681565b60026020528060005260406000206000915090508060000160009054906101000a900460ff1690806001015490806002018054610dd890611ede565b80601f0160208091040260200160405190810160405280929190818152602001828054610e0490611ede565b8015610e515780601f10610e2657610100808354040283529160200191610e51565b820191906000526020600020905b815481529060010190602001808311610e3457829003601f168201915b505050505090806003018054610e6690611ede565b80601f0160208091040260200160405190810160405280929190818152602001828054610e9290611ede565b8015610edf5780601f10610eb457610100808354040283529160200191610edf565b820191906000526020600020905b815481529060010190602001808311610ec257829003601f168201915b505050505090806004018054610ef490611ede565b80601f0160208091040260200160405190810160405280929190818152602001828054610f2090611ede565b8015610f6d5780601f10610f4257610100808354040283529160200191610f6d565b820191906000526020600020905b815481529060010190602001808311610f5057829003601f168201915b505050505090806005015490806006015490806007015490806008018054610f9490611ede565b80601f0160208091040260200160405190810160405280929190818152602001828054610fc090611ede565b801561100d5780601f10610fe25761010080835404028352916020019161100d565b820191906000526020600020905b815481529060010190602001808311610ff057829003601f168201915b50505050509080600901805461102290611ede565b80601f016020809104026020016040519081016040528092919081815260200182805461104e90611ede565b801561109b5780601f106110705761010080835404028352916020019161109b565b820191906000526020600020905b81548152906001019060200180831161107e57829003601f168201915b505050505090508a565b6110ad6116b0565b73ffffffffffffffffffffffffffffffffffffffff166110cb610d34565b73ffffffffffffffffffffffffffffffffffffffff1614611121576040517f08c379a000000000000000000000000000000000000000000000000000000000815260040161111890611cc8565b60405180910390fd5b60011515600260008373ffffffffffffffffffffffffffffffffffffffff1673ffffffffffffffffffffffffffffffffffffffff16815260200190815260200160002060000160009054906101000a900460ff1615151461118157600080fd5b6002600460008373ffffffffffffffffffffffffffffffffffffffff1673ffffffffffffffffffffffffffffffffffffffff168152602001908152602001600020541115611259576001600360008373ffffffffffffffffffffffffffffffffffffffff1673ffffffffffffffffffffffffffffffffffffffff16815260200190815260200160002060006101000a81548160ff0219169083151502179055507f88a4084bc23056c379de5cd2e44e47b519dae93a04ddc213b5547084ab2203e8816040516112509190611b78565b60405180910390a15b50565b600080600090506001600960009054906101000a900473ffffffffffffffffffffffffffffffffffffffff1673ffffffffffffffffffffffffffffffffffffffff166357ce2caf856040518263ffffffff1660e01b81526004016112c09190611b78565b60206040518083038186803b1580156112d857600080fd5b505afa1580156112ec573d6000803e3d6000fd5b505050506040513d601f19601f8201168201806040525081019061131091906119ce565b111561131f57600190506113d8565b6032600960009054906101000a900473ffffffffffffffffffffffffffffffffffffffff1673ffffffffffffffffffffffffffffffffffffffff166357ce2caf856040518263ffffffff1660e01b815260040161137c9190611b78565b60206040518083038186803b15801561139457600080fd5b505afa1580156113a8573d6000803e3d6000fd5b505050506040513d601f19601f820116820180604052508101906113cc91906119ce565b11156113d757600290505b5b80915050919050565b60046020528060005260406000206000915090505481565b6000600360008373ffffffffffffffffffffffffffffffffffffffff1673ffffffffffffffffffffffffffffffffffffffff16815260200190815260200160002060009054906101000a900460ff169050919050565b60066020528060005260406000206000915054906101000a900460ff1681565b60036020528060005260406000206000915054906101000a900460ff1681565b6000600560008373ffffffffffffffffffffffffffffffffffffffff1673ffffffffffffffffffffffffffffffffffffffff168152602001908152602001600020549050919050565b6114e06116b0565b73ffffffffffffffffffffffffffffffffffffffff166114fe610d34565b73ffffffffffffffffffffffffffffffffffffffff1614611554576040517f08c379a000000000000000000000000000000000000000000000000000000000815260040161154b90611cc8565b60405180910390fd5b600073ffffffffffffffffffffffffffffffffffffffff168173ffffffffffffffffffffffffffffffffffffffff1614156115c4576040517f08c379a00000000000000000000000000000000000000000000000000000000081526004016115bb90611c88565b60405180910390fd5b8073ffffffffffffffffffffffffffffffffffffffff1660008054906101000a900473ffffffffffffffffffffffffffffffffffffffff1673ffffffffffffffffffffffffffffffffffffffff167f8be0079c531659141344cd1fd0a4f28419497f9722a3daafe3b4186f6b6457e060405160405180910390a3806000806101000a81548173ffffffffffffffffffffffffffffffffffffffff021916908373ffffffffffffffffffffffffffffffffffffffff16021790555050565b60076020528160005260406000206020528060005260406000206000915091509054906101000a900460ff1681565b600033905090565b8280546116c490611ede565b90600052602060002090601f0160209004810192826116e6576000855561172d565b82601f106116ff57805160ff191683800117855561172d565b8280016001018555821561172d579182015b8281111561172c578251825591602001919060010190611711565b5b50905061173a919061173e565b5090565b5b8082111561175757600081600090555060010161173f565b5090565b600061176e61176984611d34565b611d03565b90508281526020810184848401111561178657600080fd5b611791848285611e9c565b509392505050565b6000813590506117a881611ff7565b92915050565b600082601f8301126117bf57600080fd5b81356117cf84826020860161175b565b91505092915050565b6000813590506117e78161200e565b92915050565b6000815190506117fc8161200e565b92915050565b60006020828403121561181457600080fd5b600061182284828501611799565b91505092915050565b6000806040838503121561183e57600080fd5b600061184c85828601611799565b925050602061185d85828601611799565b9150509250929050565b60008060008060008060008060006101208a8c03121561188657600080fd5b60006118948c828d01611799565b99505060208a013567ffffffffffffffff8111156118b157600080fd5b6118bd8c828d016117ae565b98505060408a013567ffffffffffffffff8111156118da57600080fd5b6118e68c828d016117ae565b97505060606118f78c828d016117d8565b96505060806119088c828d016117d8565b95505060a06119198c828d016117d8565b94505060c08a013567ffffffffffffffff81111561193657600080fd5b6119428c828d016117ae565b93505060e08a013567ffffffffffffffff81111561195f57600080fd5b61196b8c828d016117ae565b9250506101008a013567ffffffffffffffff81111561198957600080fd5b6119958c828d016117ae565b9150509295985092959850929598565b6000602082840312156119b757600080fd5b60006119c5848285016117d8565b91505092915050565b6000602082840312156119e057600080fd5b60006119ee848285016117ed565b91505092915050565b611a0081611e30565b82525050565b611a0f81611e42565b82525050565b611a1e81611e78565b82525050565b6000611a2f82611d64565b611a398185611d6f565b9350611a49818560208601611eab565b611a5281611fe6565b840191505092915050565b6000611a6a602683611d6f565b91507f4f776e61626c653a206e6577206f776e657220697320746865207a65726f206160008301527f64647265737300000000000000000000000000000000000000000000000000006020830152604082019050919050565b6000611ad0602283611d6f565b91507f54686973206164647265737320697320616c726561647920726567697374657260008301527f65640000000000000000000000000000000000000000000000000000000000006020830152604082019050919050565b6000611b36602083611d6f565b91507f4f776e61626c653a2063616c6c6572206973206e6f7420746865206f776e65726000830152602082019050919050565b611b7281611e6e565b82525050565b6000602082019050611b8d60008301846119f7565b92915050565b6000602082019050611ba86000830184611a06565b92915050565b600061014082019050611bc4600083018d611a06565b611bd1602083018c611b69565b8181036040830152611be3818b611a24565b90508181036060830152611bf7818a611a24565b90508181036080830152611c0b8189611a24565b9050611c1a60a0830188611b69565b611c2760c0830187611b69565b611c3460e0830186611b69565b818103610100830152611c478185611a24565b9050818103610120830152611c5c8184611a24565b90509b9a5050505050505050505050565b6000602082019050611c826000830184611a15565b92915050565b60006020820190508181036000830152611ca181611a5d565b9050919050565b60006020820190508181036000830152611cc181611ac3565b9050919050565b60006020820190508181036000830152611ce181611b29565b9050919050565b6000602082019050611cfd6000830184611b69565b92915050565b6000604051905081810181811067ffffffffffffffff82111715611d2a57611d29611fb7565b5b8060405250919050565b600067ffffffffffffffff821115611d4f57611d4e611fb7565b5b601f19601f8301169050602081019050919050565b600081519050919050565b600082825260208201905092915050565b6000611d8b82611e6e565b9150611d9683611e6e565b9250827fffffffffffffffffffffffffffffffffffffffffffffffffffffffffffffffff03821115611dcb57611dca611f59565b5b828201905092915050565b6000611de182611e6e565b9150611dec83611e6e565b9250817fffffffffffffffffffffffffffffffffffffffffffffffffffffffffffffffff0483118215151615611e2557611e24611f59565b5b828202905092915050565b6000611e3b82611e4e565b9050919050565b60008115159050919050565b600073ffffffffffffffffffffffffffffffffffffffff82169050919050565b6000819050919050565b6000611e8382611e8a565b9050919050565b6000611e9582611e4e565b9050919050565b82818337600083830152505050565b60005b83811015611ec9578082015181840152602081019050611eae565b83811115611ed8576000848401525b50505050565b60006002820490506001821680611ef657607f821691505b60208210811415611f0a57611f09611f88565b5b50919050565b6000611f1b82611e6e565b91507fffffffffffffffffffffffffffffffffffffffffffffffffffffffffffffffff821415611f4e57611f4d611f59565b5b600182019050919050565b7f4e487b7100000000000000000000000000000000000000000000000000000000600052601160045260246000fd5b7f4e487b7100000000000000000000000000000000000000000000000000000000600052602260045260246000fd5b7f4e487b7100000000000000000000000000000000000000000000000000000000600052604160045260246000fd5b6000601f19601f8301169050919050565b61200081611e30565b811461200b57600080fd5b50565b61201781611e6e565b811461202257600080fd5b5056fea26469706673582212203e14ae03a6cd2af5c918fd00f1852f9908401dc92d40e543b71d8163a491bc9e64736f6c63430008000033",
  "immutableReferences": {},
  "source": "// SPDX-License-Identifier: MIT\npragma solidity 0.8.0;\npragma experimental ABIEncoderV2; // A voir si on l'utilise (pour rcuprer tableau dans front)\n\nimport \"@openzeppelin/contracts/access/Ownable.sol\";\nimport \"./Acro.sol\";\n\n\ncontract AcroActors is Ownable {\n   \n   //struc limited to 12 variables apparently ? \n   struct Actor {\n      bool isRegistered;\n      uint id; //!!to be added below & !!to be regrouped by var.cat. for optim\n      // uint nbMintedArea; // to be put in a mapping instead?\n      \n      string dateOfRegistration; // ? do we put that - CHECK variable type\n      string actorName;\n      string country;\n      uint latCenter;\n      uint longCenter;\n      uint yearOfCreation; // year of birth of NGO ?\n      string email; //type to be checked\n      string actorType; // individual, NGO, diving club      \n   }\n\n   uint actorCount = 0; //to keep track of the number of actors and to generate a unique ID\n\n   mapping(address => Actor) public RegisteredActors;\n   mapping(address => bool) public actors_whitelist; //id instead?\n   mapping(address => uint) public actors_score_whitelist;\n\n   mapping(address => uint) public actors_registred_id; //Not needed\n   mapping(address => bool) public isRegistered;\n   mapping(address => mapping(address => bool)) public already_vote;\n\n   //TO ADD: Nb of minted area - mapping\n\n   address[] public actors;\n\n   Acro public acro_contract;\n\n   // Case without Acro contract\n   // constructor() {\n   //   actors_whitelist[msg.sender] = true;\n   // }\n   \n   constructor(Acro _acro_contract) {\n     acro_contract = _acro_contract;\n     actors_whitelist[msg.sender] = true;\n   }\n\n   \n\n   function is_actor(address addr) external view returns (bool) { //confusing iswhitelisted instead, change later because of Front!\n     return actors_whitelist[addr];\n   }\n\n   function is_registered(address addr) external view returns (bool) {\n      return isRegistered[addr];\n   }\n\n   function get_actor_id(address addr) external view returns (uint) {\n      return actors_registred_id[addr];\n   }\n\n   function get_actors_score_whitelist(address addr) external view returns (uint) {\n      return actors_score_whitelist[addr];\n   }\n\n ////To DO:  get actors informations\n \n// /*\n  \n   //List of events\n   event ActorRegistered(address actorAddress);\n   event ActorDeleted(address actorAddress); //  conserver\n   event votedEvent(address actorAddress); //several actors at once?\n   event ActorIsValided(address actorAddress);\n\n   // To add new actors: anybody can add a new actor (one at once)\n   function add_new_actor(address _address,\n                          string memory _actorName,\n                          string memory _country,\n                          uint _latCenter,\n                          uint _longCenter,\n                          uint _yearOfCreation,\n                          string memory _email, //type to be checked\n                          string memory _actorType,\n                          string memory date\n                          ) public {\n      require(RegisteredActors[_address].isRegistered != true,\"This address is already registered\"); // Doublon  voir\n      require(isRegistered[_address] != true, \"This address is already registered\");\n      RegisteredActors[_address] = Actor(true, actorCount,date, _actorName, _country,_latCenter, _longCenter,  _yearOfCreation,_email,_actorType); //DATE A VOIR\n      actors.push(_address);\n      actors_registred_id[_address] = actorCount;\n      isRegistered[_address] = true;\n      actorCount++;\n      emit ActorRegistered(_address);\n   }\n\n  \n   // Voter pour participer  la validation d'un acteur\n   //TO DO: THAT ACTOR MUST BE STAKING SOME ACROS to vote, need to import Acro contract for that\n   //TO DO LATER: add a minimum delay of staking, i.e. at least a month\n\n   // Warning: amount to be decided, beware decimals\n   function votingCoefficient(address addr) public view returns(uint)\n   {\n      uint coef = 0;\n      if (acro_contract.staking_balance(addr) > 1) \n      {\n         coef = 1;\n      }\n      else if (acro_contract.staking_balance(addr) > 50)\n      {\n         coef = 2;\n      }\n      return uint(coef);\n   }\n\n    function votingForActor(address actor_address) external { \n      require(RegisteredActors[msg.sender].isRegistered == true); //The user must be registered to vote\n      require(RegisteredActors[actor_address].isRegistered == true); //not possible to vote for a non-registered actor\n      require(msg.sender != actor_address); // a user cannot vote for himself\n      require(already_vote[msg.sender][actor_address] == false); //Actor can only vote once for an actor\n\n      uint coef_vote = votingCoefficient(msg.sender);\n      // actors_score_whitelist[actor_address] = (actors_score_whitelist[actor_address] + coef_vote); //A voir car si zero il ne faudrait pas l'enregistrer sur already_vote\n      \n      actors_score_whitelist[actor_address] = actors_score_whitelist[actor_address] + (1*coef_vote);\n\n      // actors_score_whitelist[actor_address]++;\n      already_vote[msg.sender][actor_address] = true;\n      emit votedEvent(actor_address);\n   }\n\n\n   //Function to validate an actor. Number of votes to be defined - Admin only\n   // TO DO: validate several actor at once\n   function validateActor(address actor_address) public onlyOwner {\n      require(RegisteredActors[actor_address].isRegistered == true); //Only registered Actors can be validated\n      \n      if (actors_score_whitelist[actor_address] > 2) { // !!! NUMBER TO BE SPECIFIED, set low here for testing purpose. FUNCTION?\n         actors_whitelist[actor_address] = true;\n         emit ActorIsValided(actor_address);\n      } \n   }\n\n\n\n   //\n   \n\n   \n// */\n}\n\n",
  "sourcePath": "/home/deva/decri/contracts/AcroActors.sol",
  "compiler": {
    "name": "solc",
    "version": "0.8.0+commit.c7dfd78e.Emscripten.clang"
  },
  "schemaVersion": "3.3.4",
  "updatedAt": "2021-04-14T16:54:15.531Z",
  "devdoc": {
    "kind": "dev",
    "methods": {
      "owner()": {
        "details": "Returns the address of the current owner."
      },
      "renounceOwnership()": {
        "details": "Leaves the contract without owner. It will not be possible to call `onlyOwner` functions anymore. Can only be called by the current owner. NOTE: Renouncing ownership will leave the contract without an owner, thereby removing any functionality that is only available to the owner."
      },
      "transferOwnership(address)": {
        "details": "Transfers ownership of the contract to a new account (`newOwner`). Can only be called by the current owner."
      }
    },
    "version": 1
  },
  "userdoc": {
    "kind": "user",
    "methods": {},
    "version": 1
  }
}