{
  "contractName": "AcroActors",
  "abi": [
    {
      "inputs": [
        {
          "internalType": "contract Acro",
          "name": "_acro_contract",
          "type": "address"
        }
      ],
      "stateMutability": "nonpayable",
      "type": "constructor"
    },
    {
      "anonymous": false,
      "inputs": [
        {
          "indexed": false,
          "internalType": "address",
          "name": "actorAddress",
          "type": "address"
        }
      ],
      "name": "ActorDeleted",
      "type": "event"
    },
    {
      "anonymous": false,
      "inputs": [
        {
          "indexed": false,
          "internalType": "address",
          "name": "actorAddress",
          "type": "address"
        }
      ],
      "name": "ActorIsValided",
      "type": "event"
    },
    {
      "anonymous": false,
      "inputs": [
        {
          "indexed": false,
          "internalType": "address",
          "name": "actorAddress",
          "type": "address"
        }
      ],
      "name": "ActorRegistered",
      "type": "event"
    },
    {
      "anonymous": false,
      "inputs": [
        {
          "indexed": true,
          "internalType": "address",
          "name": "previousOwner",
          "type": "address"
        },
        {
          "indexed": true,
          "internalType": "address",
          "name": "newOwner",
          "type": "address"
        }
      ],
      "name": "OwnershipTransferred",
      "type": "event"
    },
    {
      "anonymous": false,
      "inputs": [
        {
          "indexed": false,
          "internalType": "address",
          "name": "actorAddress",
          "type": "address"
        }
      ],
      "name": "votedEvent",
      "type": "event"
    },
    {
      "inputs": [
        {
          "internalType": "address",
          "name": "",
          "type": "address"
        }
      ],
      "name": "RegisteredActors",
      "outputs": [
        {
          "internalType": "bool",
          "name": "isRegistered",
          "type": "bool"
        },
        {
          "internalType": "uint256",
          "name": "id",
          "type": "uint256"
        },
        {
          "internalType": "string",
          "name": "dateOfRegistration",
          "type": "string"
        },
        {
          "internalType": "string",
          "name": "actorName",
          "type": "string"
        },
        {
          "internalType": "string",
          "name": "country",
          "type": "string"
        },
        {
          "internalType": "int256",
          "name": "latCenter",
          "type": "int256"
        },
        {
          "internalType": "int256",
          "name": "longCenter",
          "type": "int256"
        },
        {
          "internalType": "uint256",
          "name": "yearOfCreation",
          "type": "uint256"
        },
        {
          "internalType": "string",
          "name": "email",
          "type": "string"
        },
        {
          "internalType": "string",
          "name": "actorType",
          "type": "string"
        }
      ],
      "stateMutability": "view",
      "type": "function",
      "constant": true
    },
    {
      "inputs": [],
      "name": "acro_contract",
      "outputs": [
        {
          "internalType": "contract Acro",
          "name": "",
          "type": "address"
        }
      ],
      "stateMutability": "view",
      "type": "function",
      "constant": true
    },
    {
      "inputs": [
        {
          "internalType": "uint256",
          "name": "",
          "type": "uint256"
        }
      ],
      "name": "actors",
      "outputs": [
        {
          "internalType": "address",
          "name": "",
          "type": "address"
        }
      ],
      "stateMutability": "view",
      "type": "function",
      "constant": true
    },
    {
      "inputs": [
        {
          "internalType": "uint256",
          "name": "",
          "type": "uint256"
        }
      ],
      "name": "actors_infos",
      "outputs": [
        {
          "internalType": "bool",
          "name": "isRegistered",
          "type": "bool"
        },
        {
          "internalType": "uint256",
          "name": "id",
          "type": "uint256"
        },
        {
          "internalType": "string",
          "name": "dateOfRegistration",
          "type": "string"
        },
        {
          "internalType": "string",
          "name": "actorName",
          "type": "string"
        },
        {
          "internalType": "string",
          "name": "country",
          "type": "string"
        },
        {
          "internalType": "int256",
          "name": "latCenter",
          "type": "int256"
        },
        {
          "internalType": "int256",
          "name": "longCenter",
          "type": "int256"
        },
        {
          "internalType": "uint256",
          "name": "yearOfCreation",
          "type": "uint256"
        },
        {
          "internalType": "string",
          "name": "email",
          "type": "string"
        },
        {
          "internalType": "string",
          "name": "actorType",
          "type": "string"
        }
      ],
      "stateMutability": "view",
      "type": "function",
      "constant": true
    },
    {
      "inputs": [
        {
          "internalType": "address",
          "name": "",
          "type": "address"
        }
      ],
      "name": "actors_registred_id",
      "outputs": [
        {
          "internalType": "uint256",
          "name": "",
          "type": "uint256"
        }
      ],
      "stateMutability": "view",
      "type": "function",
      "constant": true
    },
    {
      "inputs": [
        {
          "internalType": "address",
          "name": "",
          "type": "address"
        }
      ],
      "name": "actors_score_whitelist",
      "outputs": [
        {
          "internalType": "uint256",
          "name": "",
          "type": "uint256"
        }
      ],
      "stateMutability": "view",
      "type": "function",
      "constant": true
    },
    {
      "inputs": [
        {
          "internalType": "address",
          "name": "",
          "type": "address"
        }
      ],
      "name": "actors_whitelist",
      "outputs": [
        {
          "internalType": "bool",
          "name": "",
          "type": "bool"
        }
      ],
      "stateMutability": "view",
      "type": "function",
      "constant": true
    },
    {
      "inputs": [
        {
          "internalType": "address",
          "name": "",
          "type": "address"
        },
        {
          "internalType": "address",
          "name": "",
          "type": "address"
        }
      ],
      "name": "already_vote",
      "outputs": [
        {
          "internalType": "bool",
          "name": "",
          "type": "bool"
        }
      ],
      "stateMutability": "view",
      "type": "function",
      "constant": true
    },
    {
      "inputs": [
        {
          "internalType": "address",
          "name": "",
          "type": "address"
        }
      ],
      "name": "isRegistered",
      "outputs": [
        {
          "internalType": "bool",
          "name": "",
          "type": "bool"
        }
      ],
      "stateMutability": "view",
      "type": "function",
      "constant": true
    },
    {
      "inputs": [],
      "name": "owner",
      "outputs": [
        {
          "internalType": "address",
          "name": "",
          "type": "address"
        }
      ],
      "stateMutability": "view",
      "type": "function",
      "constant": true
    },
    {
      "inputs": [],
      "name": "renounceOwnership",
      "outputs": [],
      "stateMutability": "nonpayable",
      "type": "function"
    },
    {
      "inputs": [
        {
          "internalType": "address",
          "name": "newOwner",
          "type": "address"
        }
      ],
      "name": "transferOwnership",
      "outputs": [],
      "stateMutability": "nonpayable",
      "type": "function"
    },
    {
      "inputs": [
        {
          "internalType": "address",
          "name": "addr",
          "type": "address"
        }
      ],
      "name": "is_actor",
      "outputs": [
        {
          "internalType": "bool",
          "name": "",
          "type": "bool"
        }
      ],
      "stateMutability": "view",
      "type": "function",
      "constant": true
    },
    {
      "inputs": [
        {
          "internalType": "address",
          "name": "addr",
          "type": "address"
        }
      ],
      "name": "is_registered",
      "outputs": [
        {
          "internalType": "bool",
          "name": "",
          "type": "bool"
        }
      ],
      "stateMutability": "view",
      "type": "function",
      "constant": true
    },
    {
      "inputs": [
        {
          "internalType": "address",
          "name": "addr",
          "type": "address"
        }
      ],
      "name": "get_actor_id",
      "outputs": [
        {
          "internalType": "uint256",
          "name": "",
          "type": "uint256"
        }
      ],
      "stateMutability": "view",
      "type": "function",
      "constant": true
    },
    {
      "inputs": [
        {
          "internalType": "address",
          "name": "addr",
          "type": "address"
        }
      ],
      "name": "get_actors_score_whitelist",
      "outputs": [
        {
          "internalType": "uint256",
          "name": "",
          "type": "uint256"
        }
      ],
      "stateMutability": "view",
      "type": "function",
      "constant": true
    },
    {
      "inputs": [],
      "name": "get_actors_info",
      "outputs": [
        {
          "components": [
            {
              "internalType": "bool",
              "name": "isRegistered",
              "type": "bool"
            },
            {
              "internalType": "uint256",
              "name": "id",
              "type": "uint256"
            },
            {
              "internalType": "string",
              "name": "dateOfRegistration",
              "type": "string"
            },
            {
              "internalType": "string",
              "name": "actorName",
              "type": "string"
            },
            {
              "internalType": "string",
              "name": "country",
              "type": "string"
            },
            {
              "internalType": "int256",
              "name": "latCenter",
              "type": "int256"
            },
            {
              "internalType": "int256",
              "name": "longCenter",
              "type": "int256"
            },
            {
              "internalType": "uint256",
              "name": "yearOfCreation",
              "type": "uint256"
            },
            {
              "internalType": "string",
              "name": "email",
              "type": "string"
            },
            {
              "internalType": "string",
              "name": "actorType",
              "type": "string"
            }
          ],
          "internalType": "struct AcroActors.Actor[]",
          "name": "",
          "type": "tuple[]"
        }
      ],
      "stateMutability": "view",
      "type": "function",
      "constant": true
    },
    {
      "inputs": [
        {
          "internalType": "address",
          "name": "_address",
          "type": "address"
        },
        {
          "internalType": "string",
          "name": "_actorName",
          "type": "string"
        },
        {
          "internalType": "string",
          "name": "_country",
          "type": "string"
        },
        {
          "internalType": "int256",
          "name": "_latCenter",
          "type": "int256"
        },
        {
          "internalType": "int256",
          "name": "_longCenter",
          "type": "int256"
        },
        {
          "internalType": "uint256",
          "name": "_yearOfCreation",
          "type": "uint256"
        },
        {
          "internalType": "string",
          "name": "_email",
          "type": "string"
        },
        {
          "internalType": "string",
          "name": "_actorType",
          "type": "string"
        },
        {
          "internalType": "string",
          "name": "date",
          "type": "string"
        }
      ],
      "name": "add_new_actor",
      "outputs": [],
      "stateMutability": "nonpayable",
      "type": "function"
    },
    {
      "inputs": [
        {
          "internalType": "address",
          "name": "addr",
          "type": "address"
        }
      ],
      "name": "votingCoefficient",
      "outputs": [
        {
          "internalType": "uint256",
          "name": "",
          "type": "uint256"
        }
      ],
      "stateMutability": "view",
      "type": "function",
      "constant": true
    },
    {
      "inputs": [
        {
          "internalType": "address",
          "name": "actor_address",
          "type": "address"
        }
      ],
      "name": "votingForActor",
      "outputs": [],
      "stateMutability": "nonpayable",
      "type": "function"
    },
    {
      "inputs": [
        {
          "internalType": "address",
          "name": "actor_address",
          "type": "address"
        }
      ],
      "name": "validateActor",
      "outputs": [],
      "stateMutability": "nonpayable",
      "type": "function"
    }
  ],
  "bytecode": "0x608060405260006001553480156200001657600080fd5b5060405162002e2b38038062002e2b83398181016040528101906200003c9190620001ab565b60006200004e6200018c60201b60201c565b9050806000806101000a81548173ffffffffffffffffffffffffffffffffffffffff021916908373ffffffffffffffffffffffffffffffffffffffff1602179055508073ffffffffffffffffffffffffffffffffffffffff16600073ffffffffffffffffffffffffffffffffffffffff167f8be0079c531659141344cd1fd0a4f28419497f9722a3daafe3b4186f6b6457e060405160405180910390a35080600a60006101000a81548173ffffffffffffffffffffffffffffffffffffffff021916908373ffffffffffffffffffffffffffffffffffffffff1602179055506001600360003373ffffffffffffffffffffffffffffffffffffffff1673ffffffffffffffffffffffffffffffffffffffff16815260200190815260200160002060006101000a81548160ff0219169083151502179055505062000239565b600033905090565b600081519050620001a5816200021f565b92915050565b600060208284031215620001be57600080fd5b6000620001ce8482850162000194565b91505092915050565b6000620001e482620001ff565b9050919050565b6000620001f882620001d7565b9050919050565b600073ffffffffffffffffffffffffffffffffffffffff82169050919050565b6200022a81620001eb565b81146200023657600080fd5b50565b612be280620002496000396000f3fe608060405234801561001057600080fd5b50600436106101375760003560e01c80639770c9e7116100b8578063be6cf61e1161007c578063be6cf61e14610386578063c3c5a547146103b6578063d71748fb146103e6578063e26a77e014610416578063f2fde38b14610446578063f3bca8a91461046257610137565b80639770c9e7146102b5578063a909440c146102ee578063ae89f7a51461030a578063ae9e8efc14610326578063b7a8f43a1461035657610137565b80636d6d1bf9116100ff5780636d6d1bf9146101f4578063715018a61461022457806374ad3f591461022e5780638da5cb5b1461026757806393c0e83a1461028557610137565b8063383e52131461013c5780633a15cdfe1461016c5780634581ec201461018a57806355e22a63146101a6578063619ea806146101c4575b600080fd5b61015660048036038101906101519190612108565b610492565b6040516101639190612804565b60405180910390f35b6101746104db565b604051610181919061268d565b60405180910390f35b6101a4600480360381019061019f9190612108565b610858565b005b6101ae610b62565b6040516101bb9190612789565b60405180910390f35b6101de60048036038101906101d99190612108565b610b88565b6040516101eb91906126af565b60405180910390f35b61020e60048036038101906102099190612108565b610bde565b60405161021b9190612804565b60405180910390f35b61022c610bf6565b005b610248600480360381019061024391906122ab565b610d30565b60405161025e9a999897969594939291906126ca565b60405180910390f35b61026f611049565b60405161027c9190612672565b60405180910390f35b61029f600480360381019061029a91906122ab565b611072565b6040516102ac9190612672565b60405180910390f35b6102cf60048036038101906102ca9190612108565b6110b1565b6040516102e59a999897969594939291906126ca565b60405180910390f35b61030860048036038101906103039190612108565b6113ba565b005b610324600480360381019061031f919061216d565b611571565b005b610340600480360381019061033b9190612108565b611ac0565b60405161034d9190612804565b60405180910390f35b610370600480360381019061036b9190612108565b611c45565b60405161037d9190612804565b60405180910390f35b6103a0600480360381019061039b9190612108565b611c5d565b6040516103ad91906126af565b60405180910390f35b6103d060048036038101906103cb9190612108565b611cb3565b6040516103dd91906126af565b60405180910390f35b61040060048036038101906103fb9190612108565b611cd3565b60405161040d91906126af565b60405180910390f35b610430600480360381019061042b9190612108565b611cf3565b60405161043d9190612804565b60405180910390f35b610460600480360381019061045b9190612108565b611d3c565b005b61047c60048036038101906104779190612131565b611ee5565b60405161048991906126af565b60405180910390f35b6000600460008373ffffffffffffffffffffffffffffffffffffffff1673ffffffffffffffffffffffffffffffffffffffff168152602001908152602001600020549050919050565b60606009805480602002602001604051908101604052809291908181526020016000905b8282101561084f57838290600052602060002090600a0201604051806101400160405290816000820160009054906101000a900460ff161515151581526020016001820154815260200160028201805461055890612a4e565b80601f016020809104026020016040519081016040528092919081815260200182805461058490612a4e565b80156105d15780601f106105a6576101008083540402835291602001916105d1565b820191906000526020600020905b8154815290600101906020018083116105b457829003601f168201915b505050505081526020016003820180546105ea90612a4e565b80601f016020809104026020016040519081016040528092919081815260200182805461061690612a4e565b80156106635780601f1061063857610100808354040283529160200191610663565b820191906000526020600020905b81548152906001019060200180831161064657829003601f168201915b5050505050815260200160048201805461067c90612a4e565b80601f01602080910402602001604051908101604052809291908181526020018280546106a890612a4e565b80156106f55780601f106106ca576101008083540402835291602001916106f5565b820191906000526020600020905b8154815290600101906020018083116106d857829003601f168201915b5050505050815260200160058201548152602001600682015481526020016007820154815260200160088201805461072c90612a4e565b80601f016020809104026020016040519081016040528092919081815260200182805461075890612a4e565b80156107a55780601f1061077a576101008083540402835291602001916107a5565b820191906000526020600020905b81548152906001019060200180831161078857829003601f168201915b505050505081526020016009820180546107be90612a4e565b80601f01602080910402602001604051908101604052809291908181526020018280546107ea90612a4e565b80156108375780601f1061080c57610100808354040283529160200191610837565b820191906000526020600020905b81548152906001019060200180831161081a57829003601f168201915b505050505081525050815260200190600101906104ff565b50505050905090565b60011515600260003373ffffffffffffffffffffffffffffffffffffffff1673ffffffffffffffffffffffffffffffffffffffff16815260200190815260200160002060000160009054906101000a900460ff161515146108b857600080fd5b60011515600260008373ffffffffffffffffffffffffffffffffffffffff1673ffffffffffffffffffffffffffffffffffffffff16815260200190815260200160002060000160009054906101000a900460ff1615151461091857600080fd5b8073ffffffffffffffffffffffffffffffffffffffff163373ffffffffffffffffffffffffffffffffffffffff16141561095157600080fd5b60001515600760003373ffffffffffffffffffffffffffffffffffffffff1673ffffffffffffffffffffffffffffffffffffffff16815260200190815260200160002060008373ffffffffffffffffffffffffffffffffffffffff1673ffffffffffffffffffffffffffffffffffffffff16815260200190815260200160002060009054906101000a900460ff161515146109eb57600080fd5b60006109f633611ac0565b9050806001610a05919061293c565b600460008473ffffffffffffffffffffffffffffffffffffffff1673ffffffffffffffffffffffffffffffffffffffff16815260200190815260200160002054610a4f91906128e6565b600460008473ffffffffffffffffffffffffffffffffffffffff1673ffffffffffffffffffffffffffffffffffffffff168152602001908152602001600020819055506001600760003373ffffffffffffffffffffffffffffffffffffffff1673ffffffffffffffffffffffffffffffffffffffff16815260200190815260200160002060008473ffffffffffffffffffffffffffffffffffffffff1673ffffffffffffffffffffffffffffffffffffffff16815260200190815260200160002060006101000a81548160ff0219169083151502179055507f06640b67015c37470a2bc2e00a76d594f6794fae0d12b9e206bc1bf369fe067682604051610b569190612672565b60405180910390a15050565b600a60009054906101000a900473ffffffffffffffffffffffffffffffffffffffff1681565b6000600660008373ffffffffffffffffffffffffffffffffffffffff1673ffffffffffffffffffffffffffffffffffffffff16815260200190815260200160002060009054906101000a900460ff169050919050565b60056020528060005260406000206000915090505481565b610bfe611f14565b73ffffffffffffffffffffffffffffffffffffffff16610c1c611049565b73ffffffffffffffffffffffffffffffffffffffff1614610c72576040517f08c379a0000000000000000000000000000000000000000000000000000000008152600401610c69906127e4565b60405180910390fd5b600073ffffffffffffffffffffffffffffffffffffffff1660008054906101000a900473ffffffffffffffffffffffffffffffffffffffff1673ffffffffffffffffffffffffffffffffffffffff167f8be0079c531659141344cd1fd0a4f28419497f9722a3daafe3b4186f6b6457e060405160405180910390a360008060006101000a81548173ffffffffffffffffffffffffffffffffffffffff021916908373ffffffffffffffffffffffffffffffffffffffff160217905550565b60098181548110610d4057600080fd5b90600052602060002090600a02016000915090508060000160009054906101000a900460ff1690806001015490806002018054610d7c90612a4e565b80601f0160208091040260200160405190810160405280929190818152602001828054610da890612a4e565b8015610df55780601f10610dca57610100808354040283529160200191610df5565b820191906000526020600020905b815481529060010190602001808311610dd857829003601f168201915b505050505090806003018054610e0a90612a4e565b80601f0160208091040260200160405190810160405280929190818152602001828054610e3690612a4e565b8015610e835780601f10610e5857610100808354040283529160200191610e83565b820191906000526020600020905b815481529060010190602001808311610e6657829003601f168201915b505050505090806004018054610e9890612a4e565b80601f0160208091040260200160405190810160405280929190818152602001828054610ec490612a4e565b8015610f115780601f10610ee657610100808354040283529160200191610f11565b820191906000526020600020905b815481529060010190602001808311610ef457829003601f168201915b505050505090806005015490806006015490806007015490806008018054610f3890612a4e565b80601f0160208091040260200160405190810160405280929190818152602001828054610f6490612a4e565b8015610fb15780601f10610f8657610100808354040283529160200191610fb1565b820191906000526020600020905b815481529060010190602001808311610f9457829003601f168201915b505050505090806009018054610fc690612a4e565b80601f0160208091040260200160405190810160405280929190818152602001828054610ff290612a4e565b801561103f5780601f106110145761010080835404028352916020019161103f565b820191906000526020600020905b81548152906001019060200180831161102257829003601f168201915b505050505090508a565b60008060009054906101000a900473ffffffffffffffffffffffffffffffffffffffff16905090565b6008818154811061108257600080fd5b906000526020600020016000915054906101000a900473ffffffffffffffffffffffffffffffffffffffff1681565b60026020528060005260406000206000915090508060000160009054906101000a900460ff16908060010154908060020180546110ed90612a4e565b80601f016020809104026020016040519081016040528092919081815260200182805461111990612a4e565b80156111665780601f1061113b57610100808354040283529160200191611166565b820191906000526020600020905b81548152906001019060200180831161114957829003601f168201915b50505050509080600301805461117b90612a4e565b80601f01602080910402602001604051908101604052809291908181526020018280546111a790612a4e565b80156111f45780601f106111c9576101008083540402835291602001916111f4565b820191906000526020600020905b8154815290600101906020018083116111d757829003601f168201915b50505050509080600401805461120990612a4e565b80601f016020809104026020016040519081016040528092919081815260200182805461123590612a4e565b80156112825780601f1061125757610100808354040283529160200191611282565b820191906000526020600020905b81548152906001019060200180831161126557829003601f168201915b5050505050908060050154908060060154908060070154908060080180546112a990612a4e565b80601f01602080910402602001604051908101604052809291908181526020018280546112d590612a4e565b80156113225780601f106112f757610100808354040283529160200191611322565b820191906000526020600020905b81548152906001019060200180831161130557829003601f168201915b50505050509080600901805461133790612a4e565b80601f016020809104026020016040519081016040528092919081815260200182805461136390612a4e565b80156113b05780601f10611385576101008083540402835291602001916113b0565b820191906000526020600020905b81548152906001019060200180831161139357829003601f168201915b505050505090508a565b6113c2611f14565b73ffffffffffffffffffffffffffffffffffffffff166113e0611049565b73ffffffffffffffffffffffffffffffffffffffff1614611436576040517f08c379a000000000000000000000000000000000000000000000000000000000815260040161142d906127e4565b60405180910390fd5b60011515600260008373ffffffffffffffffffffffffffffffffffffffff1673ffffffffffffffffffffffffffffffffffffffff16815260200190815260200160002060000160009054906101000a900460ff1615151461149657600080fd5b6002600460008373ffffffffffffffffffffffffffffffffffffffff1673ffffffffffffffffffffffffffffffffffffffff16815260200190815260200160002054111561156e576001600360008373ffffffffffffffffffffffffffffffffffffffff1673ffffffffffffffffffffffffffffffffffffffff16815260200190815260200160002060006101000a81548160ff0219169083151502179055507f88a4084bc23056c379de5cd2e44e47b519dae93a04ddc213b5547084ab2203e8816040516115659190612672565b60405180910390a15b50565b60011515600260008b73ffffffffffffffffffffffffffffffffffffffff1673ffffffffffffffffffffffffffffffffffffffff16815260200190815260200160002060000160009054906101000a900460ff1615151415611608576040517f08c379a00000000000000000000000000000000000000000000000000000000081526004016115ff906127c4565b60405180910390fd5b60011515600660008b73ffffffffffffffffffffffffffffffffffffffff1673ffffffffffffffffffffffffffffffffffffffff16815260200190815260200160002060009054906101000a900460ff161515141561169c576040517f08c379a0000000000000000000000000000000000000000000000000000000008152600401611693906127c4565b60405180910390fd5b604051806101400160405280600115158152602001600154815260200182815260200189815260200188815260200187815260200186815260200185815260200184815260200183815250600260008b73ffffffffffffffffffffffffffffffffffffffff1673ffffffffffffffffffffffffffffffffffffffff16815260200190815260200160002060008201518160000160006101000a81548160ff02191690831515021790555060208201518160010155604082015181600201908051906020019061176c929190611f1c565b506060820151816003019080519060200190611789929190611f1c565b5060808201518160040190805190602001906117a6929190611f1c565b5060a0820151816005015560c0820151816006015560e082015181600701556101008201518160080190805190602001906117e2929190611f1c565b50610120820151816009019080519060200190611800929190611f1c565b509050506009600260008b73ffffffffffffffffffffffffffffffffffffffff1673ffffffffffffffffffffffffffffffffffffffff16815260200190815260200160002090806001815401808255809150506001900390600052602060002090600a02016000909190919091506000820160009054906101000a900460ff168160000160006101000a81548160ff0219169083151502179055506001820154816001015560028201816002019080546118b990612a4e565b6118c4929190611fa2565b5060038201816003019080546118d990612a4e565b6118e4929190611fa2565b5060048201816004019080546118f990612a4e565b611904929190611fa2565b50600582015481600501556006820154816006015560078201548160070155600882018160080190805461193790612a4e565b611942929190611fa2565b50600982018160090190805461195790612a4e565b611962929190611fa2565b5050506008899080600181540180825580915050600190039060005260206000200160009091909190916101000a81548173ffffffffffffffffffffffffffffffffffffffff021916908373ffffffffffffffffffffffffffffffffffffffff160217905550600154600560008b73ffffffffffffffffffffffffffffffffffffffff1673ffffffffffffffffffffffffffffffffffffffff168152602001908152602001600020819055506001600660008b73ffffffffffffffffffffffffffffffffffffffff1673ffffffffffffffffffffffffffffffffffffffff16815260200190815260200160002060006101000a81548160ff02191690831515021790555060016000815480929190611a7990612a80565b91905055507f12efe77ebda8838bbe0dba7054e3659625da41a6d9281ff1c4b6e6b6f6db11c489604051611aad9190612672565b60405180910390a1505050505050505050565b600080600090506001600a60009054906101000a900473ffffffffffffffffffffffffffffffffffffffff1673ffffffffffffffffffffffffffffffffffffffff166357ce2caf856040518263ffffffff1660e01b8152600401611b249190612672565b60206040518083038186803b158015611b3c57600080fd5b505afa158015611b50573d6000803e3d6000fd5b505050506040513d601f19601f82011682018060405250810190611b7491906122d4565b1115611b835760019050611c3c565b6032600a60009054906101000a900473ffffffffffffffffffffffffffffffffffffffff1673ffffffffffffffffffffffffffffffffffffffff166357ce2caf856040518263ffffffff1660e01b8152600401611be09190612672565b60206040518083038186803b158015611bf857600080fd5b505afa158015611c0c573d6000803e3d6000fd5b505050506040513d601f19601f82011682018060405250810190611c3091906122d4565b1115611c3b57600290505b5b80915050919050565b60046020528060005260406000206000915090505481565b6000600360008373ffffffffffffffffffffffffffffffffffffffff1673ffffffffffffffffffffffffffffffffffffffff16815260200190815260200160002060009054906101000a900460ff169050919050565b60066020528060005260406000206000915054906101000a900460ff1681565b60036020528060005260406000206000915054906101000a900460ff1681565b6000600560008373ffffffffffffffffffffffffffffffffffffffff1673ffffffffffffffffffffffffffffffffffffffff168152602001908152602001600020549050919050565b611d44611f14565b73ffffffffffffffffffffffffffffffffffffffff16611d62611049565b73ffffffffffffffffffffffffffffffffffffffff1614611db8576040517f08c379a0000000000000000000000000000000000000000000000000000000008152600401611daf906127e4565b60405180910390fd5b600073ffffffffffffffffffffffffffffffffffffffff168173ffffffffffffffffffffffffffffffffffffffff161415611e28576040517f08c379a0000000000000000000000000000000000000000000000000000000008152600401611e1f906127a4565b60405180910390fd5b8073ffffffffffffffffffffffffffffffffffffffff1660008054906101000a900473ffffffffffffffffffffffffffffffffffffffff1673ffffffffffffffffffffffffffffffffffffffff167f8be0079c531659141344cd1fd0a4f28419497f9722a3daafe3b4186f6b6457e060405160405180910390a3806000806101000a81548173ffffffffffffffffffffffffffffffffffffffff021916908373ffffffffffffffffffffffffffffffffffffffff16021790555050565b60076020528160005260406000206020528060005260406000206000915091509054906101000a900460ff1681565b600033905090565b828054611f2890612a4e565b90600052602060002090601f016020900481019282611f4a5760008555611f91565b82601f10611f6357805160ff1916838001178555611f91565b82800160010185558215611f91579182015b82811115611f90578251825591602001919060010190611f75565b5b509050611f9e919061202f565b5090565b828054611fae90612a4e565b90600052602060002090601f016020900481019282611fd0576000855561201e565b82601f10611fe1578054855561201e565b8280016001018555821561201e57600052602060002091601f016020900482015b8281111561201d578254825591600101919060010190612002565b5b50905061202b919061202f565b5090565b5b80821115612048576000816000905550600101612030565b5090565b600061205f61205a84612850565b61281f565b90508281526020810184848401111561207757600080fd5b612082848285612a0c565b509392505050565b60008135905061209981612b67565b92915050565b6000813590506120ae81612b7e565b92915050565b600082601f8301126120c557600080fd5b81356120d584826020860161204c565b91505092915050565b6000813590506120ed81612b95565b92915050565b60008151905061210281612b95565b92915050565b60006020828403121561211a57600080fd5b60006121288482850161208a565b91505092915050565b6000806040838503121561214457600080fd5b60006121528582860161208a565b92505060206121638582860161208a565b9150509250929050565b60008060008060008060008060006101208a8c03121561218c57600080fd5b600061219a8c828d0161208a565b99505060208a013567ffffffffffffffff8111156121b757600080fd5b6121c38c828d016120b4565b98505060408a013567ffffffffffffffff8111156121e057600080fd5b6121ec8c828d016120b4565b97505060606121fd8c828d0161209f565b965050608061220e8c828d0161209f565b95505060a061221f8c828d016120de565b94505060c08a013567ffffffffffffffff81111561223c57600080fd5b6122488c828d016120b4565b93505060e08a013567ffffffffffffffff81111561226557600080fd5b6122718c828d016120b4565b9250506101008a013567ffffffffffffffff81111561228f57600080fd5b61229b8c828d016120b4565b9150509295985092959850929598565b6000602082840312156122bd57600080fd5b60006122cb848285016120de565b91505092915050565b6000602082840312156122e657600080fd5b60006122f4848285016120f3565b91505092915050565b6000612309838361255e565b905092915050565b61231a81612996565b82525050565b600061232b82612890565b61233581856128b3565b93508360208202850161234785612880565b8060005b85811015612383578484038952815161236485826122fd565b945061236f836128a6565b925060208a0199505060018101905061234b565b50829750879550505050505092915050565b61239e816129a8565b82525050565b6123ad816129a8565b82525050565b6123bc816129e8565b82525050565b6123cb816129b4565b82525050565b6123da816129b4565b82525050565b60006123eb8261289b565b6123f581856128c4565b9350612405818560208601612a1b565b61240e81612b56565b840191505092915050565b60006124248261289b565b61242e81856128d5565b935061243e818560208601612a1b565b61244781612b56565b840191505092915050565b600061245f6026836128d5565b91507f4f776e61626c653a206e6577206f776e657220697320746865207a65726f206160008301527f64647265737300000000000000000000000000000000000000000000000000006020830152604082019050919050565b60006124c56022836128d5565b91507f54686973206164647265737320697320616c726561647920726567697374657260008301527f65640000000000000000000000000000000000000000000000000000000000006020830152604082019050919050565b600061252b6020836128d5565b91507f4f776e61626c653a2063616c6c6572206973206e6f7420746865206f776e65726000830152602082019050919050565b6000610140830160008301516125776000860182612395565b50602083015161258a6020860182612654565b50604083015184820360408601526125a282826123e0565b915050606083015184820360608601526125bc82826123e0565b915050608083015184820360808601526125d682826123e0565b91505060a08301516125eb60a08601826123c2565b5060c08301516125fe60c08601826123c2565b5060e083015161261160e0860182612654565b5061010083015184820361010086015261262b82826123e0565b91505061012083015184820361012086015261264782826123e0565b9150508091505092915050565b61265d816129de565b82525050565b61266c816129de565b82525050565b60006020820190506126876000830184612311565b92915050565b600060208201905081810360008301526126a78184612320565b905092915050565b60006020820190506126c460008301846123a4565b92915050565b6000610140820190506126e0600083018d6123a4565b6126ed602083018c612663565b81810360408301526126ff818b612419565b90508181036060830152612713818a612419565b905081810360808301526127278189612419565b905061273660a08301886123d1565b61274360c08301876123d1565b61275060e0830186612663565b8181036101008301526127638185612419565b90508181036101208301526127788184612419565b90509b9a5050505050505050505050565b600060208201905061279e60008301846123b3565b92915050565b600060208201905081810360008301526127bd81612452565b9050919050565b600060208201905081810360008301526127dd816124b8565b9050919050565b600060208201905081810360008301526127fd8161251e565b9050919050565b60006020820190506128196000830184612663565b92915050565b6000604051905081810181811067ffffffffffffffff8211171561284657612845612b27565b5b8060405250919050565b600067ffffffffffffffff82111561286b5761286a612b27565b5b601f19601f8301169050602081019050919050565b6000819050602082019050919050565b600081519050919050565b600081519050919050565b6000602082019050919050565b600082825260208201905092915050565b600082825260208201905092915050565b600082825260208201905092915050565b60006128f1826129de565b91506128fc836129de565b9250827fffffffffffffffffffffffffffffffffffffffffffffffffffffffffffffffff0382111561293157612930612ac9565b5b828201905092915050565b6000612947826129de565b9150612952836129de565b9250817fffffffffffffffffffffffffffffffffffffffffffffffffffffffffffffffff048311821515161561298b5761298a612ac9565b5b828202905092915050565b60006129a1826129be565b9050919050565b60008115159050919050565b6000819050919050565b600073ffffffffffffffffffffffffffffffffffffffff82169050919050565b6000819050919050565b60006129f3826129fa565b9050919050565b6000612a05826129be565b9050919050565b82818337600083830152505050565b60005b83811015612a39578082015181840152602081019050612a1e565b83811115612a48576000848401525b50505050565b60006002820490506001821680612a6657607f821691505b60208210811415612a7a57612a79612af8565b5b50919050565b6000612a8b826129de565b91507fffffffffffffffffffffffffffffffffffffffffffffffffffffffffffffffff821415612abe57612abd612ac9565b5b600182019050919050565b7f4e487b7100000000000000000000000000000000000000000000000000000000600052601160045260246000fd5b7f4e487b7100000000000000000000000000000000000000000000000000000000600052602260045260246000fd5b7f4e487b7100000000000000000000000000000000000000000000000000000000600052604160045260246000fd5b6000601f19601f8301169050919050565b612b7081612996565b8114612b7b57600080fd5b50565b612b87816129b4565b8114612b9257600080fd5b50565b612b9e816129de565b8114612ba957600080fd5b5056fea264697066735822122024bdf126c0bca4fbb8680b41042955d94a87523fc92357a0d21163c7d5d1c7c664736f6c63430008000033",
  "immutableReferences": {},
  "source": "// SPDX-License-Identifier: MIT\npragma solidity 0.8.0;\npragma experimental ABIEncoderV2; // A voir si on l'utilise (pour rcuprer tableau dans front)\n\nimport \"@openzeppelin/contracts/access/Ownable.sol\";\nimport \"./Acro.sol\";\n\n\ncontract AcroActors is Ownable {\n   \n   //TO be cleaned and optimized\n   ////To be completed (uint nb MintedArea?)\n   struct Actor {\n      bool isRegistered;\n      uint id; \n            \n      string dateOfRegistration;\n      string actorName;\n      string country;\n      int latCenter; //can be negative\n      int longCenter; //can be negative\n      uint yearOfCreation; // year of birth of NGO ?\n      string email; //type to be checked\n      string actorType; // NGO, Diving Club, Researcher\n   }\n\n   uint actorCount = 0; //to keep track of the number of actors and to generate a unique ID\n\n   mapping(address => Actor) public RegisteredActors;\n   mapping(address => bool) public actors_whitelist; //id instead?\n   mapping(address => uint) public actors_score_whitelist;\n\n   mapping(address => uint) public actors_registred_id; //Not needed\n   mapping(address => bool) public isRegistered;\n   mapping(address => mapping(address => bool)) public already_vote;\n\n   //TO ADD: Nb of minted area - mapping\n\n   address[] public actors;\n   Actor[] public actors_infos;\n\n  \n\n   Acro public acro_contract;\n\n  \n   constructor(Acro _acro_contract) {\n     acro_contract = _acro_contract;\n     actors_whitelist[msg.sender] = true;\n   }\n\n   \n\n   function is_actor(address addr) external view returns (bool) { //confusing iswhitelisted instead, change later because of Front!\n     return actors_whitelist[addr];\n   }\n\n   function is_registered(address addr) external view returns (bool) {\n      return isRegistered[addr];\n   }\n\n   // function get_is_registered(address addr) external view returns (bool) {\n   //      bool isreg = RegisteredActors[addr].isRegistered;\n   //      return isreg;\n   //  }\n\n   function get_actor_id(address addr) external view returns (uint) {\n      return actors_registred_id[addr];\n   }\n\n   function get_actors_score_whitelist(address addr) external view returns (uint) {\n      return actors_score_whitelist[addr];\n   }\n\n    //get actors infos-  address ?\n   function get_actors_info() public view returns(Actor[] memory){\n      return actors_infos;\n   }\n\n \n \n// /*\n  \n   //List of events\n   event ActorRegistered(address actorAddress);\n   event ActorDeleted(address actorAddress); //  conserver\n   event votedEvent(address actorAddress); //several actors at once?\n   event ActorIsValided(address actorAddress);\n\n   // To add new actors: anybody can add a new actor (one at once)\n   function add_new_actor(address _address,\n                          string memory _actorName,\n                          string memory _country,\n                          int _latCenter, //can be negative\n                          int _longCenter, //can be negative\n                          uint _yearOfCreation,\n                          string memory _email,\n                          string memory _actorType,\n                          string memory date\n                          ) public {\n      require(RegisteredActors[_address].isRegistered != true,\"This address is already registered\"); // Doublon  voir\n      require(isRegistered[_address] != true, \"This address is already registered\");\n      RegisteredActors[_address] = Actor(true, actorCount,date, _actorName, _country,_latCenter, _longCenter,  _yearOfCreation,_email,_actorType); //DATE A VOIR\n      actors_infos.push(RegisteredActors[_address]);\n      actors.push(_address);\n      actors_registred_id[_address] = actorCount;\n      isRegistered[_address] = true;\n      actorCount++;\n      emit ActorRegistered(_address);\n   }\n\n  \n   // Voter pour participer  la validation d'un acteur\n   //TO DO LATER: add a minimum delay of staking, i.e. at least a month\n\n   // Warning: amount to be decided, beware decimals\n   function votingCoefficient(address addr) public view returns(uint)\n   {\n      uint coef = 0;\n      if (acro_contract.staking_balance(addr) > 1) \n      {\n         coef = 1;\n      }\n      else if (acro_contract.staking_balance(addr) > 50)\n      {\n         coef = 2;\n      }\n      return uint(coef);\n   }\n\n    function votingForActor(address actor_address) external { \n      require(RegisteredActors[msg.sender].isRegistered == true); //The user must be registered to vote\n      require(RegisteredActors[actor_address].isRegistered == true); //not possible to vote for a non-registered actor\n      require(msg.sender != actor_address); // a user cannot vote for himself\n      require(already_vote[msg.sender][actor_address] == false); //Actor can only vote once for an actor\n\n      uint coef_vote = votingCoefficient(msg.sender);\n      // actors_score_whitelist[actor_address] = (actors_score_whitelist[actor_address] + coef_vote); //A voir car si zero il ne faudrait pas l'enregistrer sur already_vote\n      \n      actors_score_whitelist[actor_address] = actors_score_whitelist[actor_address] + (1*coef_vote);\n\n      // actors_score_whitelist[actor_address]++;\n      already_vote[msg.sender][actor_address] = true;\n      emit votedEvent(actor_address);\n   }\n\n\n   //Function to validate an actor. Number of votes to be defined - Admin only\n   // TO DO: validate several actor at once ?\n   function validateActor(address actor_address) public onlyOwner {\n      require(RegisteredActors[actor_address].isRegistered == true); //Only registered Actors can be validated\n      \n      if (actors_score_whitelist[actor_address] > 2) { // !!! NUMBER TO BE SPECIFIED, set low here for testing purpose. FUNCTION?\n         actors_whitelist[actor_address] = true;\n         emit ActorIsValided(actor_address);\n      } \n   }\n\n\n\n   //\n   \n\n   \n// */\n}\n\n",
  "sourcePath": "/home/deva/decri/contracts/AcroActors.sol",
  "compiler": {
    "name": "solc",
    "version": "0.8.0+commit.c7dfd78e.Emscripten.clang"
  },
  "schemaVersion": "3.3.4",
  "updatedAt": "2021-04-15T18:12:14.487Z",
  "networkType": "ethereum",
  "devdoc": {
    "kind": "dev",
    "methods": {
      "owner()": {
        "details": "Returns the address of the current owner."
      },
      "renounceOwnership()": {
        "details": "Leaves the contract without owner. It will not be possible to call `onlyOwner` functions anymore. Can only be called by the current owner. NOTE: Renouncing ownership will leave the contract without an owner, thereby removing any functionality that is only available to the owner."
      },
      "transferOwnership(address)": {
        "details": "Transfers ownership of the contract to a new account (`newOwner`). Can only be called by the current owner."
      }
    },
    "version": 1
  },
  "userdoc": {
    "kind": "user",
    "methods": {},
    "version": 1
  }
}