{
  "contractName": "AcroActors",
  "abi": [
    {
      "inputs": [
        {
          "internalType": "contract Acro",
          "name": "_acro_contract",
          "type": "address"
        }
      ],
      "stateMutability": "nonpayable",
      "type": "constructor"
    },
    {
      "anonymous": false,
      "inputs": [
        {
          "indexed": false,
          "internalType": "address",
          "name": "actorAddress",
          "type": "address"
        }
      ],
      "name": "ActorIsValided",
      "type": "event"
    },
    {
      "anonymous": false,
      "inputs": [
        {
          "indexed": false,
          "internalType": "address",
          "name": "actorAddress",
          "type": "address"
        }
      ],
      "name": "ActorRegistered",
      "type": "event"
    },
    {
      "anonymous": false,
      "inputs": [
        {
          "indexed": false,
          "internalType": "address",
          "name": "actorAddress",
          "type": "address"
        }
      ],
      "name": "votedEvent",
      "type": "event"
    },
    {
      "inputs": [
        {
          "internalType": "address",
          "name": "",
          "type": "address"
        }
      ],
      "name": "RegisteredActors",
      "outputs": [
        {
          "internalType": "bool",
          "name": "isRegistered",
          "type": "bool"
        },
        {
          "internalType": "bool",
          "name": "isValidated",
          "type": "bool"
        },
        {
          "internalType": "string",
          "name": "actorName",
          "type": "string"
        },
        {
          "internalType": "string",
          "name": "country",
          "type": "string"
        },
        {
          "internalType": "int256",
          "name": "latCenter",
          "type": "int256"
        },
        {
          "internalType": "int256",
          "name": "longCenter",
          "type": "int256"
        },
        {
          "internalType": "uint256",
          "name": "yearOfCreation",
          "type": "uint256"
        },
        {
          "internalType": "string",
          "name": "email",
          "type": "string"
        },
        {
          "internalType": "enum AcroActors.ActorTypes",
          "name": "actorType",
          "type": "uint8"
        },
        {
          "internalType": "string",
          "name": "dateOfRegistration",
          "type": "string"
        },
        {
          "internalType": "uint256",
          "name": "vote_score",
          "type": "uint256"
        }
      ],
      "stateMutability": "view",
      "type": "function"
    },
    {
      "inputs": [
        {
          "internalType": "uint256",
          "name": "",
          "type": "uint256"
        }
      ],
      "name": "actors",
      "outputs": [
        {
          "internalType": "address",
          "name": "",
          "type": "address"
        }
      ],
      "stateMutability": "view",
      "type": "function"
    },
    {
      "inputs": [
        {
          "internalType": "address",
          "name": "addr",
          "type": "address"
        },
        {
          "components": [
            {
              "internalType": "bool",
              "name": "isRegistered",
              "type": "bool"
            },
            {
              "internalType": "bool",
              "name": "isValidated",
              "type": "bool"
            },
            {
              "internalType": "string",
              "name": "actorName",
              "type": "string"
            },
            {
              "internalType": "string",
              "name": "country",
              "type": "string"
            },
            {
              "internalType": "int256",
              "name": "latCenter",
              "type": "int256"
            },
            {
              "internalType": "int256",
              "name": "longCenter",
              "type": "int256"
            },
            {
              "internalType": "uint256",
              "name": "yearOfCreation",
              "type": "uint256"
            },
            {
              "internalType": "string",
              "name": "email",
              "type": "string"
            },
            {
              "internalType": "enum AcroActors.ActorTypes",
              "name": "actorType",
              "type": "uint8"
            },
            {
              "internalType": "string",
              "name": "dateOfRegistration",
              "type": "string"
            },
            {
              "internalType": "uint256",
              "name": "vote_score",
              "type": "uint256"
            }
          ],
          "internalType": "struct AcroActors.Actor",
          "name": "actor",
          "type": "tuple"
        }
      ],
      "name": "add_new_actor",
      "outputs": [],
      "stateMutability": "nonpayable",
      "type": "function"
    },
    {
      "inputs": [
        {
          "internalType": "address",
          "name": "addr",
          "type": "address"
        }
      ],
      "name": "is_validated_actor",
      "outputs": [
        {
          "internalType": "bool",
          "name": "",
          "type": "bool"
        }
      ],
      "stateMutability": "view",
      "type": "function"
    },
    {
      "inputs": [],
      "name": "get_actors_count",
      "outputs": [
        {
          "internalType": "uint256",
          "name": "",
          "type": "uint256"
        }
      ],
      "stateMutability": "view",
      "type": "function"
    },
    {
      "inputs": [],
      "name": "get_validated_actors_count",
      "outputs": [
        {
          "internalType": "uint256",
          "name": "",
          "type": "uint256"
        }
      ],
      "stateMutability": "view",
      "type": "function"
    },
    {
      "inputs": [
        {
          "internalType": "address",
          "name": "addr",
          "type": "address"
        }
      ],
      "name": "votingCoefficient",
      "outputs": [
        {
          "internalType": "uint256",
          "name": "",
          "type": "uint256"
        }
      ],
      "stateMutability": "view",
      "type": "function"
    },
    {
      "inputs": [
        {
          "internalType": "address",
          "name": "actor_address",
          "type": "address"
        }
      ],
      "name": "votingForActor",
      "outputs": [],
      "stateMutability": "nonpayable",
      "type": "function"
    }
  ],
  "bytecode": "0x60806040523480156200001157600080fd5b50604051620027d7380380620027d7833981810160405281019062000037919062000cac565b80600360006101000a81548173ffffffffffffffffffffffffffffffffffffffff021916908373ffffffffffffffffffffffffffffffffffffffff160217905550620001c8336040518061016001604052806001151581526020016001151581526020016040518060400160405280600a81526020017f4465637269205465616d0000000000000000000000000000000000000000000081525081526020016040518060400160405280600681526020017f4672616e63650000000000000000000000000000000000000000000000000000815250815260200160008152602001600081526020016107e581526020016040518060400160405280601681526020017f6a756c69656e2e637279707440676d61696c2e636f6d000000000000000000008152508152602001600060028111156200019d577f4e487b7100000000000000000000000000000000000000000000000000000000600052602160045260246000fd5b81526020016040518060200160405280600081525081526020016000815250620008ff60201b60201c565b6200032c7350bb734240c657d5da3eacf43195070b6effd70a6040518061016001604052806001151581526020016001151581526020016040518060400160405280600681526020017f4a756c69656e000000000000000000000000000000000000000000000000000081525081526020016040518060400160405280600681526020017f4672616e63650000000000000000000000000000000000000000000000000000815250815260200160008152602001600081526020016107e581526020016040518060400160405280601681526020017f6a756c69656e2e637279707440676d61696c2e636f6d0000000000000000000081525081526020016000600281111562000301577f4e487b7100000000000000000000000000000000000000000000000000000000600052602160045260246000fd5b81526020016040518060200160405280600081525081526020016000815250620008ff60201b60201c565b6200046a7341edf7a963c717867c57b2c5199b78452e7a99856040518061016001604052806001151581526020016001151581526020016040518060400160405280600781526020017f4465626f7261680000000000000000000000000000000000000000000000000081525081526020016040518060400160405280600681526020017f4672616e63650000000000000000000000000000000000000000000000000000815250815260200160008152602001600081526020016107e58152602001604051806020016040528060008152508152602001600060028111156200043f577f4e487b7100000000000000000000000000000000000000000000000000000000600052602160045260246000fd5b81526020016040518060200160405280600081525081526020016000815250620008ff60201b60201c565b620005a873e3648af1685c59fea0de947bf6f70d3db8c836816040518061016001604052806001151581526020016001151581526020016040518060400160405280600381526020017f4c656f000000000000000000000000000000000000000000000000000000000081525081526020016040518060400160405280600681526020017f4672616e63650000000000000000000000000000000000000000000000000000815250815260200160008152602001600081526020016107e58152602001604051806020016040528060008152508152602001600060028111156200057d577f4e487b7100000000000000000000000000000000000000000000000000000000600052602160045260246000fd5b81526020016040518060200160405280600081525081526020016000815250620008ff60201b60201c565b620006e6734b079e0d870b10c2eb64231f90fafb4d330938ce6040518061016001604052806001151581526020016001151581526020016040518060400160405280600781526020017f4d656c616e69650000000000000000000000000000000000000000000000000081525081526020016040518060400160405280600681526020017f4672616e63650000000000000000000000000000000000000000000000000000815250815260200160008152602001600081526020016107e5815260200160405180602001604052806000815250815260200160006002811115620006bb577f4e487b7100000000000000000000000000000000000000000000000000000000600052602160045260246000fd5b81526020016040518060200160405280600081525081526020016000815250620008ff60201b60201c565b60016000803373ffffffffffffffffffffffffffffffffffffffff1673ffffffffffffffffffffffffffffffffffffffff16815260200190815260200160002060000160016101000a81548160ff02191690831515021790555060016000807350bb734240c657d5da3eacf43195070b6effd70a73ffffffffffffffffffffffffffffffffffffffff1673ffffffffffffffffffffffffffffffffffffffff16815260200190815260200160002060000160016101000a81548160ff02191690831515021790555060016000807341edf7a963c717867c57b2c5199b78452e7a998573ffffffffffffffffffffffffffffffffffffffff1673ffffffffffffffffffffffffffffffffffffffff16815260200190815260200160002060000160016101000a81548160ff021916908315150217905550600160008073e3648af1685c59fea0de947bf6f70d3db8c8368173ffffffffffffffffffffffffffffffffffffffff1673ffffffffffffffffffffffffffffffffffffffff16815260200190815260200160002060000160016101000a81548160ff0219169083151502179055506001600080734b079e0d870b10c2eb64231f90fafb4d330938ce73ffffffffffffffffffffffffffffffffffffffff1673ffffffffffffffffffffffffffffffffffffffff16815260200190815260200160002060000160016101000a81548160ff0219169083151502179055505062000e42565b600015156000808473ffffffffffffffffffffffffffffffffffffffff1673ffffffffffffffffffffffffffffffffffffffff16815260200190815260200160002060000160009054906101000a900460ff1615151462000997576040517f08c379a00000000000000000000000000000000000000000000000000000000081526004016200098e9062000d48565b60405180910390fd5b60018160000190151590811515815250506000816020019015159081151581525050600081610140018181525050806000808473ffffffffffffffffffffffffffffffffffffffff1673ffffffffffffffffffffffffffffffffffffffff16815260200190815260200160002060008201518160000160006101000a81548160ff02191690831515021790555060208201518160000160016101000a81548160ff021916908315150217905550604082015181600101908051906020019062000a6292919062000be5565b50606082015181600201908051906020019062000a8192919062000be5565b506080820151816003015560a0820151816004015560c0820151816005015560e082015181600601908051906020019062000abe92919062000be5565b506101008201518160070160006101000a81548160ff0219169083600281111562000b12577f4e487b7100000000000000000000000000000000000000000000000000000000600052602160045260246000fd5b021790555061012082015181600801908051906020019062000b3692919062000be5565b5061014082015181600901559050506001829080600181540180825580915050600190039060005260206000200160009091909190916101000a81548173ffffffffffffffffffffffffffffffffffffffff021916908373ffffffffffffffffffffffffffffffffffffffff1602179055507f12efe77ebda8838bbe0dba7054e3659625da41a6d9281ff1c4b6e6b6f6db11c48260405162000bd9919062000d2b565b60405180910390a15050565b82805462000bf39062000dc3565b90600052602060002090601f01602090048101928262000c17576000855562000c63565b82601f1062000c3257805160ff191683800117855562000c63565b8280016001018555821562000c63579182015b8281111562000c6257825182559160200191906001019062000c45565b5b50905062000c72919062000c76565b5090565b5b8082111562000c9157600081600090555060010162000c77565b5090565b60008151905062000ca68162000e28565b92915050565b60006020828403121562000cbf57600080fd5b600062000ccf8482850162000c95565b91505092915050565b62000ce38162000d7b565b82525050565b600062000cf860188362000d6a565b91507f4163746f7220616c7265616479207265676973746572656400000000000000006000830152602082019050919050565b600060208201905062000d42600083018462000cd8565b92915050565b6000602082019050818103600083015262000d638162000ce9565b9050919050565b600082825260208201905092915050565b600062000d888262000da3565b9050919050565b600062000d9c8262000d7b565b9050919050565b600073ffffffffffffffffffffffffffffffffffffffff82169050919050565b6000600282049050600182168062000ddc57607f821691505b6020821081141562000df35762000df262000df9565b5b50919050565b7f4e487b7100000000000000000000000000000000000000000000000000000000600052602260045260246000fd5b62000e338162000d8f565b811462000e3f57600080fd5b50565b6119858062000e526000396000f3fe608060405234801561001057600080fd5b50600436106100885760003560e01c806393c0e83a1161005b57806393c0e83a146101135780639770c9e714610143578063ae9e8efc1461017d578063dddb25df146101ad57610088565b80634581ec201461008d5780634d571c0c146100a95780637960cc36146100c55780638ba75da8146100e3575b600080fd5b6100a760048036038101906100a29190611156565b6101cb565b005b6100c360048036038101906100be919061117f565b610674565b005b6100cd61094c565b6040516100da9190611586565b60405180910390f35b6100fd60048036038101906100f89190611156565b610a52565b60405161010a9190611404565b60405180910390f35b61012d600480360381019061012891906111d3565b610aaa565b60405161013a91906113e9565b60405180910390f35b61015d60048036038101906101589190611156565b610ae9565b6040516101749b9a9998979695949392919061141f565b60405180910390f35b61019760048036038101906101929190611156565b610d8a565b6040516101a49190611586565b60405180910390f35b6101b5610e58565b6040516101c29190611586565b60405180910390f35b600115156000803373ffffffffffffffffffffffffffffffffffffffff1673ffffffffffffffffffffffffffffffffffffffff16815260200190815260200160002060000160019054906101000a900460ff16151514610260576040517f08c379a000000000000000000000000000000000000000000000000000000000815260040161025790611526565b60405180910390fd5b600115156000808373ffffffffffffffffffffffffffffffffffffffff1673ffffffffffffffffffffffffffffffffffffffff16815260200190815260200160002060000160009054906101000a900460ff161515146102f5576040517f08c379a00000000000000000000000000000000000000000000000000000000081526004016102ec906114e6565b60405180910390fd5b8073ffffffffffffffffffffffffffffffffffffffff163373ffffffffffffffffffffffffffffffffffffffff161415610364576040517f08c379a000000000000000000000000000000000000000000000000000000000815260040161035b90611506565b60405180910390fd5b60001515600260003373ffffffffffffffffffffffffffffffffffffffff1673ffffffffffffffffffffffffffffffffffffffff16815260200190815260200160002060008373ffffffffffffffffffffffffffffffffffffffff1673ffffffffffffffffffffffffffffffffffffffff16815260200190815260200160002060009054906101000a900460ff16151514610434576040517f08c379a000000000000000000000000000000000000000000000000000000000815260040161042b90611566565b60405180910390fd5b600061043f33610d8a565b905080600161044e9190611674565b6000808473ffffffffffffffffffffffffffffffffffffffff1673ffffffffffffffffffffffffffffffffffffffff168152602001908152602001600020600901600082825461049e919061161e565b925050819055506001600260003373ffffffffffffffffffffffffffffffffffffffff1673ffffffffffffffffffffffffffffffffffffffff16815260200190815260200160002060008473ffffffffffffffffffffffffffffffffffffffff1673ffffffffffffffffffffffffffffffffffffffff16815260200190815260200160002060006101000a81548160ff0219169083151502179055507f06640b67015c37470a2bc2e00a76d594f6794fae0d12b9e206bc1bf369fe06768260405161056991906113e9565b60405180910390a1600061057b61094c565b905060508161058a9190611674565b60646000808673ffffffffffffffffffffffffffffffffffffffff1673ffffffffffffffffffffffffffffffffffffffff168152602001908152602001600020600901546105d89190611674565b1061066f5760016000808573ffffffffffffffffffffffffffffffffffffffff1673ffffffffffffffffffffffffffffffffffffffff16815260200190815260200160002060000160016101000a81548160ff0219169083151502179055507f88a4084bc23056c379de5cd2e44e47b519dae93a04ddc213b5547084ab2203e88360405161066691906113e9565b60405180910390a15b505050565b600015156000808473ffffffffffffffffffffffffffffffffffffffff1673ffffffffffffffffffffffffffffffffffffffff16815260200190815260200160002060000160009054906101000a900460ff16151514610709576040517f08c379a000000000000000000000000000000000000000000000000000000000815260040161070090611546565b60405180910390fd5b60018160000190151590811515815250506000816020019015159081151581525050600081610140018181525050806000808473ffffffffffffffffffffffffffffffffffffffff1673ffffffffffffffffffffffffffffffffffffffff16815260200190815260200160002060008201518160000160006101000a81548160ff02191690831515021790555060208201518160000160016101000a81548160ff02191690831515021790555060408201518160010190805190602001906107d2929190610e65565b5060608201518160020190805190602001906107ef929190610e65565b506080820151816003015560a0820151816004015560c0820151816005015560e082015181600601908051906020019061082a929190610e65565b506101008201518160070160006101000a81548160ff0219169083600281111561087d577f4e487b7100000000000000000000000000000000000000000000000000000000600052602160045260246000fd5b021790555061012082015181600801908051906020019061089f929190610e65565b5061014082015181600901559050506001829080600181540180825580915050600190039060005260206000200160009091909190916101000a81548173ffffffffffffffffffffffffffffffffffffffff021916908373ffffffffffffffffffffffffffffffffffffffff1602179055507f12efe77ebda8838bbe0dba7054e3659625da41a6d9281ff1c4b6e6b6f6db11c48260405161094091906113e9565b60405180910390a15050565b6000806000905060005b600180549050811015610a4a5760006001828154811061099f577f4e487b7100000000000000000000000000000000000000000000000000000000600052603260045260246000fd5b9060005260206000200160009054906101000a900473ffffffffffffffffffffffffffffffffffffffff169050600115156000808373ffffffffffffffffffffffffffffffffffffffff1673ffffffffffffffffffffffffffffffffffffffff16815260200190815260200160002060000160019054906101000a900460ff1615151415610a36578280610a32906117b9565b9350505b508080610a42906117b9565b915050610956565b508091505090565b60008060008373ffffffffffffffffffffffffffffffffffffffff1673ffffffffffffffffffffffffffffffffffffffff16815260200190815260200160002060000160019054906101000a900460ff169050919050565b60018181548110610aba57600080fd5b906000526020600020016000915054906101000a900473ffffffffffffffffffffffffffffffffffffffff1681565b60006020528060005260406000206000915090508060000160009054906101000a900460ff16908060000160019054906101000a900460ff1690806001018054610b3290611787565b80601f0160208091040260200160405190810160405280929190818152602001828054610b5e90611787565b8015610bab5780601f10610b8057610100808354040283529160200191610bab565b820191906000526020600020905b815481529060010190602001808311610b8e57829003601f168201915b505050505090806002018054610bc090611787565b80601f0160208091040260200160405190810160405280929190818152602001828054610bec90611787565b8015610c395780601f10610c0e57610100808354040283529160200191610c39565b820191906000526020600020905b815481529060010190602001808311610c1c57829003601f168201915b505050505090806003015490806004015490806005015490806006018054610c6090611787565b80601f0160208091040260200160405190810160405280929190818152602001828054610c8c90611787565b8015610cd95780601f10610cae57610100808354040283529160200191610cd9565b820191906000526020600020905b815481529060010190602001808311610cbc57829003601f168201915b5050505050908060070160009054906101000a900460ff1690806008018054610d0190611787565b80601f0160208091040260200160405190810160405280929190818152602001828054610d2d90611787565b8015610d7a5780601f10610d4f57610100808354040283529160200191610d7a565b820191906000526020600020905b815481529060010190602001808311610d5d57829003601f168201915b505050505090806009015490508b565b60008060009050678ac7230489e80000600360009054906101000a900473ffffffffffffffffffffffffffffffffffffffff1673ffffffffffffffffffffffffffffffffffffffff166357ce2caf856040518263ffffffff1660e01b8152600401610df591906113e9565b60206040518083038186803b158015610e0d57600080fd5b505afa158015610e21573d6000803e3d6000fd5b505050506040513d601f19601f82011682018060405250810190610e4591906111fc565b10610e4f57600190505b80915050919050565b6000600180549050905090565b828054610e7190611787565b90600052602060002090601f016020900481019282610e935760008555610eda565b82601f10610eac57805160ff1916838001178555610eda565b82800160010185558215610eda579182015b82811115610ed9578251825591602001919060010190610ebe565b5b509050610ee79190610eeb565b5090565b5b80821115610f04576000816000905550600101610eec565b5090565b6000610f1b610f16846115d2565b6115a1565b905082815260208101848484011115610f3357600080fd5b610f3e848285611745565b509392505050565b600081359050610f55816118e3565b92915050565b600081359050610f6a816118fa565b92915050565b600081359050610f7f81611911565b92915050565b600081359050610f9481611921565b92915050565b600082601f830112610fab57600080fd5b8135610fbb848260208601610f08565b91505092915050565b60006101608284031215610fd757600080fd5b610fe26101606115a1565b90506000610ff284828501610f5b565b600083015250602061100684828501610f5b565b602083015250604082013567ffffffffffffffff81111561102657600080fd5b61103284828501610f9a565b604083015250606082013567ffffffffffffffff81111561105257600080fd5b61105e84828501610f9a565b606083015250608061107284828501610f85565b60808301525060a061108684828501610f85565b60a08301525060c061109a8482850161112c565b60c08301525060e082013567ffffffffffffffff8111156110ba57600080fd5b6110c684828501610f9a565b60e0830152506101006110db84828501610f70565b6101008301525061012082013567ffffffffffffffff8111156110fd57600080fd5b61110984828501610f9a565b6101208301525061014061111f8482850161112c565b6101408301525092915050565b60008135905061113b81611938565b92915050565b60008151905061115081611938565b92915050565b60006020828403121561116857600080fd5b600061117684828501610f46565b91505092915050565b6000806040838503121561119257600080fd5b60006111a085828601610f46565b925050602083013567ffffffffffffffff8111156111bd57600080fd5b6111c985828601610fc4565b9150509250929050565b6000602082840312156111e557600080fd5b60006111f38482850161112c565b91505092915050565b60006020828403121561120e57600080fd5b600061121c84828501611141565b91505092915050565b61122e816116ce565b82525050565b61123d816116e0565b82525050565b61124c81611733565b82525050565b61125b816116ff565b82525050565b600061126c82611602565b611276818561160d565b9350611286818560208601611754565b61128f816118be565b840191505092915050565b60006112a7600d8361160d565b91507f556e6b6e6f776e206163746f72000000000000000000000000000000000000006000830152602082019050919050565b60006112e7601d8361160d565b91507f4163746f722063616e6e6f7420766f746520666f722068696d73656c660000006000830152602082019050919050565b600061132760178361160d565b91507f566f746572206d7573742062652076616c6964617465640000000000000000006000830152602082019050919050565b600061136760188361160d565b91507f4163746f7220616c7265616479207265676973746572656400000000000000006000830152602082019050919050565b60006113a7601a8361160d565b91507f416c7265616420766f746520666f722074686973206163746f720000000000006000830152602082019050919050565b6113e381611729565b82525050565b60006020820190506113fe6000830184611225565b92915050565b60006020820190506114196000830184611234565b92915050565b600061016082019050611435600083018e611234565b611442602083018d611234565b8181036040830152611454818c611261565b90508181036060830152611468818b611261565b9050611477608083018a611252565b61148460a0830189611252565b61149160c08301886113da565b81810360e08301526114a38187611261565b90506114b3610100830186611243565b8181036101208301526114c68185611261565b90506114d66101408301846113da565b9c9b505050505050505050505050565b600060208201905081810360008301526114ff8161129a565b9050919050565b6000602082019050818103600083015261151f816112da565b9050919050565b6000602082019050818103600083015261153f8161131a565b9050919050565b6000602082019050818103600083015261155f8161135a565b9050919050565b6000602082019050818103600083015261157f8161139a565b9050919050565b600060208201905061159b60008301846113da565b92915050565b6000604051905081810181811067ffffffffffffffff821117156115c8576115c761188f565b5b8060405250919050565b600067ffffffffffffffff8211156115ed576115ec61188f565b5b601f19601f8301169050602081019050919050565b600081519050919050565b600082825260208201905092915050565b600061162982611729565b915061163483611729565b9250827fffffffffffffffffffffffffffffffffffffffffffffffffffffffffffffffff0382111561166957611668611802565b5b828201905092915050565b600061167f82611729565b915061168a83611729565b9250817fffffffffffffffffffffffffffffffffffffffffffffffffffffffffffffffff04831182151516156116c3576116c2611802565b5b828202905092915050565b60006116d982611709565b9050919050565b60008115159050919050565b60008190506116fa826118cf565b919050565b6000819050919050565b600073ffffffffffffffffffffffffffffffffffffffff82169050919050565b6000819050919050565b600061173e826116ec565b9050919050565b82818337600083830152505050565b60005b83811015611772578082015181840152602081019050611757565b83811115611781576000848401525b50505050565b6000600282049050600182168061179f57607f821691505b602082108114156117b3576117b2611860565b5b50919050565b60006117c482611729565b91507fffffffffffffffffffffffffffffffffffffffffffffffffffffffffffffffff8214156117f7576117f6611802565b5b600182019050919050565b7f4e487b7100000000000000000000000000000000000000000000000000000000600052601160045260246000fd5b7f4e487b7100000000000000000000000000000000000000000000000000000000600052602160045260246000fd5b7f4e487b7100000000000000000000000000000000000000000000000000000000600052602260045260246000fd5b7f4e487b7100000000000000000000000000000000000000000000000000000000600052604160045260246000fd5b6000601f19601f8301169050919050565b600381106118e0576118df611831565b5b50565b6118ec816116ce565b81146118f757600080fd5b50565b611903816116e0565b811461190e57600080fd5b50565b6003811061191e57600080fd5b50565b61192a816116ff565b811461193557600080fd5b50565b61194181611729565b811461194c57600080fd5b5056fea26469706673582212204ef1a48db51f2051f401233c306d1f3785efac54f5155ebaf56d2f0850027a1b64736f6c63430008000033",
  "immutableReferences": {},
  "source": "// SPDX-License-Identifier: MIT\npragma solidity 0.8.0;\n\nimport \"./Acro.sol\";\n\n/** @title Dabase of self-registering actors */\ncontract AcroActors {\n\n   event ActorRegistered(address actorAddress);\n   event votedEvent(address actorAddress);\n   event ActorIsValided(address actorAddress);\n\n   enum ActorTypes { NGO, DIVING_CLUB, RESEARCHER }\n   \n   // TODO be cleaned and optimized //cf order of variables\n   struct Actor {\n      bool isRegistered;\n      bool isValidated;\n      string actorName;\n      string country; \n      int latCenter; //can be negative\n      int longCenter; //can be negative\n      uint yearOfCreation; // year of birth of NGO \n      string email;\n      ActorTypes actorType;\n      string dateOfRegistration;  \n      uint vote_score;\n   }\n\n   mapping(address => Actor) public RegisteredActors;\n   address[] public actors;\n   mapping(address => mapping(address => bool)) private already_vote;\n   Acro private acro_contract;\n\n   /// @dev Acro contract address is set on this contract during deployment\n   /// @param _acro_contract Acro contract address\n   constructor(Acro _acro_contract) {\n     acro_contract = _acro_contract;\n\n     add_new_actor(msg.sender, Actor({\n       isRegistered: true,\n       isValidated: true,\n       actorName: \"Decri Team\",\n       country: \"France\",\n       latCenter: 0,\n       longCenter: 0,\n       yearOfCreation: 2021,\n       email: \"julien.crypt@gmail.com\",\n       actorType: ActorTypes.NGO,\n       dateOfRegistration: \"\",\n       vote_score: 0}));\n\n     add_new_actor(0x50BB734240C657d5da3EacF43195070b6EFFD70a, Actor({\n       isRegistered: true,\n       isValidated: true,\n       actorName: \"Julien\",\n       country: \"France\",\n       latCenter: 0,\n       longCenter: 0,\n       yearOfCreation: 2021,\n       email: \"julien.crypt@gmail.com\",\n       actorType: ActorTypes.NGO,\n       dateOfRegistration: \"\",\n       vote_score: 0}));\n\n     add_new_actor(0x41edF7a963c717867C57b2c5199b78452E7a9985, Actor({\n       isRegistered: true,\n       isValidated: true,\n       actorName: \"Deborah\",\n       country: \"France\",\n       latCenter: 0,\n       longCenter: 0,\n       yearOfCreation: 2021,\n       email: \"\",\n       actorType: ActorTypes.NGO,\n       dateOfRegistration: \"\",\n       vote_score: 0}));\n\n     add_new_actor(0xE3648af1685C59FEA0DE947bF6f70d3dB8C83681, Actor({\n       isRegistered: true,\n       isValidated: true,\n       actorName: \"Leo\",\n       country: \"France\",\n       latCenter: 0,\n       longCenter: 0,\n       yearOfCreation: 2021,\n       email: \"\",\n       actorType: ActorTypes.NGO,\n       dateOfRegistration: \"\",\n       vote_score: 0}));\n\n     add_new_actor(0x4B079e0D870b10c2EB64231f90FAfB4D330938Ce, Actor({\n       isRegistered: true,\n       isValidated: true,\n       actorName: \"Melanie\",\n       country: \"France\",\n       latCenter: 0,\n       longCenter: 0,\n       yearOfCreation: 2021,\n       email: \"\",\n       actorType: ActorTypes.NGO,\n       dateOfRegistration: \"\",\n       vote_score: 0}));\n\n       RegisteredActors[msg.sender].isValidated = true;\n       RegisteredActors[0x50BB734240C657d5da3EacF43195070b6EFFD70a].isValidated = true;\n       RegisteredActors[0x41edF7a963c717867C57b2c5199b78452E7a9985].isValidated = true;\n       RegisteredActors[0xE3648af1685C59FEA0DE947bF6f70d3dB8C83681].isValidated = true;\n       RegisteredActors[0x4B079e0D870b10c2EB64231f90FAfB4D330938Ce].isValidated = true;\n   }\n\n   /**\n     * @dev Add a new actor to the database, anybody can add a new actor (one at once)\n     * requires that the address has not already been recorded\n     * @param addr Actor's wallet address\n     * @param actor Actor's informations\n     */\n   function add_new_actor(address addr, Actor memory actor) public {\n      require(RegisteredActors[addr].isRegistered==false,\"Actor already registered\");\n      actor.isRegistered = true;\n      actor.isValidated = false;\n      actor.vote_score = 0;\n      RegisteredActors[addr] = actor;\n      actors.push(addr);\n      emit ActorRegistered(addr);\n   }\n \n   /// @dev get if an actor is on the registered\n   /// @param addr actor'address\n   /// @return true or false\n   function is_validated_actor(address addr) external view returns (bool) {\n      return RegisteredActors[addr].isValidated;\n   }\n\n   /**\n     * @notice get registred actors array count\n     * @return actors count\n     */\n   function get_actors_count() external view returns (uint) {\n      return actors.length;\n   }\n\n  \n   /// @dev get the count of validated actors\n   /// the function is use in the function votingForActor\n   /// @return uint number of validated actors\n   function get_validated_actors_count() public view returns (uint){\n      uint validatedActorsCount = 0;\n      for (uint i = 0; i < actors.length; i++) {\n         address addr = actors[i];\n         if (RegisteredActors[addr].isValidated == true)\n         {\n            validatedActorsCount++;\n         }\n      }\n\n      return validatedActorsCount;\n   }\n  \n   //TO DO LATER: add a minimum delay of staking, i.e. at least a month\n   // Warning: amount to be decided\n\n   /// @dev Calculation of voting coefficient according to the actor'staking balance\n   /// this coefficient is used in the votingForActor function\n   /// @param addr actor'address\n   /// @return uint coefficient\n   function votingCoefficient(address addr) public view returns(uint)\n   {\n      uint coef = 0;\n\n      if (acro_contract.staking_balance(addr) >= 10000000000000000000)//10 acros \n      {\n         coef = 1;\n      }\n     \n      return uint(coef);\n   }\n\n   /// @dev Allows to vote for an actor. Only a validated actor can vote for another actor.\n   /// The voter cannot vote for a non-registered actor, he cannot vote for himself\n   /// The voter can vote only once for an actor.\n   /// An actor is automatically validated if its score is greater or equal to 80% of the voting actors\n   /// @param actor_address actor'address for who the voter wants to vote\n   function votingForActor(address actor_address) external { \n      require(RegisteredActors[msg.sender].isValidated == true,\"Voter must be validated\");\n      require(RegisteredActors[actor_address].isRegistered == true,\"Unknown actor\");\n      require(msg.sender != actor_address,\"Actor cannot vote for himself\");\n      require(already_vote[msg.sender][actor_address] == false,\"Alread vote for this actor\");\n\n      uint coef_vote = votingCoefficient(msg.sender);\n      //A voir car si zero il ne faudrait pas l'enregistrer sur already_vote\n      RegisteredActors[actor_address].vote_score += (1*coef_vote);\n\n      already_vote[msg.sender][actor_address] = true;\n      emit votedEvent(actor_address);\n\n      uint NbValidatedActors = get_validated_actors_count();\n      \n      if ((RegisteredActors[actor_address].vote_score*100) >= NbValidatedActors*80) {\n         RegisteredActors[actor_address].isValidated = true;\n         emit ActorIsValided(actor_address);\n      }\n   }\n}\n",
  "sourcePath": "/home/deva/decri/contracts/AcroActors.sol",
  "compiler": {
    "name": "solc",
    "version": "0.8.0+commit.c7dfd78e.Emscripten.clang"
  },
  "schemaVersion": "3.3.4",
  "updatedAt": "2021-04-22T05:37:17.483Z",
  "devdoc": {
    "kind": "dev",
    "methods": {
      "add_new_actor(address,(bool,bool,string,string,int256,int256,uint256,string,uint8,string,uint256))": {
        "details": "Add a new actor to the database, anybody can add a new actor (one at once) requires that the address has not already been recorded",
        "params": {
          "actor": "Actor's informations",
          "addr": "Actor's wallet address"
        }
      },
      "constructor": {
        "details": "Acro contract address is set on this contract during deployment",
        "params": {
          "_acro_contract": "Acro contract address"
        }
      },
      "get_actors_count()": {
        "returns": {
          "_0": "actors count"
        }
      },
      "get_validated_actors_count()": {
        "details": "get the count of validated actors the function is use in the function votingForActor",
        "returns": {
          "_0": "uint number of validated actors"
        }
      },
      "is_validated_actor(address)": {
        "details": "get if an actor is on the registered",
        "params": {
          "addr": "actor'address"
        },
        "returns": {
          "_0": "true or false"
        }
      },
      "votingCoefficient(address)": {
        "details": "Calculation of voting coefficient according to the actor'staking balance this coefficient is used in the votingForActor function",
        "params": {
          "addr": "actor'address"
        },
        "returns": {
          "_0": "uint coefficient"
        }
      },
      "votingForActor(address)": {
        "details": "Allows to vote for an actor. Only a validated actor can vote for another actor. The voter cannot vote for a non-registered actor, he cannot vote for himself The voter can vote only once for an actor. An actor is automatically validated if its score is greater or equal to 80% of the voting actors",
        "params": {
          "actor_address": "actor'address for who the voter wants to vote"
        }
      }
    },
    "title": "Dabase of self-registering actors ",
    "version": 1
  },
  "userdoc": {
    "kind": "user",
    "methods": {
      "get_actors_count()": {
        "notice": "get registred actors array count"
      }
    },
    "version": 1
  }
}