{
  "contractName": "Lagoon",
  "abi": [
    {
      "inputs": [
        {
          "internalType": "address",
          "name": "acro_contract_address",
          "type": "address"
        },
        {
          "internalType": "address",
          "name": "actors_contract_address",
          "type": "address"
        }
      ],
      "stateMutability": "nonpayable",
      "type": "constructor"
    },
    {
      "anonymous": false,
      "inputs": [
        {
          "indexed": true,
          "internalType": "address",
          "name": "account",
          "type": "address"
        },
        {
          "indexed": true,
          "internalType": "address",
          "name": "operator",
          "type": "address"
        },
        {
          "indexed": false,
          "internalType": "bool",
          "name": "approved",
          "type": "bool"
        }
      ],
      "name": "ApprovalForAll",
      "type": "event"
    },
    {
      "anonymous": false,
      "inputs": [
        {
          "indexed": true,
          "internalType": "address",
          "name": "operator",
          "type": "address"
        },
        {
          "indexed": true,
          "internalType": "address",
          "name": "from",
          "type": "address"
        },
        {
          "indexed": true,
          "internalType": "address",
          "name": "to",
          "type": "address"
        },
        {
          "indexed": false,
          "internalType": "uint256[]",
          "name": "ids",
          "type": "uint256[]"
        },
        {
          "indexed": false,
          "internalType": "uint256[]",
          "name": "values",
          "type": "uint256[]"
        }
      ],
      "name": "TransferBatch",
      "type": "event"
    },
    {
      "anonymous": false,
      "inputs": [
        {
          "indexed": true,
          "internalType": "address",
          "name": "operator",
          "type": "address"
        },
        {
          "indexed": true,
          "internalType": "address",
          "name": "from",
          "type": "address"
        },
        {
          "indexed": true,
          "internalType": "address",
          "name": "to",
          "type": "address"
        },
        {
          "indexed": false,
          "internalType": "uint256",
          "name": "id",
          "type": "uint256"
        },
        {
          "indexed": false,
          "internalType": "uint256",
          "name": "value",
          "type": "uint256"
        }
      ],
      "name": "TransferSingle",
      "type": "event"
    },
    {
      "anonymous": false,
      "inputs": [
        {
          "indexed": false,
          "internalType": "string",
          "name": "value",
          "type": "string"
        },
        {
          "indexed": true,
          "internalType": "uint256",
          "name": "id",
          "type": "uint256"
        }
      ],
      "name": "URI",
      "type": "event"
    },
    {
      "inputs": [
        {
          "internalType": "address",
          "name": "account",
          "type": "address"
        },
        {
          "internalType": "uint256",
          "name": "id",
          "type": "uint256"
        }
      ],
      "name": "balanceOf",
      "outputs": [
        {
          "internalType": "uint256",
          "name": "",
          "type": "uint256"
        }
      ],
      "stateMutability": "view",
      "type": "function",
      "constant": true
    },
    {
      "inputs": [
        {
          "internalType": "address[]",
          "name": "accounts",
          "type": "address[]"
        },
        {
          "internalType": "uint256[]",
          "name": "ids",
          "type": "uint256[]"
        }
      ],
      "name": "balanceOfBatch",
      "outputs": [
        {
          "internalType": "uint256[]",
          "name": "",
          "type": "uint256[]"
        }
      ],
      "stateMutability": "view",
      "type": "function",
      "constant": true
    },
    {
      "inputs": [
        {
          "internalType": "uint256",
          "name": "",
          "type": "uint256"
        },
        {
          "internalType": "uint256",
          "name": "",
          "type": "uint256"
        }
      ],
      "name": "game_items",
      "outputs": [
        {
          "internalType": "uint8",
          "name": "x",
          "type": "uint8"
        },
        {
          "internalType": "uint8",
          "name": "y",
          "type": "uint8"
        },
        {
          "internalType": "uint8",
          "name": "item_type",
          "type": "uint8"
        }
      ],
      "stateMutability": "view",
      "type": "function",
      "constant": true
    },
    {
      "inputs": [
        {
          "internalType": "address",
          "name": "account",
          "type": "address"
        },
        {
          "internalType": "address",
          "name": "operator",
          "type": "address"
        }
      ],
      "name": "isApprovedForAll",
      "outputs": [
        {
          "internalType": "bool",
          "name": "",
          "type": "bool"
        }
      ],
      "stateMutability": "view",
      "type": "function",
      "constant": true
    },
    {
      "inputs": [
        {
          "internalType": "uint256",
          "name": "",
          "type": "uint256"
        }
      ],
      "name": "lagoon_types",
      "outputs": [
        {
          "internalType": "enum Lagoon.LagoonType",
          "name": "",
          "type": "uint8"
        }
      ],
      "stateMutability": "view",
      "type": "function",
      "constant": true
    },
    {
      "inputs": [
        {
          "internalType": "uint256",
          "name": "",
          "type": "uint256"
        }
      ],
      "name": "linked_real_token_id",
      "outputs": [
        {
          "internalType": "uint256",
          "name": "",
          "type": "uint256"
        }
      ],
      "stateMutability": "view",
      "type": "function",
      "constant": true
    },
    {
      "inputs": [
        {
          "internalType": "address",
          "name": "from",
          "type": "address"
        },
        {
          "internalType": "address",
          "name": "to",
          "type": "address"
        },
        {
          "internalType": "uint256[]",
          "name": "ids",
          "type": "uint256[]"
        },
        {
          "internalType": "uint256[]",
          "name": "amounts",
          "type": "uint256[]"
        },
        {
          "internalType": "bytes",
          "name": "data",
          "type": "bytes"
        }
      ],
      "name": "safeBatchTransferFrom",
      "outputs": [],
      "stateMutability": "nonpayable",
      "type": "function"
    },
    {
      "inputs": [
        {
          "internalType": "address",
          "name": "from",
          "type": "address"
        },
        {
          "internalType": "address",
          "name": "to",
          "type": "address"
        },
        {
          "internalType": "uint256",
          "name": "id",
          "type": "uint256"
        },
        {
          "internalType": "uint256",
          "name": "amount",
          "type": "uint256"
        },
        {
          "internalType": "bytes",
          "name": "data",
          "type": "bytes"
        }
      ],
      "name": "safeTransferFrom",
      "outputs": [],
      "stateMutability": "nonpayable",
      "type": "function"
    },
    {
      "inputs": [
        {
          "internalType": "address",
          "name": "operator",
          "type": "address"
        },
        {
          "internalType": "bool",
          "name": "approved",
          "type": "bool"
        }
      ],
      "name": "setApprovalForAll",
      "outputs": [],
      "stateMutability": "nonpayable",
      "type": "function"
    },
    {
      "inputs": [
        {
          "internalType": "bytes4",
          "name": "interfaceId",
          "type": "bytes4"
        }
      ],
      "name": "supportsInterface",
      "outputs": [
        {
          "internalType": "bool",
          "name": "",
          "type": "bool"
        }
      ],
      "stateMutability": "view",
      "type": "function",
      "constant": true
    },
    {
      "inputs": [
        {
          "internalType": "uint256",
          "name": "token_id",
          "type": "uint256"
        }
      ],
      "name": "uri",
      "outputs": [
        {
          "internalType": "string",
          "name": "",
          "type": "string"
        }
      ],
      "stateMutability": "view",
      "type": "function",
      "constant": true
    },
    {
      "inputs": [
        {
          "internalType": "string",
          "name": "metadatas_url",
          "type": "string"
        }
      ],
      "name": "new_real_zone",
      "outputs": [],
      "stateMutability": "nonpayable",
      "type": "function"
    },
    {
      "inputs": [
        {
          "internalType": "uint256",
          "name": "token_id",
          "type": "uint256"
        },
        {
          "internalType": "string",
          "name": "metadatas_url",
          "type": "string"
        }
      ],
      "name": "update_real_zone",
      "outputs": [],
      "stateMutability": "nonpayable",
      "type": "function"
    },
    {
      "inputs": [],
      "name": "new_virtual_zone",
      "outputs": [
        {
          "internalType": "uint256",
          "name": "",
          "type": "uint256"
        }
      ],
      "stateMutability": "nonpayable",
      "type": "function"
    },
    {
      "inputs": [
        {
          "internalType": "uint256",
          "name": "real_token_id",
          "type": "uint256"
        },
        {
          "internalType": "uint256",
          "name": "virtual_token_id",
          "type": "uint256"
        }
      ],
      "name": "merge_tokens",
      "outputs": [],
      "stateMutability": "nonpayable",
      "type": "function"
    },
    {
      "inputs": [],
      "name": "get_tokens_count",
      "outputs": [
        {
          "internalType": "uint256",
          "name": "",
          "type": "uint256"
        }
      ],
      "stateMutability": "view",
      "type": "function",
      "constant": true
    },
    {
      "inputs": [
        {
          "internalType": "uint256",
          "name": "token_id",
          "type": "uint256"
        },
        {
          "components": [
            {
              "internalType": "uint8",
              "name": "x",
              "type": "uint8"
            },
            {
              "internalType": "uint8",
              "name": "y",
              "type": "uint8"
            },
            {
              "internalType": "uint8",
              "name": "item_type",
              "type": "uint8"
            }
          ],
          "internalType": "struct Lagoon.GameItem",
          "name": "item",
          "type": "tuple"
        }
      ],
      "name": "buy_and_put_game_item",
      "outputs": [],
      "stateMutability": "nonpayable",
      "type": "function"
    },
    {
      "inputs": [
        {
          "internalType": "uint256",
          "name": "token_id",
          "type": "uint256"
        }
      ],
      "name": "get_game_level",
      "outputs": [
        {
          "internalType": "uint256",
          "name": "",
          "type": "uint256"
        }
      ],
      "stateMutability": "view",
      "type": "function",
      "constant": true
    },
    {
      "inputs": [
        {
          "internalType": "uint256",
          "name": "token_id",
          "type": "uint256"
        }
      ],
      "name": "get_game_datas",
      "outputs": [
        {
          "internalType": "string",
          "name": "",
          "type": "string"
        }
      ],
      "stateMutability": "view",
      "type": "function",
      "constant": true
    }
  ],
  "bytecode": "0x60806040523480156200001157600080fd5b5060405162004e5f38038062004e5f8339818101604052810190620000379190620001c6565b604051806020016040528060008152506200005881620000e360201b60201c565b5081600360006101000a81548173ffffffffffffffffffffffffffffffffffffffff021916908373ffffffffffffffffffffffffffffffffffffffff16021790555080600460006101000a81548173ffffffffffffffffffffffffffffffffffffffff021916908373ffffffffffffffffffffffffffffffffffffffff1602179055505050620002ba565b8060029080519060200190620000fb929190620000ff565b5050565b8280546200010d906200023b565b90600052602060002090601f0160209004810192826200013157600085556200017d565b82601f106200014c57805160ff19168380011785556200017d565b828001600101855582156200017d579182015b828111156200017c5782518255916020019190600101906200015f565b5b5090506200018c919062000190565b5090565b5b80821115620001ab57600081600090555060010162000191565b5090565b600081519050620001c081620002a0565b92915050565b60008060408385031215620001da57600080fd5b6000620001ea85828601620001af565b9250506020620001fd85828601620001af565b9150509250929050565b600062000214826200021b565b9050919050565b600073ffffffffffffffffffffffffffffffffffffffff82169050919050565b600060028204905060018216806200025457607f821691505b602082108114156200026b576200026a62000271565b5b50919050565b7f4e487b7100000000000000000000000000000000000000000000000000000000600052602260045260246000fd5b620002ab8162000207565b8114620002b757600080fd5b50565b614b9580620002ca6000396000f3fe608060405234801561001057600080fd5b50600436106101205760003560e01c80632f666084116100ad578063a0ee96c111610071578063a0ee96c114610367578063a22cb46514610383578063d37a76c31461039f578063e985e9c5146103bb578063f242432a146103eb57610120565b80632f6660841461029d5780634e1273f4146102cd57806356b52989146102fd5780637de1f3b81461031b5780638e785d6b1461033757610120565b806321c21f66116100f457806321c21f66146101d3578063236c63641461020357806328cb81d2146102355780632d5f76f2146102515780632eb2c2d61461028157610120565b8062fdd58e1461012557806301ffc9a7146101555780630e89341c14610185578063185833d2146101b5575b600080fd5b61013f600480360381019061013a91906134c6565b610407565b60405161014c9190614514565b60405180910390f35b61016f600480360381019061016a9190613597565b6104d0565b60405161017c91906141bc565b60405180910390f35b61019f600480360381019061019a919061362a565b6105b2565b6040516101ac91906141f2565b60405180910390f35b6101bd610657565b6040516101ca9190614514565b60405180910390f35b6101ed60048036038101906101e8919061362a565b610702565b6040516101fa91906141f2565b60405180910390f35b61021d600480360381019061021891906136e3565b610e67565b60405161022c93929190614558565b60405180910390f35b61024f600480360381019061024a91906135e9565b610ed1565b005b61026b6004803603810190610266919061362a565b611090565b6040516102789190614514565b60405180910390f35b61029b6004803603810190610296919061333c565b6110a8565b005b6102b760048036038101906102b2919061362a565b61149e565b6040516102c491906141d7565b60405180910390f35b6102e760048036038101906102e29190613502565b6114be565b6040516102f49190614163565b60405180910390f35b61030561166f565b6040516103129190614514565b60405180910390f35b610335600480360381019061033091906136e3565b611680565b005b610351600480360381019061034c919061362a565b6119f7565b60405161035e9190614514565b60405180910390f35b610381600480360381019061037c91906136a7565b611b39565b005b61039d6004803603810190610398919061348a565b611e59565b005b6103b960048036038101906103b49190613653565b611fda565b005b6103d560048036038101906103d09190613300565b612218565b6040516103e291906141bc565b60405180910390f35b610405600480360381019061040091906133fb565b6122ac565b005b60008073ffffffffffffffffffffffffffffffffffffffff168373ffffffffffffffffffffffffffffffffffffffff161415610478576040517f08c379a000000000000000000000000000000000000000000000000000000000815260040161046f90614294565b60405180910390fd5b60008083815260200190815260200160002060008473ffffffffffffffffffffffffffffffffffffffff1673ffffffffffffffffffffffffffffffffffffffff16815260200190815260200160002054905092915050565b60007fd9b67a26000000000000000000000000000000000000000000000000000000007bffffffffffffffffffffffffffffffffffffffffffffffffffffffff1916827bffffffffffffffffffffffffffffffffffffffffffffffffffffffff1916148061059b57507f0e89341c000000000000000000000000000000000000000000000000000000007bffffffffffffffffffffffffffffffffffffffffffffffffffffffff1916827bffffffffffffffffffffffffffffffffffffffffffffffffffffffff1916145b806105ab57506105aa826125c4565b5b9050919050565b60606008600083815260200190815260200160002080546105d2906148cd565b80601f01602080910402602001604051908101604052809291908181526020018280546105fe906148cd565b801561064b5780601f106106205761010080835404028352916020019161064b565b820191906000526020600020905b81548152906001019060200180831161062e57829003601f168201915b50505050509050919050565b6000610663600561262e565b610688336106716005612644565b600160405180602001604052806000815250612652565b6000600660006106986005612644565b815260200190815260200160002060006101000a81548160ff021916908360028111156106ee577f4e487b7100000000000000000000000000000000000000000000000000000000600052602160045260246000fd5b02179055506106fd6005612644565b905090565b60608161070f6005612644565b811115610751576040517f08c379a000000000000000000000000000000000000000000000000000000000815260040161074890614334565b60405180910390fd5b6001600281111561078b577f4e487b7100000000000000000000000000000000000000000000000000000000600052602160045260246000fd5b6006600085815260200190815260200160002060009054906101000a900460ff1660028111156107e4577f4e487b7100000000000000000000000000000000000000000000000000000000600052602160045260246000fd5b1415610825576040517f08c379a000000000000000000000000000000000000000000000000000000000815260040161081c90614434565b60405180910390fd5b6000607967ffffffffffffffff811115610868577f4e487b7100000000000000000000000000000000000000000000000000000000600052604160045260246000fd5b6040519080825280601f01601f19166020018201604052801561089a5781602001600182028036833780820191505090505b50905060005b6079811015610945577f3000000000000000000000000000000000000000000000000000000000000000828281518110610903577f4e487b7100000000000000000000000000000000000000000000000000000000600052603260045260246000fd5b60200101907effffffffffffffffffffffffffffffffffffffffffffffffffffffffffffff1916908160001a905350808061093d906148ff565b9150506108a0565b5060005b6009600086815260200190815260200160002080549050811015610e5c57600b6009600087815260200190815260200160002082815481106109b4577f4e487b7100000000000000000000000000000000000000000000000000000000600052603260045260246000fd5b9060005260206000200160000160009054906101000a900460ff1660ff16108015610a475750600b600960008781526020019081526020016000208281548110610a27577f4e487b7100000000000000000000000000000000000000000000000000000000600052603260045260246000fd5b9060005260206000200160000160019054906101000a900460ff1660ff16105b610a86576040517f08c379a0000000000000000000000000000000000000000000000000000000008152600401610a7d90614454565b60405180910390fd5b6001600960008781526020019081526020016000208281548110610ad3577f4e487b7100000000000000000000000000000000000000000000000000000000600052603260045260246000fd5b9060005260206000200160000160029054906101000a900460ff1660ff161415610c69577f310000000000000000000000000000000000000000000000000000000000000082600b600960008981526020019081526020016000208481548110610b66577f4e487b7100000000000000000000000000000000000000000000000000000000600052603260045260246000fd5b9060005260206000200160000160019054906101000a900460ff16610b8b9190614776565b600960008981526020019081526020016000208481548110610bd6577f4e487b7100000000000000000000000000000000000000000000000000000000600052603260045260246000fd5b9060005260206000200160000160009054906101000a900460ff16610bfb919061473f565b60ff1681518110610c35577f4e487b7100000000000000000000000000000000000000000000000000000000600052603260045260246000fd5b60200101907effffffffffffffffffffffffffffffffffffffffffffffffffffffffffffff1916908160001a905350610e49565b6002600960008781526020019081526020016000208281548110610cb6577f4e487b7100000000000000000000000000000000000000000000000000000000600052603260045260246000fd5b9060005260206000200160000160029054906101000a900460ff1660ff161415610e48577f320000000000000000000000000000000000000000000000000000000000000082600b600960008981526020019081526020016000208481548110610d49577f4e487b7100000000000000000000000000000000000000000000000000000000600052603260045260246000fd5b9060005260206000200160000160019054906101000a900460ff16610d6e9190614776565b600960008981526020019081526020016000208481548110610db9577f4e487b7100000000000000000000000000000000000000000000000000000000600052603260045260246000fd5b9060005260206000200160000160009054906101000a900460ff16610dde919061473f565b60ff1681518110610e18577f4e487b7100000000000000000000000000000000000000000000000000000000600052603260045260246000fd5b60200101907effffffffffffffffffffffffffffffffffffffffffffffffffffffffffffff1916908160001a9053505b5b8080610e54906148ff565b915050610949565b508092505050919050565b60096020528160005260406000208181548110610e8357600080fd5b90600052602060002001600091509150508060000160009054906101000a900460ff16908060000160019054906101000a900460ff16908060000160029054906101000a900460ff16905083565b60011515600460009054906101000a900473ffffffffffffffffffffffffffffffffffffffff1673ffffffffffffffffffffffffffffffffffffffff16638ba75da8336040518263ffffffff1660e01b8152600401610f30919061404f565b60206040518083038186803b158015610f4857600080fd5b505afa158015610f5c573d6000803e3d6000fd5b505050506040513d601f19601f82011682018060405250810190610f80919061356e565b151514610fc2576040517f08c379a0000000000000000000000000000000000000000000000000000000008152600401610fb990614274565b60405180910390fd5b610fcc600561262e565b610ff133610fda6005612644565b606460405180602001604052806000815250612652565b80600860006110006005612644565b81526020019081526020016000209080519060200190611021929190612f6e565b506001600660006110326005612644565b815260200190815260200160002060006101000a81548160ff02191690836002811115611088577f4e487b7100000000000000000000000000000000000000000000000000000000600052602160045260246000fd5b021790555050565b60076020528060005260406000206000915090505481565b81518351146110ec576040517f08c379a00000000000000000000000000000000000000000000000000000000081526004016110e3906144d4565b60405180910390fd5b600073ffffffffffffffffffffffffffffffffffffffff168473ffffffffffffffffffffffffffffffffffffffff16141561115c576040517f08c379a000000000000000000000000000000000000000000000000000000000815260040161115390614354565b60405180910390fd5b6111646127e8565b73ffffffffffffffffffffffffffffffffffffffff168573ffffffffffffffffffffffffffffffffffffffff1614806111aa57506111a9856111a46127e8565b612218565b5b6111e9576040517f08c379a00000000000000000000000000000000000000000000000000000000081526004016111e090614374565b60405180910390fd5b60006111f36127e8565b90506112038187878787876127f0565b60005b845181101561140957600085828151811061124a577f4e487b7100000000000000000000000000000000000000000000000000000000600052603260045260246000fd5b60200260200101519050600085838151811061128f577f4e487b7100000000000000000000000000000000000000000000000000000000600052603260045260246000fd5b60200260200101519050600080600084815260200190815260200160002060008b73ffffffffffffffffffffffffffffffffffffffff1673ffffffffffffffffffffffffffffffffffffffff16815260200190815260200160002054905081811015611330576040517f08c379a0000000000000000000000000000000000000000000000000000000008152600401611327906143f4565b60405180910390fd5b818161133c91906147b1565b60008085815260200190815260200160002060008c73ffffffffffffffffffffffffffffffffffffffff1673ffffffffffffffffffffffffffffffffffffffff168152602001908152602001600020819055508160008085815260200190815260200160002060008b73ffffffffffffffffffffffffffffffffffffffff1673ffffffffffffffffffffffffffffffffffffffff16815260200190815260200160002060008282546113ee91906146e9565b9250508190555050505080611402906148ff565b9050611206565b508473ffffffffffffffffffffffffffffffffffffffff168673ffffffffffffffffffffffffffffffffffffffff168273ffffffffffffffffffffffffffffffffffffffff167f4a39dc06d4c0dbc64b70af90fd698a233a518aa5d07e595d983b8c0526c8f7fb8787604051611480929190614185565b60405180910390a46114968187878787876127f8565b505050505050565b60066020528060005260406000206000915054906101000a900460ff1681565b60608151835114611504576040517f08c379a00000000000000000000000000000000000000000000000000000000081526004016114fb906144b4565b60405180910390fd5b6000835167ffffffffffffffff811115611547577f4e487b7100000000000000000000000000000000000000000000000000000000600052604160045260246000fd5b6040519080825280602002602001820160405280156115755781602001602082028036833780820191505090505b50905060005b84518110156116645761160e8582815181106115c0577f4e487b7100000000000000000000000000000000000000000000000000000000600052603260045260246000fd5b6020026020010151858381518110611601577f4e487b7100000000000000000000000000000000000000000000000000000000600052603260045260246000fd5b6020026020010151610407565b828281518110611647577f4e487b7100000000000000000000000000000000000000000000000000000000600052603260045260246000fd5b6020026020010181815250508061165d906148ff565b905061157b565b508091505092915050565b600061167b6005612644565b905090565b8161168b6005612644565b8111156116cd576040517f08c379a00000000000000000000000000000000000000000000000000000000081526004016116c490614334565b60405180910390fd5b816116d86005612644565b81111561171a576040517f08c379a000000000000000000000000000000000000000000000000000000000815260040161171190614334565b60405180910390fd5b8260006117273383610407565b11611767576040517f08c379a000000000000000000000000000000000000000000000000000000000815260040161175e906143d4565b60405180910390fd5b600160028111156117a1577f4e487b7100000000000000000000000000000000000000000000000000000000600052602160045260246000fd5b6006600087815260200190815260200160002060009054906101000a900460ff1660028111156117fa577f4e487b7100000000000000000000000000000000000000000000000000000000600052602160045260246000fd5b1461183a576040517f08c379a0000000000000000000000000000000000000000000000000000000008152600401611831906142b4565b60405180910390fd5b60006002811115611874577f4e487b7100000000000000000000000000000000000000000000000000000000600052602160045260246000fd5b6006600086815260200190815260200160002060009054906101000a900460ff1660028111156118cd577f4e487b7100000000000000000000000000000000000000000000000000000000600052602160045260246000fd5b1461190d576040517f08c379a000000000000000000000000000000000000000000000000000000000815260040161190490614414565b60405180910390fd5b6004611918856119f7565b1015611959576040517f08c379a000000000000000000000000000000000000000000000000000000000815260040161195090614394565b60405180910390fd5b61196a67016345785d8a00006129c8565b61197633866001612a9f565b60026006600086815260200190815260200160002060006101000a81548160ff021916908360028111156119d3577f4e487b7100000000000000000000000000000000000000000000000000000000600052602160045260246000fd5b02179055508460076000868152602001908152602001600020819055505050505050565b600081611a046005612644565b811115611a46576040517f08c379a0000000000000000000000000000000000000000000000000000000008152600401611a3d90614334565b60405180910390fd5b60016002811115611a80577f4e487b7100000000000000000000000000000000000000000000000000000000600052602160045260246000fd5b6006600085815260200190815260200160002060009054906101000a900460ff166002811115611ad9577f4e487b7100000000000000000000000000000000000000000000000000000000600052602160045260246000fd5b1415611b1a576040517f08c379a0000000000000000000000000000000000000000000000000000000008152600401611b1190614434565b60405180910390fd5b6009600084815260200190815260200160002080549050915050919050565b81611b446005612644565b811115611b86576040517f08c379a0000000000000000000000000000000000000000000000000000000008152600401611b7d90614334565b60405180910390fd5b826000611b933383610407565b11611bd3576040517f08c379a0000000000000000000000000000000000000000000000000000000008152600401611bca906143d4565b60405180910390fd5b600b836000015160ff16108015611bf15750600b836020015160ff16105b8015611c0457506003836040015160ff16105b611c43576040517f08c379a0000000000000000000000000000000000000000000000000000000008152600401611c3a90614254565b60405180910390fd5b611c5467016345785d8a00006129c8565b60005b6009600086815260200190815260200160002080549050811015611db457836000015160ff16600960008781526020019081526020016000208281548110611cc8577f4e487b7100000000000000000000000000000000000000000000000000000000600052603260045260246000fd5b9060005260206000200160000160009054906101000a900460ff1660ff16148015611d615750836020015160ff16600960008781526020019081526020016000208281548110611d41577f4e487b7100000000000000000000000000000000000000000000000000000000600052603260045260246000fd5b9060005260206000200160000160019054906101000a900460ff1660ff16145b15611da1576040517f08c379a0000000000000000000000000000000000000000000000000000000008152600401611d98906142d4565b60405180910390fd5b8080611dac906148ff565b915050611c57565b5060096000858152602001908152602001600020839080600181540180825580915050600190039060005260206000200160009091909190915060008201518160000160006101000a81548160ff021916908360ff16021790555060208201518160000160016101000a81548160ff021916908360ff16021790555060408201518160000160026101000a81548160ff021916908360ff160217905550505050505050565b8173ffffffffffffffffffffffffffffffffffffffff16611e786127e8565b73ffffffffffffffffffffffffffffffffffffffff161415611ecf576040517f08c379a0000000000000000000000000000000000000000000000000000000008152600401611ec690614494565b60405180910390fd5b8060016000611edc6127e8565b73ffffffffffffffffffffffffffffffffffffffff1673ffffffffffffffffffffffffffffffffffffffff16815260200190815260200160002060008473ffffffffffffffffffffffffffffffffffffffff1673ffffffffffffffffffffffffffffffffffffffff16815260200190815260200160002060006101000a81548160ff0219169083151502179055508173ffffffffffffffffffffffffffffffffffffffff16611f896127e8565b73ffffffffffffffffffffffffffffffffffffffff167f17307eab39ab6107e8899845ad3d59bd9653f200f220920489ca2b5937696c3183604051611fce91906141bc565b60405180910390a35050565b60011515600460009054906101000a900473ffffffffffffffffffffffffffffffffffffffff1673ffffffffffffffffffffffffffffffffffffffff16638ba75da8336040518263ffffffff1660e01b8152600401612039919061404f565b60206040518083038186803b15801561205157600080fd5b505afa158015612065573d6000803e3d6000fd5b505050506040513d601f19601f82011682018060405250810190612089919061356e565b1515146120cb576040517f08c379a00000000000000000000000000000000000000000000000000000000081526004016120c290614274565b60405180910390fd5b816120d66005612644565b811115612118576040517f08c379a000000000000000000000000000000000000000000000000000000000815260040161210f90614334565b60405180910390fd5b60016002811115612152577f4e487b7100000000000000000000000000000000000000000000000000000000600052602160045260246000fd5b6006600085815260200190815260200160002060009054906101000a900460ff1660028111156121ab577f4e487b7100000000000000000000000000000000000000000000000000000000600052602160045260246000fd5b146121eb576040517f08c379a00000000000000000000000000000000000000000000000000000000081526004016121e290614474565b60405180910390fd5b81600860008581526020019081526020016000209080519060200190612212929190612f6e565b50505050565b6000600160008473ffffffffffffffffffffffffffffffffffffffff1673ffffffffffffffffffffffffffffffffffffffff16815260200190815260200160002060008373ffffffffffffffffffffffffffffffffffffffff1673ffffffffffffffffffffffffffffffffffffffff16815260200190815260200160002060009054906101000a900460ff16905092915050565b600073ffffffffffffffffffffffffffffffffffffffff168473ffffffffffffffffffffffffffffffffffffffff16141561231c576040517f08c379a000000000000000000000000000000000000000000000000000000000815260040161231390614354565b60405180910390fd5b6123246127e8565b73ffffffffffffffffffffffffffffffffffffffff168573ffffffffffffffffffffffffffffffffffffffff16148061236a5750612369856123646127e8565b612218565b5b6123a9576040517f08c379a00000000000000000000000000000000000000000000000000000000081526004016123a090614314565b60405180910390fd5b60006123b36127e8565b90506123d38187876123c488612cc5565b6123cd88612cc5565b876127f0565b600080600086815260200190815260200160002060008873ffffffffffffffffffffffffffffffffffffffff1673ffffffffffffffffffffffffffffffffffffffff1681526020019081526020016000205490508381101561246a576040517f08c379a0000000000000000000000000000000000000000000000000000000008152600401612461906143f4565b60405180910390fd5b838161247691906147b1565b60008087815260200190815260200160002060008973ffffffffffffffffffffffffffffffffffffffff1673ffffffffffffffffffffffffffffffffffffffff168152602001908152602001600020819055508360008087815260200190815260200160002060008873ffffffffffffffffffffffffffffffffffffffff1673ffffffffffffffffffffffffffffffffffffffff168152602001908152602001600020600082825461252891906146e9565b925050819055508573ffffffffffffffffffffffffffffffffffffffff168773ffffffffffffffffffffffffffffffffffffffff168373ffffffffffffffffffffffffffffffffffffffff167fc3d58168c5ae7397731d063d5bbf3d657854427343f4c083240f7aacaa2d0f6288886040516125a592919061452f565b60405180910390a46125bb828888888888612d8b565b50505050505050565b60007f01ffc9a7000000000000000000000000000000000000000000000000000000007bffffffffffffffffffffffffffffffffffffffffffffffffffffffff1916827bffffffffffffffffffffffffffffffffffffffffffffffffffffffff1916149050919050565b6001816000016000828254019250508190555050565b600081600001549050919050565b600073ffffffffffffffffffffffffffffffffffffffff168473ffffffffffffffffffffffffffffffffffffffff1614156126c2576040517f08c379a00000000000000000000000000000000000000000000000000000000081526004016126b9906144f4565b60405180910390fd5b60006126cc6127e8565b90506126ed816000876126de88612cc5565b6126e788612cc5565b876127f0565b8260008086815260200190815260200160002060008773ffffffffffffffffffffffffffffffffffffffff1673ffffffffffffffffffffffffffffffffffffffff168152602001908152602001600020600082825461274c91906146e9565b925050819055508473ffffffffffffffffffffffffffffffffffffffff16600073ffffffffffffffffffffffffffffffffffffffff168273ffffffffffffffffffffffffffffffffffffffff167fc3d58168c5ae7397731d063d5bbf3d657854427343f4c083240f7aacaa2d0f6287876040516127ca92919061452f565b60405180910390a46127e181600087878787612d8b565b5050505050565b600033905090565b505050505050565b6128178473ffffffffffffffffffffffffffffffffffffffff16612f5b565b156129c0578373ffffffffffffffffffffffffffffffffffffffff1663bc197c8187878686866040518663ffffffff1660e01b815260040161285d95949392919061406a565b602060405180830381600087803b15801561287757600080fd5b505af19250505080156128a857506040513d601f19601f820116820180604052508101906128a591906135c0565b60015b612937576128b4614a22565b806128bf57506128fc565b806040517f08c379a00000000000000000000000000000000000000000000000000000000081526004016128f391906141f2565b60405180910390fd5b6040517f08c379a000000000000000000000000000000000000000000000000000000000815260040161292e90614214565b60405180910390fd5b63bc197c8160e01b7bffffffffffffffffffffffffffffffffffffffffffffffffffffffff1916817bffffffffffffffffffffffffffffffffffffffffffffffffffffffff1916146129be576040517f08c379a00000000000000000000000000000000000000000000000000000000081526004016129b590614234565b60405180910390fd5b505b505050505050565b600360009054906101000a900473ffffffffffffffffffffffffffffffffffffffff1673ffffffffffffffffffffffffffffffffffffffff166323b872dd33600360009054906101000a900473ffffffffffffffffffffffffffffffffffffffff16846040518463ffffffff1660e01b8152600401612a49939291906140d2565b602060405180830381600087803b158015612a6357600080fd5b505af1158015612a77573d6000803e3d6000fd5b505050506040513d601f19601f82011682018060405250810190612a9b919061356e565b5050565b600073ffffffffffffffffffffffffffffffffffffffff168373ffffffffffffffffffffffffffffffffffffffff161415612b0f576040517f08c379a0000000000000000000000000000000000000000000000000000000008152600401612b06906143b4565b60405180910390fd5b6000612b196127e8565b9050612b4981856000612b2b87612cc5565b612b3487612cc5565b604051806020016040528060008152506127f0565b600080600085815260200190815260200160002060008673ffffffffffffffffffffffffffffffffffffffff1673ffffffffffffffffffffffffffffffffffffffff16815260200190815260200160002054905082811015612be0576040517f08c379a0000000000000000000000000000000000000000000000000000000008152600401612bd7906142f4565b60405180910390fd5b8281612bec91906147b1565b60008086815260200190815260200160002060008773ffffffffffffffffffffffffffffffffffffffff1673ffffffffffffffffffffffffffffffffffffffff16815260200190815260200160002081905550600073ffffffffffffffffffffffffffffffffffffffff168573ffffffffffffffffffffffffffffffffffffffff168373ffffffffffffffffffffffffffffffffffffffff167fc3d58168c5ae7397731d063d5bbf3d657854427343f4c083240f7aacaa2d0f628787604051612cb692919061452f565b60405180910390a45050505050565b60606000600167ffffffffffffffff811115612d0a577f4e487b7100000000000000000000000000000000000000000000000000000000600052604160045260246000fd5b604051908082528060200260200182016040528015612d385781602001602082028036833780820191505090505b5090508281600081518110612d76577f4e487b7100000000000000000000000000000000000000000000000000000000600052603260045260246000fd5b60200260200101818152505080915050919050565b612daa8473ffffffffffffffffffffffffffffffffffffffff16612f5b565b15612f53578373ffffffffffffffffffffffffffffffffffffffff1663f23a6e6187878686866040518663ffffffff1660e01b8152600401612df0959493929190614109565b602060405180830381600087803b158015612e0a57600080fd5b505af1925050508015612e3b57506040513d601f19601f82011682018060405250810190612e3891906135c0565b60015b612eca57612e47614a22565b80612e525750612e8f565b806040517f08c379a0000000000000000000000000000000000000000000000000000000008152600401612e8691906141f2565b60405180910390fd5b6040517f08c379a0000000000000000000000000000000000000000000000000000000008152600401612ec190614214565b60405180910390fd5b63f23a6e6160e01b7bffffffffffffffffffffffffffffffffffffffffffffffffffffffff1916817bffffffffffffffffffffffffffffffffffffffffffffffffffffffff191614612f51576040517f08c379a0000000000000000000000000000000000000000000000000000000008152600401612f4890614234565b60405180910390fd5b505b505050505050565b600080823b905060008111915050919050565b828054612f7a906148cd565b90600052602060002090601f016020900481019282612f9c5760008555612fe3565b82601f10612fb557805160ff1916838001178555612fe3565b82800160010185558215612fe3579182015b82811115612fe2578251825591602001919060010190612fc7565b5b509050612ff09190612ff4565b5090565b5b8082111561300d576000816000905550600101612ff5565b5090565b600061302461301f846145c0565b61458f565b9050808382526020820190508285602086028201111561304357600080fd5b60005b8581101561307357816130598882613165565b845260208401935060208301925050600181019050613046565b5050509392505050565b600061309061308b846145ec565b61458f565b905080838252602082019050828560208602820111156130af57600080fd5b60005b858110156130df57816130c588826132d6565b8452602084019350602083019250506001810190506130b2565b5050509392505050565b60006130fc6130f784614618565b61458f565b90508281526020810184848401111561311457600080fd5b61311f84828561488b565b509392505050565b600061313a61313584614648565b61458f565b90508281526020810184848401111561315257600080fd5b61315d84828561488b565b509392505050565b60008135905061317481614aec565b92915050565b600082601f83011261318b57600080fd5b813561319b848260208601613011565b91505092915050565b600082601f8301126131b557600080fd5b81356131c584826020860161307d565b91505092915050565b6000813590506131dd81614b03565b92915050565b6000815190506131f281614b03565b92915050565b60008135905061320781614b1a565b92915050565b60008151905061321c81614b1a565b92915050565b600082601f83011261323357600080fd5b81356132438482602086016130e9565b91505092915050565b600082601f83011261325d57600080fd5b813561326d848260208601613127565b91505092915050565b60006060828403121561328857600080fd5b613292606061458f565b905060006132a2848285016132eb565b60008301525060206132b6848285016132eb565b60208301525060406132ca848285016132eb565b60408301525092915050565b6000813590506132e581614b31565b92915050565b6000813590506132fa81614b48565b92915050565b6000806040838503121561331357600080fd5b600061332185828601613165565b925050602061333285828601613165565b9150509250929050565b600080600080600060a0868803121561335457600080fd5b600061336288828901613165565b955050602061337388828901613165565b945050604086013567ffffffffffffffff81111561339057600080fd5b61339c888289016131a4565b935050606086013567ffffffffffffffff8111156133b957600080fd5b6133c5888289016131a4565b925050608086013567ffffffffffffffff8111156133e257600080fd5b6133ee88828901613222565b9150509295509295909350565b600080600080600060a0868803121561341357600080fd5b600061342188828901613165565b955050602061343288828901613165565b9450506040613443888289016132d6565b9350506060613454888289016132d6565b925050608086013567ffffffffffffffff81111561347157600080fd5b61347d88828901613222565b9150509295509295909350565b6000806040838503121561349d57600080fd5b60006134ab85828601613165565b92505060206134bc858286016131ce565b9150509250929050565b600080604083850312156134d957600080fd5b60006134e785828601613165565b92505060206134f8858286016132d6565b9150509250929050565b6000806040838503121561351557600080fd5b600083013567ffffffffffffffff81111561352f57600080fd5b61353b8582860161317a565b925050602083013567ffffffffffffffff81111561355857600080fd5b613564858286016131a4565b9150509250929050565b60006020828403121561358057600080fd5b600061358e848285016131e3565b91505092915050565b6000602082840312156135a957600080fd5b60006135b7848285016131f8565b91505092915050565b6000602082840312156135d257600080fd5b60006135e08482850161320d565b91505092915050565b6000602082840312156135fb57600080fd5b600082013567ffffffffffffffff81111561361557600080fd5b6136218482850161324c565b91505092915050565b60006020828403121561363c57600080fd5b600061364a848285016132d6565b91505092915050565b6000806040838503121561366657600080fd5b6000613674858286016132d6565b925050602083013567ffffffffffffffff81111561369157600080fd5b61369d8582860161324c565b9150509250929050565b600080608083850312156136ba57600080fd5b60006136c8858286016132d6565b92505060206136d985828601613276565b9150509250929050565b600080604083850312156136f657600080fd5b6000613704858286016132d6565b9250506020613715858286016132d6565b9150509250929050565b600061372b8383614022565b60208301905092915050565b613740816147e5565b82525050565b600061375182614688565b61375b81856146b6565b935061376683614678565b8060005b8381101561379757815161377e888261371f565b9750613789836146a9565b92505060018101905061376a565b5085935050505092915050565b6137ad816147f7565b82525050565b60006137be82614693565b6137c881856146c7565b93506137d881856020860161489a565b6137e181614a04565b840191505092915050565b6137f581614879565b82525050565b60006138068261469e565b61381081856146d8565b935061382081856020860161489a565b61382981614a04565b840191505092915050565b60006138416034836146d8565b91507f455243313135353a207472616e7366657220746f206e6f6e204552433131353560008301527f526563656976657220696d706c656d656e7465720000000000000000000000006020830152604082019050919050565b60006138a76028836146d8565b91507f455243313135353a204552433131353552656365697665722072656a6563746560008301527f6420746f6b656e730000000000000000000000000000000000000000000000006020830152604082019050919050565b600061390d6018836146d8565b91507f496e76616c696420782c79206f72206974656d5f7479706500000000000000006000830152602082019050919050565b600061394d6012836146d8565b91507f4e6f74207665726966696564204163746f7200000000000000000000000000006000830152602082019050919050565b600061398d602b836146d8565b91507f455243313135353a2062616c616e636520717565727920666f7220746865207a60008301527f65726f20616464726573730000000000000000000000000000000000000000006020830152604082019050919050565b60006139f3600f836146d8565b91507f4e6f74207265616c206c61676f6f6e00000000000000000000000000000000006000830152602082019050919050565b6000613a336012836146d8565b91507f4672656520736c6f7420726571756972656400000000000000000000000000006000830152602082019050919050565b6000613a736024836146d8565b91507f455243313135353a206275726e20616d6f756e7420657863656564732062616c60008301527f616e6365000000000000000000000000000000000000000000000000000000006020830152604082019050919050565b6000613ad96029836146d8565b91507f455243313135353a2063616c6c6572206973206e6f74206f776e6572206e6f7260008301527f20617070726f76656400000000000000000000000000000000000000000000006020830152604082019050919050565b6000613b3f6014836146d8565b91507f546f6b656e20646f6573206e6f742065786973740000000000000000000000006000830152602082019050919050565b6000613b7f6025836146d8565b91507f455243313135353a207472616e7366657220746f20746865207a65726f20616460008301527f64726573730000000000000000000000000000000000000000000000000000006020830152604082019050919050565b6000613be56032836146d8565b91507f455243313135353a207472616e736665722063616c6c6572206973206e6f742060008301527f6f776e6572206e6f7220617070726f76656400000000000000000000000000006020830152604082019050919050565b6000613c4b6017836146d8565b91507f696e73756666696369656e742067616d65206c6576656c0000000000000000006000830152602082019050919050565b6000613c8b6023836146d8565b91507f455243313135353a206275726e2066726f6d20746865207a65726f206164647260008301527f65737300000000000000000000000000000000000000000000000000000000006020830152604082019050919050565b6000613cf16016836146d8565b91507f54686973206973206e6f7420796f757220746f6b656e000000000000000000006000830152602082019050919050565b6000613d31602a836146d8565b91507f455243313135353a20696e73756666696369656e742062616c616e636520666f60008301527f72207472616e73666572000000000000000000000000000000000000000000006020830152604082019050919050565b6000613d976012836146d8565b91507f4e6f74207669727475616c206c61676f6f6e00000000000000000000000000006000830152602082019050919050565b6000613dd7601c836146d8565b91507f6f6e6c79206170706c69657320746f207669727475616c2f626f7468000000006000830152602082019050919050565b6000613e17600e836146d8565b91507f496e7465726e616c206572726f720000000000000000000000000000000000006000830152602082019050919050565b6000613e576014836146d8565b91507f6f6e6c79206170706c69657320746f207265616c0000000000000000000000006000830152602082019050919050565b6000613e976029836146d8565b91507f455243313135353a2073657474696e6720617070726f76616c2073746174757360008301527f20666f722073656c6600000000000000000000000000000000000000000000006020830152604082019050919050565b6000613efd6029836146d8565b91507f455243313135353a206163636f756e747320616e6420696473206c656e67746860008301527f206d69736d6174636800000000000000000000000000000000000000000000006020830152604082019050919050565b6000613f636028836146d8565b91507f455243313135353a2069647320616e6420616d6f756e7473206c656e6774682060008301527f6d69736d617463680000000000000000000000000000000000000000000000006020830152604082019050919050565b6000613fc96021836146d8565b91507f455243313135353a206d696e7420746f20746865207a65726f2061646472657360008301527f73000000000000000000000000000000000000000000000000000000000000006020830152604082019050919050565b61402b81614862565b82525050565b61403a81614862565b82525050565b6140498161486c565b82525050565b60006020820190506140646000830184613737565b92915050565b600060a08201905061407f6000830188613737565b61408c6020830187613737565b818103604083015261409e8186613746565b905081810360608301526140b28185613746565b905081810360808301526140c681846137b3565b90509695505050505050565b60006060820190506140e76000830186613737565b6140f46020830185613737565b6141016040830184614031565b949350505050565b600060a08201905061411e6000830188613737565b61412b6020830187613737565b6141386040830186614031565b6141456060830185614031565b818103608083015261415781846137b3565b90509695505050505050565b6000602082019050818103600083015261417d8184613746565b905092915050565b6000604082019050818103600083015261419f8185613746565b905081810360208301526141b38184613746565b90509392505050565b60006020820190506141d160008301846137a4565b92915050565b60006020820190506141ec60008301846137ec565b92915050565b6000602082019050818103600083015261420c81846137fb565b905092915050565b6000602082019050818103600083015261422d81613834565b9050919050565b6000602082019050818103600083015261424d8161389a565b9050919050565b6000602082019050818103600083015261426d81613900565b9050919050565b6000602082019050818103600083015261428d81613940565b9050919050565b600060208201905081810360008301526142ad81613980565b9050919050565b600060208201905081810360008301526142cd816139e6565b9050919050565b600060208201905081810360008301526142ed81613a26565b9050919050565b6000602082019050818103600083015261430d81613a66565b9050919050565b6000602082019050818103600083015261432d81613acc565b9050919050565b6000602082019050818103600083015261434d81613b32565b9050919050565b6000602082019050818103600083015261436d81613b72565b9050919050565b6000602082019050818103600083015261438d81613bd8565b9050919050565b600060208201905081810360008301526143ad81613c3e565b9050919050565b600060208201905081810360008301526143cd81613c7e565b9050919050565b600060208201905081810360008301526143ed81613ce4565b9050919050565b6000602082019050818103600083015261440d81613d24565b9050919050565b6000602082019050818103600083015261442d81613d8a565b9050919050565b6000602082019050818103600083015261444d81613dca565b9050919050565b6000602082019050818103600083015261446d81613e0a565b9050919050565b6000602082019050818103600083015261448d81613e4a565b9050919050565b600060208201905081810360008301526144ad81613e8a565b9050919050565b600060208201905081810360008301526144cd81613ef0565b9050919050565b600060208201905081810360008301526144ed81613f56565b9050919050565b6000602082019050818103600083015261450d81613fbc565b9050919050565b60006020820190506145296000830184614031565b92915050565b60006040820190506145446000830185614031565b6145516020830184614031565b9392505050565b600060608201905061456d6000830186614040565b61457a6020830185614040565b6145876040830184614040565b949350505050565b6000604051905081810181811067ffffffffffffffff821117156145b6576145b56149d5565b5b8060405250919050565b600067ffffffffffffffff8211156145db576145da6149d5565b5b602082029050602081019050919050565b600067ffffffffffffffff821115614607576146066149d5565b5b602082029050602081019050919050565b600067ffffffffffffffff821115614633576146326149d5565b5b601f19601f8301169050602081019050919050565b600067ffffffffffffffff821115614663576146626149d5565b5b601f19601f8301169050602081019050919050565b6000819050602082019050919050565b600081519050919050565b600081519050919050565b600081519050919050565b6000602082019050919050565b600082825260208201905092915050565b600082825260208201905092915050565b600082825260208201905092915050565b60006146f482614862565b91506146ff83614862565b9250827fffffffffffffffffffffffffffffffffffffffffffffffffffffffffffffffff0382111561473457614733614948565b5b828201905092915050565b600061474a8261486c565b91506147558361486c565b92508260ff0382111561476b5761476a614948565b5b828201905092915050565b60006147818261486c565b915061478c8361486c565b92508160ff04831182151516156147a6576147a5614948565b5b828202905092915050565b60006147bc82614862565b91506147c783614862565b9250828210156147da576147d9614948565b5b828203905092915050565b60006147f082614842565b9050919050565b60008115159050919050565b60007fffffffff0000000000000000000000000000000000000000000000000000000082169050919050565b600081905061483d82614ad8565b919050565b600073ffffffffffffffffffffffffffffffffffffffff82169050919050565b6000819050919050565b600060ff82169050919050565b60006148848261482f565b9050919050565b82818337600083830152505050565b60005b838110156148b857808201518184015260208101905061489d565b838111156148c7576000848401525b50505050565b600060028204905060018216806148e557607f821691505b602082108114156148f9576148f86149a6565b5b50919050565b600061490a82614862565b91507fffffffffffffffffffffffffffffffffffffffffffffffffffffffffffffffff82141561493d5761493c614948565b5b600182019050919050565b7f4e487b7100000000000000000000000000000000000000000000000000000000600052601160045260246000fd5b7f4e487b7100000000000000000000000000000000000000000000000000000000600052602160045260246000fd5b7f4e487b7100000000000000000000000000000000000000000000000000000000600052602260045260246000fd5b7f4e487b7100000000000000000000000000000000000000000000000000000000600052604160045260246000fd5b6000601f19601f8301169050919050565b60008160e01c9050919050565b600060443d1015614a3257614ad5565b60046000803e614a43600051614a15565b6308c379a08114614a545750614ad5565b60405160043d036004823e80513d602482011167ffffffffffffffff82111715614a8057505050614ad5565b808201805167ffffffffffffffff811115614a9f575050505050614ad5565b8060208301013d8501811115614aba57505050505050614ad5565b614ac382614a04565b60208401016040528296505050505050505b90565b60038110614ae957614ae8614977565b5b50565b614af5816147e5565b8114614b0057600080fd5b50565b614b0c816147f7565b8114614b1757600080fd5b50565b614b2381614803565b8114614b2e57600080fd5b50565b614b3a81614862565b8114614b4557600080fd5b50565b614b518161486c565b8114614b5c57600080fd5b5056fea264697066735822122022600f23d9ae2db2a01aef091c6d922007f0fad4187e90a2a01b0edbc33b06ed64736f6c63430008000033",
  "immutableReferences": {},
  "source": "// SPDX-License-Identifier: MIT\npragma solidity 0.8.0;\n\nimport \"@openzeppelin/contracts/token/ERC1155/ERC1155.sol\";\nimport \"@openzeppelin/contracts/utils/Counters.sol\";\nimport \"./Acro.sol\";\nimport \"./AcroActors.sol\";\n\n/** @title Lagoon Token */\ncontract Lagoon is ERC1155 {\n   struct GameItem {\n      uint8 x;\n      uint8 y;\n      uint8 item_type;\n   }\n\n   enum LagoonType { VIRTUAL, REAL, BOTH }\n\n   Acro acro_contract;\n   AcroActors actors_contract;\n\n   using Counters for Counters.Counter;\n   Counters.Counter private _tokenIds;\n\n   mapping (uint256 => LagoonType) public lagoon_types;\n   mapping (uint256 => uint256) public linked_real_token_id;\n   mapping (uint256 => string) private _tokenURIs;\n   mapping (uint256 => GameItem[]) public game_items;\n\n   // This modifier checks if the sender is a verified actor in actor's smartcontract\n   modifier onlyActor() {\n     require (actors_contract.is_validated_actor(msg.sender)==true,\"Not verified Actor\");\n     _;\n   }\n\n   // This modifier checks if a given token exists in this ERC1155 contract\n   modifier tokenExists(uint token_id) {\n     require(token_id<=_tokenIds.current(),\"Token does not exist\");\n     _;\n   }\n   \n   // This modifier checks if the sender owns a given token\n   modifier isMyToken(uint token_id) {\n     require(balanceOf(msg.sender, token_id)>0, \"This is not your token\");\n     _;\n   }\n\n   /**\n     * @notice Acro and Actors contract's addresses are set on this contract during deployment\n     * @param acro_contract_address Acro contract address\n     * @param actors_contract_address Actors contract address\n     */\n   constructor(address acro_contract_address, address actors_contract_address) ERC1155(\"\") {\n     acro_contract = Acro(acro_contract_address);\n     actors_contract = AcroActors(actors_contract_address);\n   } \n\n   /**\n     * @notice get json metadata file urls\n     * @param token_id Token ID\n     * @return string url\n     */\n   function uri(uint256 token_id) \n      public\n      view\n      virtual\n      override\n      returns (string memory) \n   {\n      return _tokenURIs[token_id];\n   }\n\n   /**\n    * @notice Declare a new physical coral zone in the database\n    * this declaration is allowed for verified actors only\n    * @param metadatas_url json metadata file url\n    */\n   function new_real_zone(string memory metadatas_url) \n      external\n      onlyActor\n   {\n      _tokenIds.increment();\n      _mint( msg.sender, _tokenIds.current(), 100, \"\");\n      _tokenURIs[_tokenIds.current()] = metadatas_url;\n      lagoon_types[_tokenIds.current()] = LagoonType.REAL;\n   }\n\n   /**\n    * @notice Declare a new state for an existing physical coral zone in the database\n    * This declaration is allowed for verified actors only\n    * Every actor is allowed to update informations about any coral aone\n    * @param token_id Token ID\n    * @param metadatas_url json metadata file url\n    */\n   function update_real_zone(uint token_id, string memory metadatas_url)\n     external \n     onlyActor \n     tokenExists(token_id) \n   {\n      require(lagoon_types[token_id]==LagoonType.REAL,\"only applies to real\");\n      _tokenURIs[token_id] = metadatas_url;\n   }\n\n   /**\n    * @notice Create a new game party (virtual zone)\n    * Everybody can create a new virtual zone\n    * @return generated token id for this game party\n    */\n   function new_virtual_zone() \n      external\n      returns (uint) \n   {\n      _tokenIds.increment();\n      _mint(msg.sender, _tokenIds.current(), 1, \"\");\n      lagoon_types[_tokenIds.current()] = LagoonType.VIRTUAL;\n      return _tokenIds.current();\n   }\n\n   /**\n    * @notice Any user can merge one of his real token with one of his virtual zone\n    * Virtual token is linked to real token and change type to \"BOTH\" token\n    * The real token is destroyed for this user\n    * But this real token is kept in the database\n    * @param real_token_id Real token ID\n    * @param virtual_token_id Virtual token ID\n    */\n   function merge_tokens(uint real_token_id, uint virtual_token_id) \n      external \n      tokenExists(real_token_id) \n      tokenExists(virtual_token_id) \n      // isMyToken(real_token_id)   <- This test is done in _burn\n      isMyToken(virtual_token_id)\n   {\n      require(lagoon_types[real_token_id]==LagoonType.REAL, \"Not real lagoon\");\n      require(lagoon_types[virtual_token_id]==LagoonType.VIRTUAL, \"Not virtual lagoon\");\n      require(get_game_level(virtual_token_id)>=4,\"insufficient game level\");\n\n      pay_acro(100000000000000000);\n      _burn(msg.sender, real_token_id, 1);    // Destruct real token for the user. (Balance can be 0, information about this real token is kept in the database)\n\n      lagoon_types[virtual_token_id] = LagoonType.BOTH;        // Link virtual token with real\n      linked_real_token_id[virtual_token_id] = real_token_id; \n   }\n\n   /**\n    * @notice Get total tokens count (for UI)\n    * @return uint token count\n    */\n   function get_tokens_count()\n      external\n      view\n      returns (uint) \n   {\n      return _tokenIds.current();\n   }\n\n   /**\n    * @notice Force user to pay an amount of Acro ERC20 token\n    * user should first call approve on Acro ERC20 contract before\n    * @param amount of Acro to be paid by user\n    */\n   function pay_acro(uint amount)\n      private\n   {\n      acro_contract.transferFrom(msg.sender, address(acro_contract),amount);\n   }\n\n   /**\n    * @notice Buy and add item for our game and put it on a virtual zone\n    * @param token_id Token ID which represents our virtual zone\n    * @param item Coordinates (x,y) where to put the item on our virtual zone and item_type\n    */\n   function buy_and_put_game_item(uint token_id, GameItem memory item)\n     external\n     tokenExists(token_id) \n     isMyToken(token_id)\n   {\n     require(item.x<11 && item.y<11 && item.item_type<3,\"Invalid x,y or item_type\");\n     pay_acro(100000000000000000);\n     for (uint i=0;i<game_items[token_id].length;i++) {\n        if (game_items[token_id][i].x==item.x && game_items[token_id][i].y==item.y) {\n           revert(\"Free slot required\");\n        }\n     }\n     game_items[token_id].push(item);\n   }\n\n   /**\n    * @notice Level increase for a virtual zone when a user adds items on it\n    * this function gets the level for a given virtual zone\n    * @param token_id Token ID which represents the virtual zone\n    * @return level of the virtual zone\n    */\n   function get_game_level(uint token_id) public\n      view\n      tokenExists(token_id)\n      returns (uint) \n   {\n      require(lagoon_types[token_id]!=LagoonType.REAL,\"only applies to virtual/both\");\n      return game_items[token_id].length;\n   }\n\n   /**\n    * @notice gets serialized datas for a given virtual zone (item mapping)\n    * @param token_id Token ID which represents the virtual zone\n    * @return serialized data of the virtual zone\n    */\n   function get_game_datas(uint token_id)\n      external\n      view\n      tokenExists(token_id)\n      returns (string memory) \n   {\n      require(lagoon_types[token_id]!=LagoonType.REAL,\"only applies to virtual/both\");\n      bytes memory ret = new bytes(11*11);\n      for (uint i=0;i<11*11;i++) {\n        ret[i] = '0';\n      }\n      for (uint i=0;i<game_items[token_id].length;i++) {\n        require( game_items[token_id][i].x<11 && game_items[token_id][i].y<11 ,\"Internal error\");\n        if (game_items[token_id][i].item_type==1) {\n          ret[game_items[token_id][i].x + game_items[token_id][i].y*11] = '1';\n        } else if (game_items[token_id][i].item_type==2) {\n          ret[game_items[token_id][i].x + game_items[token_id][i].y*11] = '2';\n        } \n      }\n      return string(ret);\n   }\n}\n",
  "sourcePath": "/home/deva/decri/contracts/Lagoon.sol",
  "compiler": {
    "name": "solc",
    "version": "0.8.0+commit.c7dfd78e.Emscripten.clang"
  },
  "schemaVersion": "3.3.4",
  "updatedAt": "2021-04-16T07:44:49.881Z",
  "networkType": "ethereum",
  "devdoc": {
    "kind": "dev",
    "methods": {
      "balanceOf(address,uint256)": {
        "details": "See {IERC1155-balanceOf}. Requirements: - `account` cannot be the zero address."
      },
      "balanceOfBatch(address[],uint256[])": {
        "details": "See {IERC1155-balanceOfBatch}. Requirements: - `accounts` and `ids` must have the same length."
      },
      "buy_and_put_game_item(uint256,(uint8,uint8,uint8))": {
        "params": {
          "item": "Coordinates (x,y) where to put the item on our virtual zone and item_type",
          "token_id": "Token ID which represents our virtual zone"
        }
      },
      "constructor": {
        "params": {
          "acro_contract_address": "Acro contract address",
          "actors_contract_address": "Actors contract address"
        }
      },
      "get_game_datas(uint256)": {
        "params": {
          "token_id": "Token ID which represents the virtual zone"
        },
        "returns": {
          "_0": "serialized data of the virtual zone"
        }
      },
      "get_game_level(uint256)": {
        "params": {
          "token_id": "Token ID which represents the virtual zone"
        },
        "returns": {
          "_0": "level of the virtual zone"
        }
      },
      "get_tokens_count()": {
        "returns": {
          "_0": "uint token count"
        }
      },
      "isApprovedForAll(address,address)": {
        "details": "See {IERC1155-isApprovedForAll}."
      },
      "merge_tokens(uint256,uint256)": {
        "params": {
          "real_token_id": "Real token ID",
          "virtual_token_id": "Virtual token ID"
        }
      },
      "new_real_zone(string)": {
        "params": {
          "metadatas_url": "json metadata file url"
        }
      },
      "new_virtual_zone()": {
        "returns": {
          "_0": "generated token id for this game party"
        }
      },
      "safeBatchTransferFrom(address,address,uint256[],uint256[],bytes)": {
        "details": "See {IERC1155-safeBatchTransferFrom}."
      },
      "safeTransferFrom(address,address,uint256,uint256,bytes)": {
        "details": "See {IERC1155-safeTransferFrom}."
      },
      "setApprovalForAll(address,bool)": {
        "details": "See {IERC1155-setApprovalForAll}."
      },
      "supportsInterface(bytes4)": {
        "details": "See {IERC165-supportsInterface}."
      },
      "update_real_zone(uint256,string)": {
        "params": {
          "metadatas_url": "json metadata file url",
          "token_id": "Token ID"
        }
      },
      "uri(uint256)": {
        "params": {
          "token_id": "Token ID"
        },
        "returns": {
          "_0": "string url"
        }
      }
    },
    "title": "Lagoon Token ",
    "version": 1
  },
  "userdoc": {
    "kind": "user",
    "methods": {
      "buy_and_put_game_item(uint256,(uint8,uint8,uint8))": {
        "notice": "Buy and add item for our game and put it on a virtual zone"
      },
      "constructor": {
        "notice": "Acro and Actors contract's addresses are set on this contract during deployment"
      },
      "get_game_datas(uint256)": {
        "notice": "gets serialized datas for a given virtual zone (item mapping)"
      },
      "get_game_level(uint256)": {
        "notice": "Level increase for a virtual zone when a user adds items on it this function gets the level for a given virtual zone"
      },
      "get_tokens_count()": {
        "notice": "Get total tokens count (for UI)"
      },
      "merge_tokens(uint256,uint256)": {
        "notice": "Any user can merge one of his real token with one of his virtual zone Virtual token is linked to real token and change type to \"BOTH\" token The real token is destroyed for this user But this real token is kept in the database"
      },
      "new_real_zone(string)": {
        "notice": "Declare a new physical coral zone in the database this declaration is allowed for verified actors only"
      },
      "new_virtual_zone()": {
        "notice": "Create a new game party (virtual zone) Everybody can create a new virtual zone"
      },
      "update_real_zone(uint256,string)": {
        "notice": "Declare a new state for an existing physical coral zone in the database This declaration is allowed for verified actors only Every actor is allowed to update informations about any coral aone"
      },
      "uri(uint256)": {
        "notice": "get json metadata file urls"
      }
    },
    "version": 1
  }
}