{
  "contractName": "Lagoon",
  "abi": [
    {
      "inputs": [
        {
          "internalType": "address",
          "name": "acro_contract_address",
          "type": "address"
        },
        {
          "internalType": "address",
          "name": "actors_contract_address",
          "type": "address"
        }
      ],
      "stateMutability": "nonpayable",
      "type": "constructor"
    },
    {
      "anonymous": false,
      "inputs": [
        {
          "indexed": true,
          "internalType": "address",
          "name": "account",
          "type": "address"
        },
        {
          "indexed": true,
          "internalType": "address",
          "name": "operator",
          "type": "address"
        },
        {
          "indexed": false,
          "internalType": "bool",
          "name": "approved",
          "type": "bool"
        }
      ],
      "name": "ApprovalForAll",
      "type": "event"
    },
    {
      "anonymous": false,
      "inputs": [
        {
          "indexed": true,
          "internalType": "address",
          "name": "operator",
          "type": "address"
        },
        {
          "indexed": true,
          "internalType": "address",
          "name": "from",
          "type": "address"
        },
        {
          "indexed": true,
          "internalType": "address",
          "name": "to",
          "type": "address"
        },
        {
          "indexed": false,
          "internalType": "uint256[]",
          "name": "ids",
          "type": "uint256[]"
        },
        {
          "indexed": false,
          "internalType": "uint256[]",
          "name": "values",
          "type": "uint256[]"
        }
      ],
      "name": "TransferBatch",
      "type": "event"
    },
    {
      "anonymous": false,
      "inputs": [
        {
          "indexed": true,
          "internalType": "address",
          "name": "operator",
          "type": "address"
        },
        {
          "indexed": true,
          "internalType": "address",
          "name": "from",
          "type": "address"
        },
        {
          "indexed": true,
          "internalType": "address",
          "name": "to",
          "type": "address"
        },
        {
          "indexed": false,
          "internalType": "uint256",
          "name": "id",
          "type": "uint256"
        },
        {
          "indexed": false,
          "internalType": "uint256",
          "name": "value",
          "type": "uint256"
        }
      ],
      "name": "TransferSingle",
      "type": "event"
    },
    {
      "anonymous": false,
      "inputs": [
        {
          "indexed": false,
          "internalType": "string",
          "name": "value",
          "type": "string"
        },
        {
          "indexed": true,
          "internalType": "uint256",
          "name": "id",
          "type": "uint256"
        }
      ],
      "name": "URI",
      "type": "event"
    },
    {
      "inputs": [
        {
          "internalType": "address",
          "name": "account",
          "type": "address"
        },
        {
          "internalType": "uint256",
          "name": "id",
          "type": "uint256"
        }
      ],
      "name": "balanceOf",
      "outputs": [
        {
          "internalType": "uint256",
          "name": "",
          "type": "uint256"
        }
      ],
      "stateMutability": "view",
      "type": "function"
    },
    {
      "inputs": [
        {
          "internalType": "address[]",
          "name": "accounts",
          "type": "address[]"
        },
        {
          "internalType": "uint256[]",
          "name": "ids",
          "type": "uint256[]"
        }
      ],
      "name": "balanceOfBatch",
      "outputs": [
        {
          "internalType": "uint256[]",
          "name": "",
          "type": "uint256[]"
        }
      ],
      "stateMutability": "view",
      "type": "function"
    },
    {
      "inputs": [
        {
          "internalType": "uint256",
          "name": "",
          "type": "uint256"
        },
        {
          "internalType": "uint256",
          "name": "",
          "type": "uint256"
        }
      ],
      "name": "game_items",
      "outputs": [
        {
          "internalType": "uint8",
          "name": "x",
          "type": "uint8"
        },
        {
          "internalType": "uint8",
          "name": "y",
          "type": "uint8"
        },
        {
          "internalType": "uint8",
          "name": "item_type",
          "type": "uint8"
        }
      ],
      "stateMutability": "view",
      "type": "function"
    },
    {
      "inputs": [
        {
          "internalType": "address",
          "name": "account",
          "type": "address"
        },
        {
          "internalType": "address",
          "name": "operator",
          "type": "address"
        }
      ],
      "name": "isApprovedForAll",
      "outputs": [
        {
          "internalType": "bool",
          "name": "",
          "type": "bool"
        }
      ],
      "stateMutability": "view",
      "type": "function"
    },
    {
      "inputs": [
        {
          "internalType": "uint256",
          "name": "",
          "type": "uint256"
        }
      ],
      "name": "lagoon_types",
      "outputs": [
        {
          "internalType": "enum Lagoon.LagoonType",
          "name": "",
          "type": "uint8"
        }
      ],
      "stateMutability": "view",
      "type": "function"
    },
    {
      "inputs": [
        {
          "internalType": "uint256",
          "name": "",
          "type": "uint256"
        }
      ],
      "name": "linked_real_token_id",
      "outputs": [
        {
          "internalType": "uint256",
          "name": "",
          "type": "uint256"
        }
      ],
      "stateMutability": "view",
      "type": "function"
    },
    {
      "inputs": [
        {
          "internalType": "address",
          "name": "from",
          "type": "address"
        },
        {
          "internalType": "address",
          "name": "to",
          "type": "address"
        },
        {
          "internalType": "uint256[]",
          "name": "ids",
          "type": "uint256[]"
        },
        {
          "internalType": "uint256[]",
          "name": "amounts",
          "type": "uint256[]"
        },
        {
          "internalType": "bytes",
          "name": "data",
          "type": "bytes"
        }
      ],
      "name": "safeBatchTransferFrom",
      "outputs": [],
      "stateMutability": "nonpayable",
      "type": "function"
    },
    {
      "inputs": [
        {
          "internalType": "address",
          "name": "from",
          "type": "address"
        },
        {
          "internalType": "address",
          "name": "to",
          "type": "address"
        },
        {
          "internalType": "uint256",
          "name": "id",
          "type": "uint256"
        },
        {
          "internalType": "uint256",
          "name": "amount",
          "type": "uint256"
        },
        {
          "internalType": "bytes",
          "name": "data",
          "type": "bytes"
        }
      ],
      "name": "safeTransferFrom",
      "outputs": [],
      "stateMutability": "nonpayable",
      "type": "function"
    },
    {
      "inputs": [
        {
          "internalType": "address",
          "name": "operator",
          "type": "address"
        },
        {
          "internalType": "bool",
          "name": "approved",
          "type": "bool"
        }
      ],
      "name": "setApprovalForAll",
      "outputs": [],
      "stateMutability": "nonpayable",
      "type": "function"
    },
    {
      "inputs": [
        {
          "internalType": "bytes4",
          "name": "interfaceId",
          "type": "bytes4"
        }
      ],
      "name": "supportsInterface",
      "outputs": [
        {
          "internalType": "bool",
          "name": "",
          "type": "bool"
        }
      ],
      "stateMutability": "view",
      "type": "function"
    },
    {
      "inputs": [
        {
          "internalType": "uint256",
          "name": "token_id",
          "type": "uint256"
        }
      ],
      "name": "uri",
      "outputs": [
        {
          "internalType": "string",
          "name": "",
          "type": "string"
        }
      ],
      "stateMutability": "view",
      "type": "function"
    },
    {
      "inputs": [
        {
          "internalType": "string",
          "name": "metadatas_url",
          "type": "string"
        }
      ],
      "name": "new_real_zone",
      "outputs": [],
      "stateMutability": "nonpayable",
      "type": "function"
    },
    {
      "inputs": [
        {
          "internalType": "uint256",
          "name": "token_id",
          "type": "uint256"
        },
        {
          "internalType": "string",
          "name": "metadatas_url",
          "type": "string"
        }
      ],
      "name": "update_real_zone",
      "outputs": [],
      "stateMutability": "nonpayable",
      "type": "function"
    },
    {
      "inputs": [],
      "name": "new_virtual_zone",
      "outputs": [
        {
          "internalType": "uint256",
          "name": "",
          "type": "uint256"
        }
      ],
      "stateMutability": "nonpayable",
      "type": "function"
    },
    {
      "inputs": [
        {
          "internalType": "uint256",
          "name": "real_token_id",
          "type": "uint256"
        },
        {
          "internalType": "uint256",
          "name": "virtual_token_id",
          "type": "uint256"
        }
      ],
      "name": "merge_tokens",
      "outputs": [],
      "stateMutability": "nonpayable",
      "type": "function"
    },
    {
      "inputs": [],
      "name": "get_tokens_count",
      "outputs": [
        {
          "internalType": "uint256",
          "name": "",
          "type": "uint256"
        }
      ],
      "stateMutability": "view",
      "type": "function"
    },
    {
      "inputs": [
        {
          "internalType": "uint256",
          "name": "token_id",
          "type": "uint256"
        },
        {
          "internalType": "uint8",
          "name": "x",
          "type": "uint8"
        },
        {
          "internalType": "uint8",
          "name": "y",
          "type": "uint8"
        },
        {
          "internalType": "uint8",
          "name": "item_type",
          "type": "uint8"
        }
      ],
      "name": "buy_and_put_game_item",
      "outputs": [],
      "stateMutability": "nonpayable",
      "type": "function"
    },
    {
      "inputs": [
        {
          "internalType": "uint256",
          "name": "token_id",
          "type": "uint256"
        }
      ],
      "name": "get_game_level",
      "outputs": [
        {
          "internalType": "uint256",
          "name": "",
          "type": "uint256"
        }
      ],
      "stateMutability": "view",
      "type": "function"
    },
    {
      "inputs": [
        {
          "internalType": "uint256",
          "name": "token_id",
          "type": "uint256"
        }
      ],
      "name": "get_game_datas",
      "outputs": [
        {
          "internalType": "string",
          "name": "",
          "type": "string"
        }
      ],
      "stateMutability": "view",
      "type": "function"
    }
  ],
  "bytecode": "0x60806040523480156200001157600080fd5b5060405162004d8b38038062004d8b8339818101604052810190620000379190620001c6565b604051806020016040528060008152506200005881620000e360201b60201c565b5081600360006101000a81548173ffffffffffffffffffffffffffffffffffffffff021916908373ffffffffffffffffffffffffffffffffffffffff16021790555080600460006101000a81548173ffffffffffffffffffffffffffffffffffffffff021916908373ffffffffffffffffffffffffffffffffffffffff1602179055505050620002ba565b8060029080519060200190620000fb929190620000ff565b5050565b8280546200010d906200023b565b90600052602060002090601f0160209004810192826200013157600085556200017d565b82601f106200014c57805160ff19168380011785556200017d565b828001600101855582156200017d579182015b828111156200017c5782518255916020019190600101906200015f565b5b5090506200018c919062000190565b5090565b5b80821115620001ab57600081600090555060010162000191565b5090565b600081519050620001c081620002a0565b92915050565b60008060408385031215620001da57600080fd5b6000620001ea85828601620001af565b9250506020620001fd85828601620001af565b9150509250929050565b600062000214826200021b565b9050919050565b600073ffffffffffffffffffffffffffffffffffffffff82169050919050565b600060028204905060018216806200025457607f821691505b602082108114156200026b576200026a62000271565b5b50919050565b7f4e487b7100000000000000000000000000000000000000000000000000000000600052602260045260246000fd5b620002ab8162000207565b8114620002b757600080fd5b50565b614ac180620002ca6000396000f3fe608060405234801561001057600080fd5b50600436106101205760003560e01c80632f666084116100ad57806391f23cea1161007157806391f23cea14610367578063a22cb46514610383578063d37a76c31461039f578063e985e9c5146103bb578063f242432a146103eb57610120565b80632f6660841461029d5780634e1273f4146102cd57806356b52989146102fd5780637de1f3b81461031b5780638e785d6b1461033757610120565b806321c21f66116100f457806321c21f66146101d3578063236c63641461020357806328cb81d2146102355780632d5f76f2146102515780632eb2c2d61461028157610120565b8062fdd58e1461012557806301ffc9a7146101555780630e89341c14610185578063185833d2146101b5575b600080fd5b61013f600480360381019061013a919061342b565b610407565b60405161014c9190614440565b60405180910390f35b61016f600480360381019061016a91906134fc565b6104d0565b60405161017c9190614108565b60405180910390f35b61019f600480360381019061019a919061358f565b6105b2565b6040516101ac919061413e565b60405180910390f35b6101bd610657565b6040516101ca9190614440565b60405180910390f35b6101ed60048036038101906101e8919061358f565b610702565b6040516101fa919061413e565b60405180910390f35b61021d6004803603810190610218919061360c565b610e67565b60405161022c93929190614484565b60405180910390f35b61024f600480360381019061024a919061354e565b610ed1565b005b61026b6004803603810190610266919061358f565b611090565b6040516102789190614440565b60405180910390f35b61029b600480360381019061029691906132a1565b6110a8565b005b6102b760048036038101906102b2919061358f565b61149e565b6040516102c49190614123565b60405180910390f35b6102e760048036038101906102e29190613467565b6114be565b6040516102f491906140af565b60405180910390f35b61030561166f565b6040516103129190614440565b60405180910390f35b6103356004803603810190610330919061360c565b611680565b005b610351600480360381019061034c919061358f565b6119ab565b60405161035e9190614440565b60405180910390f35b610381600480360381019061037c9190613648565b611aed565b005b61039d600480360381019061039891906133ef565b611e1e565b005b6103b960048036038101906103b491906135b8565b611f9f565b005b6103d560048036038101906103d09190613265565b6121dd565b6040516103e29190614108565b60405180910390f35b61040560048036038101906104009190613360565b612271565b005b60008073ffffffffffffffffffffffffffffffffffffffff168373ffffffffffffffffffffffffffffffffffffffff161415610478576040517f08c379a000000000000000000000000000000000000000000000000000000000815260040161046f906141e0565b60405180910390fd5b60008083815260200190815260200160002060008473ffffffffffffffffffffffffffffffffffffffff1673ffffffffffffffffffffffffffffffffffffffff16815260200190815260200160002054905092915050565b60007fd9b67a26000000000000000000000000000000000000000000000000000000007bffffffffffffffffffffffffffffffffffffffffffffffffffffffff1916827bffffffffffffffffffffffffffffffffffffffffffffffffffffffff1916148061059b57507f0e89341c000000000000000000000000000000000000000000000000000000007bffffffffffffffffffffffffffffffffffffffffffffffffffffffff1916827bffffffffffffffffffffffffffffffffffffffffffffffffffffffff1916145b806105ab57506105aa82612589565b5b9050919050565b60606008600083815260200190815260200160002080546105d2906147f9565b80601f01602080910402602001604051908101604052809291908181526020018280546105fe906147f9565b801561064b5780601f106106205761010080835404028352916020019161064b565b820191906000526020600020905b81548152906001019060200180831161062e57829003601f168201915b50505050509050919050565b600061066360056125f3565b610688336106716005612609565b600160405180602001604052806000815250612617565b6000600660006106986005612609565b815260200190815260200160002060006101000a81548160ff021916908360028111156106ee577f4e487b7100000000000000000000000000000000000000000000000000000000600052602160045260246000fd5b02179055506106fd6005612609565b905090565b60608161070f6005612609565b811115610751576040517f08c379a000000000000000000000000000000000000000000000000000000000815260040161074890614280565b60405180910390fd5b6001600281111561078b577f4e487b7100000000000000000000000000000000000000000000000000000000600052602160045260246000fd5b6006600085815260200190815260200160002060009054906101000a900460ff1660028111156107e4577f4e487b7100000000000000000000000000000000000000000000000000000000600052602160045260246000fd5b1415610825576040517f08c379a000000000000000000000000000000000000000000000000000000000815260040161081c90614360565b60405180910390fd5b6000607967ffffffffffffffff811115610868577f4e487b7100000000000000000000000000000000000000000000000000000000600052604160045260246000fd5b6040519080825280601f01601f19166020018201604052801561089a5781602001600182028036833780820191505090505b50905060005b6079811015610945577f3000000000000000000000000000000000000000000000000000000000000000828281518110610903577f4e487b7100000000000000000000000000000000000000000000000000000000600052603260045260246000fd5b60200101907effffffffffffffffffffffffffffffffffffffffffffffffffffffffffffff1916908160001a905350808061093d9061482b565b9150506108a0565b5060005b6009600086815260200190815260200160002080549050811015610e5c57600b6009600087815260200190815260200160002082815481106109b4577f4e487b7100000000000000000000000000000000000000000000000000000000600052603260045260246000fd5b9060005260206000200160000160009054906101000a900460ff1660ff16108015610a475750600b600960008781526020019081526020016000208281548110610a27577f4e487b7100000000000000000000000000000000000000000000000000000000600052603260045260246000fd5b9060005260206000200160000160019054906101000a900460ff1660ff16105b610a86576040517f08c379a0000000000000000000000000000000000000000000000000000000008152600401610a7d90614380565b60405180910390fd5b6001600960008781526020019081526020016000208281548110610ad3577f4e487b7100000000000000000000000000000000000000000000000000000000600052603260045260246000fd5b9060005260206000200160000160029054906101000a900460ff1660ff161415610c69577f310000000000000000000000000000000000000000000000000000000000000082600b600960008981526020019081526020016000208481548110610b66577f4e487b7100000000000000000000000000000000000000000000000000000000600052603260045260246000fd5b9060005260206000200160000160019054906101000a900460ff16610b8b91906146a2565b600960008981526020019081526020016000208481548110610bd6577f4e487b7100000000000000000000000000000000000000000000000000000000600052603260045260246000fd5b9060005260206000200160000160009054906101000a900460ff16610bfb919061466b565b60ff1681518110610c35577f4e487b7100000000000000000000000000000000000000000000000000000000600052603260045260246000fd5b60200101907effffffffffffffffffffffffffffffffffffffffffffffffffffffffffffff1916908160001a905350610e49565b6002600960008781526020019081526020016000208281548110610cb6577f4e487b7100000000000000000000000000000000000000000000000000000000600052603260045260246000fd5b9060005260206000200160000160029054906101000a900460ff1660ff161415610e48577f320000000000000000000000000000000000000000000000000000000000000082600b600960008981526020019081526020016000208481548110610d49577f4e487b7100000000000000000000000000000000000000000000000000000000600052603260045260246000fd5b9060005260206000200160000160019054906101000a900460ff16610d6e91906146a2565b600960008981526020019081526020016000208481548110610db9577f4e487b7100000000000000000000000000000000000000000000000000000000600052603260045260246000fd5b9060005260206000200160000160009054906101000a900460ff16610dde919061466b565b60ff1681518110610e18577f4e487b7100000000000000000000000000000000000000000000000000000000600052603260045260246000fd5b60200101907effffffffffffffffffffffffffffffffffffffffffffffffffffffffffffff1916908160001a9053505b5b8080610e549061482b565b915050610949565b508092505050919050565b60096020528160005260406000208181548110610e8357600080fd5b90600052602060002001600091509150508060000160009054906101000a900460ff16908060000160019054906101000a900460ff16908060000160029054906101000a900460ff16905083565b60011515600460009054906101000a900473ffffffffffffffffffffffffffffffffffffffff1673ffffffffffffffffffffffffffffffffffffffff1663be6cf61e336040518263ffffffff1660e01b8152600401610f309190613f9b565b60206040518083038186803b158015610f4857600080fd5b505afa158015610f5c573d6000803e3d6000fd5b505050506040513d601f19601f82011682018060405250810190610f8091906134d3565b151514610fc2576040517f08c379a0000000000000000000000000000000000000000000000000000000008152600401610fb9906141c0565b60405180910390fd5b610fcc60056125f3565b610ff133610fda6005612609565b606460405180602001604052806000815250612617565b80600860006110006005612609565b81526020019081526020016000209080519060200190611021929190612f33565b506001600660006110326005612609565b815260200190815260200160002060006101000a81548160ff02191690836002811115611088577f4e487b7100000000000000000000000000000000000000000000000000000000600052602160045260246000fd5b021790555050565b60076020528060005260406000206000915090505481565b81518351146110ec576040517f08c379a00000000000000000000000000000000000000000000000000000000081526004016110e390614400565b60405180910390fd5b600073ffffffffffffffffffffffffffffffffffffffff168473ffffffffffffffffffffffffffffffffffffffff16141561115c576040517f08c379a0000000000000000000000000000000000000000000000000000000008152600401611153906142a0565b60405180910390fd5b6111646127ad565b73ffffffffffffffffffffffffffffffffffffffff168573ffffffffffffffffffffffffffffffffffffffff1614806111aa57506111a9856111a46127ad565b6121dd565b5b6111e9576040517f08c379a00000000000000000000000000000000000000000000000000000000081526004016111e0906142c0565b60405180910390fd5b60006111f36127ad565b90506112038187878787876127b5565b60005b845181101561140957600085828151811061124a577f4e487b7100000000000000000000000000000000000000000000000000000000600052603260045260246000fd5b60200260200101519050600085838151811061128f577f4e487b7100000000000000000000000000000000000000000000000000000000600052603260045260246000fd5b60200260200101519050600080600084815260200190815260200160002060008b73ffffffffffffffffffffffffffffffffffffffff1673ffffffffffffffffffffffffffffffffffffffff16815260200190815260200160002054905081811015611330576040517f08c379a000000000000000000000000000000000000000000000000000000000815260040161132790614320565b60405180910390fd5b818161133c91906146dd565b60008085815260200190815260200160002060008c73ffffffffffffffffffffffffffffffffffffffff1673ffffffffffffffffffffffffffffffffffffffff168152602001908152602001600020819055508160008085815260200190815260200160002060008b73ffffffffffffffffffffffffffffffffffffffff1673ffffffffffffffffffffffffffffffffffffffff16815260200190815260200160002060008282546113ee9190614615565b92505081905550505050806114029061482b565b9050611206565b508473ffffffffffffffffffffffffffffffffffffffff168673ffffffffffffffffffffffffffffffffffffffff168273ffffffffffffffffffffffffffffffffffffffff167f4a39dc06d4c0dbc64b70af90fd698a233a518aa5d07e595d983b8c0526c8f7fb87876040516114809291906140d1565b60405180910390a46114968187878787876127bd565b505050505050565b60066020528060005260406000206000915054906101000a900460ff1681565b60608151835114611504576040517f08c379a00000000000000000000000000000000000000000000000000000000081526004016114fb906143e0565b60405180910390fd5b6000835167ffffffffffffffff811115611547577f4e487b7100000000000000000000000000000000000000000000000000000000600052604160045260246000fd5b6040519080825280602002602001820160405280156115755781602001602082028036833780820191505090505b50905060005b84518110156116645761160e8582815181106115c0577f4e487b7100000000000000000000000000000000000000000000000000000000600052603260045260246000fd5b6020026020010151858381518110611601577f4e487b7100000000000000000000000000000000000000000000000000000000600052603260045260246000fd5b6020026020010151610407565b828281518110611647577f4e487b7100000000000000000000000000000000000000000000000000000000600052603260045260246000fd5b6020026020010181815250508061165d9061482b565b905061157b565b508091505092915050565b600061167b6005612609565b905090565b8161168b6005612609565b8111156116cd576040517f08c379a00000000000000000000000000000000000000000000000000000000081526004016116c490614280565b60405180910390fd5b816116d86005612609565b81111561171a576040517f08c379a000000000000000000000000000000000000000000000000000000000815260040161171190614280565b60405180910390fd5b8260006117273383610407565b11611767576040517f08c379a000000000000000000000000000000000000000000000000000000000815260040161175e90614300565b60405180910390fd5b600160028111156117a1577f4e487b7100000000000000000000000000000000000000000000000000000000600052602160045260246000fd5b6006600087815260200190815260200160002060009054906101000a900460ff1660028111156117fa577f4e487b7100000000000000000000000000000000000000000000000000000000600052602160045260246000fd5b1461183a576040517f08c379a000000000000000000000000000000000000000000000000000000000815260040161183190614200565b60405180910390fd5b60006002811115611874577f4e487b7100000000000000000000000000000000000000000000000000000000600052602160045260246000fd5b6006600086815260200190815260200160002060009054906101000a900460ff1660028111156118cd577f4e487b7100000000000000000000000000000000000000000000000000000000600052602160045260246000fd5b1461190d576040517f08c379a000000000000000000000000000000000000000000000000000000000815260040161190490614340565b60405180910390fd5b61191e67016345785d8a000061298d565b61192a33866001612a64565b60026006600086815260200190815260200160002060006101000a81548160ff02191690836002811115611987577f4e487b7100000000000000000000000000000000000000000000000000000000600052602160045260246000fd5b02179055508460076000868152602001908152602001600020819055505050505050565b6000816119b86005612609565b8111156119fa576040517f08c379a00000000000000000000000000000000000000000000000000000000081526004016119f190614280565b60405180910390fd5b60016002811115611a34577f4e487b7100000000000000000000000000000000000000000000000000000000600052602160045260246000fd5b6006600085815260200190815260200160002060009054906101000a900460ff166002811115611a8d577f4e487b7100000000000000000000000000000000000000000000000000000000600052602160045260246000fd5b1415611ace576040517f08c379a0000000000000000000000000000000000000000000000000000000008152600401611ac590614360565b60405180910390fd5b6009600084815260200190815260200160002080549050915050919050565b83611af86005612609565b811115611b3a576040517f08c379a0000000000000000000000000000000000000000000000000000000008152600401611b3190614280565b60405180910390fd5b846000611b473383610407565b11611b87576040517f08c379a0000000000000000000000000000000000000000000000000000000008152600401611b7e90614300565b60405180910390fd5b600b8560ff16108015611b9d5750600b8460ff16105b8015611bac575060038360ff16105b611beb576040517f08c379a0000000000000000000000000000000000000000000000000000000008152600401611be2906141a0565b60405180910390fd5b611bfc67016345785d8a000061298d565b60005b6009600088815260200190815260200160002080549050811015611d54578560ff16600960008981526020019081526020016000208281548110611c6c577f4e487b7100000000000000000000000000000000000000000000000000000000600052603260045260246000fd5b9060005260206000200160000160009054906101000a900460ff1660ff16148015611d0157508460ff16600960008981526020019081526020016000208281548110611ce1577f4e487b7100000000000000000000000000000000000000000000000000000000600052603260045260246000fd5b9060005260206000200160000160019054906101000a900460ff1660ff16145b15611d41576040517f08c379a0000000000000000000000000000000000000000000000000000000008152600401611d3890614220565b60405180910390fd5b8080611d4c9061482b565b915050611bff565b506009600087815260200190815260200160002060405180606001604052808760ff1681526020018660ff1681526020018560ff168152509080600181540180825580915050600190039060005260206000200160009091909190915060008201518160000160006101000a81548160ff021916908360ff16021790555060208201518160000160016101000a81548160ff021916908360ff16021790555060408201518160000160026101000a81548160ff021916908360ff1602179055505050505050505050565b8173ffffffffffffffffffffffffffffffffffffffff16611e3d6127ad565b73ffffffffffffffffffffffffffffffffffffffff161415611e94576040517f08c379a0000000000000000000000000000000000000000000000000000000008152600401611e8b906143c0565b60405180910390fd5b8060016000611ea16127ad565b73ffffffffffffffffffffffffffffffffffffffff1673ffffffffffffffffffffffffffffffffffffffff16815260200190815260200160002060008473ffffffffffffffffffffffffffffffffffffffff1673ffffffffffffffffffffffffffffffffffffffff16815260200190815260200160002060006101000a81548160ff0219169083151502179055508173ffffffffffffffffffffffffffffffffffffffff16611f4e6127ad565b73ffffffffffffffffffffffffffffffffffffffff167f17307eab39ab6107e8899845ad3d59bd9653f200f220920489ca2b5937696c3183604051611f939190614108565b60405180910390a35050565b60011515600460009054906101000a900473ffffffffffffffffffffffffffffffffffffffff1673ffffffffffffffffffffffffffffffffffffffff1663be6cf61e336040518263ffffffff1660e01b8152600401611ffe9190613f9b565b60206040518083038186803b15801561201657600080fd5b505afa15801561202a573d6000803e3d6000fd5b505050506040513d601f19601f8201168201806040525081019061204e91906134d3565b151514612090576040517f08c379a0000000000000000000000000000000000000000000000000000000008152600401612087906141c0565b60405180910390fd5b8161209b6005612609565b8111156120dd576040517f08c379a00000000000000000000000000000000000000000000000000000000081526004016120d490614280565b60405180910390fd5b60016002811115612117577f4e487b7100000000000000000000000000000000000000000000000000000000600052602160045260246000fd5b6006600085815260200190815260200160002060009054906101000a900460ff166002811115612170577f4e487b7100000000000000000000000000000000000000000000000000000000600052602160045260246000fd5b146121b0576040517f08c379a00000000000000000000000000000000000000000000000000000000081526004016121a7906143a0565b60405180910390fd5b816008600085815260200190815260200160002090805190602001906121d7929190612f33565b50505050565b6000600160008473ffffffffffffffffffffffffffffffffffffffff1673ffffffffffffffffffffffffffffffffffffffff16815260200190815260200160002060008373ffffffffffffffffffffffffffffffffffffffff1673ffffffffffffffffffffffffffffffffffffffff16815260200190815260200160002060009054906101000a900460ff16905092915050565b600073ffffffffffffffffffffffffffffffffffffffff168473ffffffffffffffffffffffffffffffffffffffff1614156122e1576040517f08c379a00000000000000000000000000000000000000000000000000000000081526004016122d8906142a0565b60405180910390fd5b6122e96127ad565b73ffffffffffffffffffffffffffffffffffffffff168573ffffffffffffffffffffffffffffffffffffffff16148061232f575061232e856123296127ad565b6121dd565b5b61236e576040517f08c379a000000000000000000000000000000000000000000000000000000000815260040161236590614260565b60405180910390fd5b60006123786127ad565b905061239881878761238988612c8a565b61239288612c8a565b876127b5565b600080600086815260200190815260200160002060008873ffffffffffffffffffffffffffffffffffffffff1673ffffffffffffffffffffffffffffffffffffffff1681526020019081526020016000205490508381101561242f576040517f08c379a000000000000000000000000000000000000000000000000000000000815260040161242690614320565b60405180910390fd5b838161243b91906146dd565b60008087815260200190815260200160002060008973ffffffffffffffffffffffffffffffffffffffff1673ffffffffffffffffffffffffffffffffffffffff168152602001908152602001600020819055508360008087815260200190815260200160002060008873ffffffffffffffffffffffffffffffffffffffff1673ffffffffffffffffffffffffffffffffffffffff16815260200190815260200160002060008282546124ed9190614615565b925050819055508573ffffffffffffffffffffffffffffffffffffffff168773ffffffffffffffffffffffffffffffffffffffff168373ffffffffffffffffffffffffffffffffffffffff167fc3d58168c5ae7397731d063d5bbf3d657854427343f4c083240f7aacaa2d0f62888860405161256a92919061445b565b60405180910390a4612580828888888888612d50565b50505050505050565b60007f01ffc9a7000000000000000000000000000000000000000000000000000000007bffffffffffffffffffffffffffffffffffffffffffffffffffffffff1916827bffffffffffffffffffffffffffffffffffffffffffffffffffffffff1916149050919050565b6001816000016000828254019250508190555050565b600081600001549050919050565b600073ffffffffffffffffffffffffffffffffffffffff168473ffffffffffffffffffffffffffffffffffffffff161415612687576040517f08c379a000000000000000000000000000000000000000000000000000000000815260040161267e90614420565b60405180910390fd5b60006126916127ad565b90506126b2816000876126a388612c8a565b6126ac88612c8a565b876127b5565b8260008086815260200190815260200160002060008773ffffffffffffffffffffffffffffffffffffffff1673ffffffffffffffffffffffffffffffffffffffff16815260200190815260200160002060008282546127119190614615565b925050819055508473ffffffffffffffffffffffffffffffffffffffff16600073ffffffffffffffffffffffffffffffffffffffff168273ffffffffffffffffffffffffffffffffffffffff167fc3d58168c5ae7397731d063d5bbf3d657854427343f4c083240f7aacaa2d0f62878760405161278f92919061445b565b60405180910390a46127a681600087878787612d50565b5050505050565b600033905090565b505050505050565b6127dc8473ffffffffffffffffffffffffffffffffffffffff16612f20565b15612985578373ffffffffffffffffffffffffffffffffffffffff1663bc197c8187878686866040518663ffffffff1660e01b8152600401612822959493929190613fb6565b602060405180830381600087803b15801561283c57600080fd5b505af192505050801561286d57506040513d601f19601f8201168201806040525081019061286a9190613525565b60015b6128fc5761287961494e565b8061288457506128c1565b806040517f08c379a00000000000000000000000000000000000000000000000000000000081526004016128b8919061413e565b60405180910390fd5b6040517f08c379a00000000000000000000000000000000000000000000000000000000081526004016128f390614160565b60405180910390fd5b63bc197c8160e01b7bffffffffffffffffffffffffffffffffffffffffffffffffffffffff1916817bffffffffffffffffffffffffffffffffffffffffffffffffffffffff191614612983576040517f08c379a000000000000000000000000000000000000000000000000000000000815260040161297a90614180565b60405180910390fd5b505b505050505050565b600360009054906101000a900473ffffffffffffffffffffffffffffffffffffffff1673ffffffffffffffffffffffffffffffffffffffff166323b872dd33600360009054906101000a900473ffffffffffffffffffffffffffffffffffffffff16846040518463ffffffff1660e01b8152600401612a0e9392919061401e565b602060405180830381600087803b158015612a2857600080fd5b505af1158015612a3c573d6000803e3d6000fd5b505050506040513d601f19601f82011682018060405250810190612a6091906134d3565b5050565b600073ffffffffffffffffffffffffffffffffffffffff168373ffffffffffffffffffffffffffffffffffffffff161415612ad4576040517f08c379a0000000000000000000000000000000000000000000000000000000008152600401612acb906142e0565b60405180910390fd5b6000612ade6127ad565b9050612b0e81856000612af087612c8a565b612af987612c8a565b604051806020016040528060008152506127b5565b600080600085815260200190815260200160002060008673ffffffffffffffffffffffffffffffffffffffff1673ffffffffffffffffffffffffffffffffffffffff16815260200190815260200160002054905082811015612ba5576040517f08c379a0000000000000000000000000000000000000000000000000000000008152600401612b9c90614240565b60405180910390fd5b8281612bb191906146dd565b60008086815260200190815260200160002060008773ffffffffffffffffffffffffffffffffffffffff1673ffffffffffffffffffffffffffffffffffffffff16815260200190815260200160002081905550600073ffffffffffffffffffffffffffffffffffffffff168573ffffffffffffffffffffffffffffffffffffffff168373ffffffffffffffffffffffffffffffffffffffff167fc3d58168c5ae7397731d063d5bbf3d657854427343f4c083240f7aacaa2d0f628787604051612c7b92919061445b565b60405180910390a45050505050565b60606000600167ffffffffffffffff811115612ccf577f4e487b7100000000000000000000000000000000000000000000000000000000600052604160045260246000fd5b604051908082528060200260200182016040528015612cfd5781602001602082028036833780820191505090505b5090508281600081518110612d3b577f4e487b7100000000000000000000000000000000000000000000000000000000600052603260045260246000fd5b60200260200101818152505080915050919050565b612d6f8473ffffffffffffffffffffffffffffffffffffffff16612f20565b15612f18578373ffffffffffffffffffffffffffffffffffffffff1663f23a6e6187878686866040518663ffffffff1660e01b8152600401612db5959493929190614055565b602060405180830381600087803b158015612dcf57600080fd5b505af1925050508015612e0057506040513d601f19601f82011682018060405250810190612dfd9190613525565b60015b612e8f57612e0c61494e565b80612e175750612e54565b806040517f08c379a0000000000000000000000000000000000000000000000000000000008152600401612e4b919061413e565b60405180910390fd5b6040517f08c379a0000000000000000000000000000000000000000000000000000000008152600401612e8690614160565b60405180910390fd5b63f23a6e6160e01b7bffffffffffffffffffffffffffffffffffffffffffffffffffffffff1916817bffffffffffffffffffffffffffffffffffffffffffffffffffffffff191614612f16576040517f08c379a0000000000000000000000000000000000000000000000000000000008152600401612f0d90614180565b60405180910390fd5b505b505050505050565b600080823b905060008111915050919050565b828054612f3f906147f9565b90600052602060002090601f016020900481019282612f615760008555612fa8565b82601f10612f7a57805160ff1916838001178555612fa8565b82800160010185558215612fa8579182015b82811115612fa7578251825591602001919060010190612f8c565b5b509050612fb59190612fb9565b5090565b5b80821115612fd2576000816000905550600101612fba565b5090565b6000612fe9612fe4846144ec565b6144bb565b9050808382526020820190508285602086028201111561300857600080fd5b60005b85811015613038578161301e888261312a565b84526020840193506020830192505060018101905061300b565b5050509392505050565b600061305561305084614518565b6144bb565b9050808382526020820190508285602086028201111561307457600080fd5b60005b858110156130a4578161308a888261323b565b845260208401935060208301925050600181019050613077565b5050509392505050565b60006130c16130bc84614544565b6144bb565b9050828152602081018484840111156130d957600080fd5b6130e48482856147b7565b509392505050565b60006130ff6130fa84614574565b6144bb565b90508281526020810184848401111561311757600080fd5b6131228482856147b7565b509392505050565b60008135905061313981614a18565b92915050565b600082601f83011261315057600080fd5b8135613160848260208601612fd6565b91505092915050565b600082601f83011261317a57600080fd5b813561318a848260208601613042565b91505092915050565b6000813590506131a281614a2f565b92915050565b6000815190506131b781614a2f565b92915050565b6000813590506131cc81614a46565b92915050565b6000815190506131e181614a46565b92915050565b600082601f8301126131f857600080fd5b81356132088482602086016130ae565b91505092915050565b600082601f83011261322257600080fd5b81356132328482602086016130ec565b91505092915050565b60008135905061324a81614a5d565b92915050565b60008135905061325f81614a74565b92915050565b6000806040838503121561327857600080fd5b60006132868582860161312a565b92505060206132978582860161312a565b9150509250929050565b600080600080600060a086880312156132b957600080fd5b60006132c78882890161312a565b95505060206132d88882890161312a565b945050604086013567ffffffffffffffff8111156132f557600080fd5b61330188828901613169565b935050606086013567ffffffffffffffff81111561331e57600080fd5b61332a88828901613169565b925050608086013567ffffffffffffffff81111561334757600080fd5b613353888289016131e7565b9150509295509295909350565b600080600080600060a0868803121561337857600080fd5b60006133868882890161312a565b95505060206133978882890161312a565b94505060406133a88882890161323b565b93505060606133b98882890161323b565b925050608086013567ffffffffffffffff8111156133d657600080fd5b6133e2888289016131e7565b9150509295509295909350565b6000806040838503121561340257600080fd5b60006134108582860161312a565b925050602061342185828601613193565b9150509250929050565b6000806040838503121561343e57600080fd5b600061344c8582860161312a565b925050602061345d8582860161323b565b9150509250929050565b6000806040838503121561347a57600080fd5b600083013567ffffffffffffffff81111561349457600080fd5b6134a08582860161313f565b925050602083013567ffffffffffffffff8111156134bd57600080fd5b6134c985828601613169565b9150509250929050565b6000602082840312156134e557600080fd5b60006134f3848285016131a8565b91505092915050565b60006020828403121561350e57600080fd5b600061351c848285016131bd565b91505092915050565b60006020828403121561353757600080fd5b6000613545848285016131d2565b91505092915050565b60006020828403121561356057600080fd5b600082013567ffffffffffffffff81111561357a57600080fd5b61358684828501613211565b91505092915050565b6000602082840312156135a157600080fd5b60006135af8482850161323b565b91505092915050565b600080604083850312156135cb57600080fd5b60006135d98582860161323b565b925050602083013567ffffffffffffffff8111156135f657600080fd5b61360285828601613211565b9150509250929050565b6000806040838503121561361f57600080fd5b600061362d8582860161323b565b925050602061363e8582860161323b565b9150509250929050565b6000806000806080858703121561365e57600080fd5b600061366c8782880161323b565b945050602061367d87828801613250565b935050604061368e87828801613250565b925050606061369f87828801613250565b91505092959194509250565b60006136b78383613f6e565b60208301905092915050565b6136cc81614711565b82525050565b60006136dd826145b4565b6136e781856145e2565b93506136f2836145a4565b8060005b8381101561372357815161370a88826136ab565b9750613715836145d5565b9250506001810190506136f6565b5085935050505092915050565b61373981614723565b82525050565b600061374a826145bf565b61375481856145f3565b93506137648185602086016147c6565b61376d81614930565b840191505092915050565b613781816147a5565b82525050565b6000613792826145ca565b61379c8185614604565b93506137ac8185602086016147c6565b6137b581614930565b840191505092915050565b60006137cd603483614604565b91507f455243313135353a207472616e7366657220746f206e6f6e204552433131353560008301527f526563656976657220696d706c656d656e7465720000000000000000000000006020830152604082019050919050565b6000613833602883614604565b91507f455243313135353a204552433131353552656365697665722072656a6563746560008301527f6420746f6b656e730000000000000000000000000000000000000000000000006020830152604082019050919050565b6000613899601883614604565b91507f496e76616c696420782c79206f72206974656d5f7479706500000000000000006000830152602082019050919050565b60006138d9601283614604565b91507f4e6f74207665726966696564204163746f7200000000000000000000000000006000830152602082019050919050565b6000613919602b83614604565b91507f455243313135353a2062616c616e636520717565727920666f7220746865207a60008301527f65726f20616464726573730000000000000000000000000000000000000000006020830152604082019050919050565b600061397f600f83614604565b91507f4e6f74207265616c206c61676f6f6e00000000000000000000000000000000006000830152602082019050919050565b60006139bf601283614604565b91507f4672656520736c6f7420726571756972656400000000000000000000000000006000830152602082019050919050565b60006139ff602483614604565b91507f455243313135353a206275726e20616d6f756e7420657863656564732062616c60008301527f616e6365000000000000000000000000000000000000000000000000000000006020830152604082019050919050565b6000613a65602983614604565b91507f455243313135353a2063616c6c6572206973206e6f74206f776e6572206e6f7260008301527f20617070726f76656400000000000000000000000000000000000000000000006020830152604082019050919050565b6000613acb601483614604565b91507f546f6b656e20646f6573206e6f742065786973740000000000000000000000006000830152602082019050919050565b6000613b0b602583614604565b91507f455243313135353a207472616e7366657220746f20746865207a65726f20616460008301527f64726573730000000000000000000000000000000000000000000000000000006020830152604082019050919050565b6000613b71603283614604565b91507f455243313135353a207472616e736665722063616c6c6572206973206e6f742060008301527f6f776e6572206e6f7220617070726f76656400000000000000000000000000006020830152604082019050919050565b6000613bd7602383614604565b91507f455243313135353a206275726e2066726f6d20746865207a65726f206164647260008301527f65737300000000000000000000000000000000000000000000000000000000006020830152604082019050919050565b6000613c3d601683614604565b91507f54686973206973206e6f7420796f757220746f6b656e000000000000000000006000830152602082019050919050565b6000613c7d602a83614604565b91507f455243313135353a20696e73756666696369656e742062616c616e636520666f60008301527f72207472616e73666572000000000000000000000000000000000000000000006020830152604082019050919050565b6000613ce3601283614604565b91507f4e6f74207669727475616c206c61676f6f6e00000000000000000000000000006000830152602082019050919050565b6000613d23601c83614604565b91507f6f6e6c79206170706c69657320746f207669727475616c2f626f7468000000006000830152602082019050919050565b6000613d63600e83614604565b91507f496e7465726e616c206572726f720000000000000000000000000000000000006000830152602082019050919050565b6000613da3601483614604565b91507f6f6e6c79206170706c69657320746f207265616c0000000000000000000000006000830152602082019050919050565b6000613de3602983614604565b91507f455243313135353a2073657474696e6720617070726f76616c2073746174757360008301527f20666f722073656c6600000000000000000000000000000000000000000000006020830152604082019050919050565b6000613e49602983614604565b91507f455243313135353a206163636f756e747320616e6420696473206c656e67746860008301527f206d69736d6174636800000000000000000000000000000000000000000000006020830152604082019050919050565b6000613eaf602883614604565b91507f455243313135353a2069647320616e6420616d6f756e7473206c656e6774682060008301527f6d69736d617463680000000000000000000000000000000000000000000000006020830152604082019050919050565b6000613f15602183614604565b91507f455243313135353a206d696e7420746f20746865207a65726f2061646472657360008301527f73000000000000000000000000000000000000000000000000000000000000006020830152604082019050919050565b613f778161478e565b82525050565b613f868161478e565b82525050565b613f9581614798565b82525050565b6000602082019050613fb060008301846136c3565b92915050565b600060a082019050613fcb60008301886136c3565b613fd860208301876136c3565b8181036040830152613fea81866136d2565b90508181036060830152613ffe81856136d2565b90508181036080830152614012818461373f565b90509695505050505050565b600060608201905061403360008301866136c3565b61404060208301856136c3565b61404d6040830184613f7d565b949350505050565b600060a08201905061406a60008301886136c3565b61407760208301876136c3565b6140846040830186613f7d565b6140916060830185613f7d565b81810360808301526140a3818461373f565b90509695505050505050565b600060208201905081810360008301526140c981846136d2565b905092915050565b600060408201905081810360008301526140eb81856136d2565b905081810360208301526140ff81846136d2565b90509392505050565b600060208201905061411d6000830184613730565b92915050565b60006020820190506141386000830184613778565b92915050565b600060208201905081810360008301526141588184613787565b905092915050565b60006020820190508181036000830152614179816137c0565b9050919050565b6000602082019050818103600083015261419981613826565b9050919050565b600060208201905081810360008301526141b98161388c565b9050919050565b600060208201905081810360008301526141d9816138cc565b9050919050565b600060208201905081810360008301526141f98161390c565b9050919050565b6000602082019050818103600083015261421981613972565b9050919050565b60006020820190508181036000830152614239816139b2565b9050919050565b60006020820190508181036000830152614259816139f2565b9050919050565b6000602082019050818103600083015261427981613a58565b9050919050565b6000602082019050818103600083015261429981613abe565b9050919050565b600060208201905081810360008301526142b981613afe565b9050919050565b600060208201905081810360008301526142d981613b64565b9050919050565b600060208201905081810360008301526142f981613bca565b9050919050565b6000602082019050818103600083015261431981613c30565b9050919050565b6000602082019050818103600083015261433981613c70565b9050919050565b6000602082019050818103600083015261435981613cd6565b9050919050565b6000602082019050818103600083015261437981613d16565b9050919050565b6000602082019050818103600083015261439981613d56565b9050919050565b600060208201905081810360008301526143b981613d96565b9050919050565b600060208201905081810360008301526143d981613dd6565b9050919050565b600060208201905081810360008301526143f981613e3c565b9050919050565b6000602082019050818103600083015261441981613ea2565b9050919050565b6000602082019050818103600083015261443981613f08565b9050919050565b60006020820190506144556000830184613f7d565b92915050565b60006040820190506144706000830185613f7d565b61447d6020830184613f7d565b9392505050565b60006060820190506144996000830186613f8c565b6144a66020830185613f8c565b6144b36040830184613f8c565b949350505050565b6000604051905081810181811067ffffffffffffffff821117156144e2576144e1614901565b5b8060405250919050565b600067ffffffffffffffff82111561450757614506614901565b5b602082029050602081019050919050565b600067ffffffffffffffff82111561453357614532614901565b5b602082029050602081019050919050565b600067ffffffffffffffff82111561455f5761455e614901565b5b601f19601f8301169050602081019050919050565b600067ffffffffffffffff82111561458f5761458e614901565b5b601f19601f8301169050602081019050919050565b6000819050602082019050919050565b600081519050919050565b600081519050919050565b600081519050919050565b6000602082019050919050565b600082825260208201905092915050565b600082825260208201905092915050565b600082825260208201905092915050565b60006146208261478e565b915061462b8361478e565b9250827fffffffffffffffffffffffffffffffffffffffffffffffffffffffffffffffff038211156146605761465f614874565b5b828201905092915050565b600061467682614798565b915061468183614798565b92508260ff0382111561469757614696614874565b5b828201905092915050565b60006146ad82614798565b91506146b883614798565b92508160ff04831182151516156146d2576146d1614874565b5b828202905092915050565b60006146e88261478e565b91506146f38361478e565b92508282101561470657614705614874565b5b828203905092915050565b600061471c8261476e565b9050919050565b60008115159050919050565b60007fffffffff0000000000000000000000000000000000000000000000000000000082169050919050565b600081905061476982614a04565b919050565b600073ffffffffffffffffffffffffffffffffffffffff82169050919050565b6000819050919050565b600060ff82169050919050565b60006147b08261475b565b9050919050565b82818337600083830152505050565b60005b838110156147e45780820151818401526020810190506147c9565b838111156147f3576000848401525b50505050565b6000600282049050600182168061481157607f821691505b60208210811415614825576148246148d2565b5b50919050565b60006148368261478e565b91507fffffffffffffffffffffffffffffffffffffffffffffffffffffffffffffffff82141561486957614868614874565b5b600182019050919050565b7f4e487b7100000000000000000000000000000000000000000000000000000000600052601160045260246000fd5b7f4e487b7100000000000000000000000000000000000000000000000000000000600052602160045260246000fd5b7f4e487b7100000000000000000000000000000000000000000000000000000000600052602260045260246000fd5b7f4e487b7100000000000000000000000000000000000000000000000000000000600052604160045260246000fd5b6000601f19601f8301169050919050565b60008160e01c9050919050565b600060443d101561495e57614a01565b60046000803e61496f600051614941565b6308c379a081146149805750614a01565b60405160043d036004823e80513d602482011167ffffffffffffffff821117156149ac57505050614a01565b808201805167ffffffffffffffff8111156149cb575050505050614a01565b8060208301013d85018111156149e657505050505050614a01565b6149ef82614930565b60208401016040528296505050505050505b90565b60038110614a1557614a146148a3565b5b50565b614a2181614711565b8114614a2c57600080fd5b50565b614a3881614723565b8114614a4357600080fd5b50565b614a4f8161472f565b8114614a5a57600080fd5b50565b614a668161478e565b8114614a7157600080fd5b50565b614a7d81614798565b8114614a8857600080fd5b5056fea26469706673582212208bcb43b47da55f581254fc992af3385fd908dc44f7dcd89ed36f101c767166b164736f6c63430008000033",
  "immutableReferences": {},
  "source": "// SPDX-License-Identifier: MIT\npragma solidity 0.8.0;\n\nimport \"@openzeppelin/contracts/token/ERC1155/ERC1155.sol\";\nimport \"@openzeppelin/contracts/utils/Counters.sol\";\nimport \"./Acro.sol\";\nimport \"./AcroActors.sol\";\n\n/** @title Lagoon Token */\ncontract Lagoon is ERC1155 {\n   struct GameItem {\n      uint8 x;\n      uint8 y;\n      uint8 item_type;\n   }\n\n   enum LagoonType { VIRTUAL, REAL, BOTH }\n\n   Acro acro_contract;\n   AcroActors actors_contract;\n\n   using Counters for Counters.Counter;\n   Counters.Counter private _tokenIds;\n\n   mapping (uint256 => LagoonType) public lagoon_types;\n   mapping (uint256 => uint256) public linked_real_token_id;\n   mapping (uint256 => string) private _tokenURIs;\n   mapping (uint256 => GameItem[]) public game_items;\n\n   // This modifier checks if the sender is a verified actor in actor's smartcontract\n   modifier onlyActor() {\n     require (actors_contract.is_actor(msg.sender)==true,\"Not verified Actor\");\n     _;\n   }\n\n   // This modifier checks if a given token exists in this ERC1155 contract\n   modifier tokenExists(uint token_id) {\n     require(token_id<=_tokenIds.current(),\"Token does not exist\");\n     _;\n   }\n   \n   // This modifier checks if the sender owns a given token\n   modifier isMyToken(uint token_id) {\n     require(balanceOf(msg.sender, token_id)>0, \"This is not your token\");\n     _;\n   }\n\n   /**\n     * @notice Acro and Actors contract's addresses are set on this contract during deployment\n     * @param acro_contract_address Acro contract address\n     * @param actors_contract_address Actors contract address\n     */\n   constructor(address acro_contract_address, address actors_contract_address) ERC1155(\"\") {\n     acro_contract = Acro(acro_contract_address);\n     actors_contract = AcroActors(actors_contract_address);\n   } \n\n   /**\n     * @notice get json metadata file urls\n     * @param token_id Token ID\n     * @return string url\n     */\n   function uri(uint256 token_id) \n      public\n      view\n      virtual\n      override\n      returns (string memory) \n   {\n      return _tokenURIs[token_id];\n   }\n\n   /**\n    * @notice Declare a new physical coral zone in the database\n    * this declaration is allowed for verified actors only\n    * @param metadatas_url json metadata file url\n    */\n   function new_real_zone(string memory metadatas_url) \n      external\n      onlyActor\n   {\n      _tokenIds.increment();\n      _mint( msg.sender, _tokenIds.current(), 100, \"\");\n      _tokenURIs[_tokenIds.current()] = metadatas_url;\n      lagoon_types[_tokenIds.current()] = LagoonType.REAL;\n   }\n\n   /**\n    * @notice Declare a new state for an existing physical coral zone in the database\n    * This declaration is allowed for verified actors only\n    * Every actor is allowed to update informations about any coral aone\n    * @param token_id Token ID\n    * @param metadatas_url json metadata file url\n    */\n   function update_real_zone(uint token_id, string memory metadatas_url)\n     external \n     onlyActor \n     tokenExists(token_id) \n   {\n      require(lagoon_types[token_id]==LagoonType.REAL,\"only applies to real\");\n      _tokenURIs[token_id] = metadatas_url;\n   }\n\n   /**\n    * @notice Create a new game party (virtual zone)\n    * Everybody can create a new virtual zone\n    */\n   function new_virtual_zone() \n      external\n      returns (uint) \n   {\n      _tokenIds.increment();\n      _mint(msg.sender, _tokenIds.current(), 1, \"\");\n      lagoon_types[_tokenIds.current()] = LagoonType.VIRTUAL;\n      return _tokenIds.current();\n   }\n\n   /**\n    * @notice Any user can merge one of his real token with one of his virtual zone\n    * Virtual token is linked to real token and change type to \"BOTH\" token\n    * The real token is destroyed for this user\n    * But this real token is kept in the database\n    * @param real_token_id Real token ID\n    * @param virtual_token_id Virtual token ID\n    */\n   function merge_tokens(uint real_token_id, uint virtual_token_id) \n      external \n      tokenExists(real_token_id) \n      tokenExists(virtual_token_id) \n      // isMyToken(real_token_id)   <- This test is done in _burn\n      isMyToken(virtual_token_id)\n   {\n      require(lagoon_types[real_token_id]==LagoonType.REAL, \"Not real lagoon\");\n      require(lagoon_types[virtual_token_id]==LagoonType.VIRTUAL, \"Not virtual lagoon\");\n\n      pay_acro(100000000000000000);\n      _burn(msg.sender, real_token_id, 1);    // Destruct real token for the user. (Balance can be 0, information about this real token is kept in the database)\n\n      lagoon_types[virtual_token_id] = LagoonType.BOTH;        // Link virtual token with real\n      linked_real_token_id[virtual_token_id] = real_token_id; \n   }\n\n   /**\n    * @notice Get total tokens count (for UI)\n    * @return uint token count\n    */\n   function get_tokens_count()\n      external\n      view\n      returns (uint) \n   {\n      return _tokenIds.current();\n   }\n\n   /**\n    * @notice Force user to pay an amount of Acro ERC20 token\n    * user should first call approve on Acro ERC20 contract before\n    * @param amount of Acro to be paid by user\n    */\n   function pay_acro(uint amount)\n      private\n   {\n      acro_contract.transferFrom(msg.sender, address(acro_contract),amount);\n   }\n\n   /**\n    * @notice Buy and add item for our game and put it on a virtual zone\n    * @param token_id Token ID which represents our virtual zone\n    * @param x X position where to put the item on our virtual zone\n    * @param y Y position where to put the item on our virtual zone\n    * @param item_type Item type\n    */\n   function buy_and_put_game_item(uint token_id, uint8 x, uint8 y,uint8 item_type) \n     external\n     tokenExists(token_id) \n     isMyToken(token_id)\n   {\n     require(x<11 && y<11 && item_type<3,\"Invalid x,y or item_type\");\n     pay_acro(100000000000000000);\n     for (uint i=0;i<game_items[token_id].length;i++) {\n        if (game_items[token_id][i].x==x && game_items[token_id][i].y==y) {\n           revert(\"Free slot required\");\n        }\n     }\n     game_items[token_id].push(GameItem(x,y,item_type));\n   }\n\n   /**\n    * @notice Level increase for a virtual zone when a user adds items on it\n    * this function gets the level for a given virtual zone\n    * @param token_id Token ID which represents the virtual zone\n    * @return level of the virtual zone\n    */\n   function get_game_level(uint token_id) external\n      view\n      tokenExists(token_id)\n      returns (uint) \n   {\n      require(lagoon_types[token_id]!=LagoonType.REAL,\"only applies to virtual/both\");\n      return game_items[token_id].length;\n   }\n\n   /**\n    * @notice gets serialized datas for a given virtual zone (item mapping)\n    * @param token_id Token ID which represents the virtual zone\n    * @return serialized data of the virtual zone\n    */\n   function get_game_datas(uint token_id)\n      external\n      view\n      tokenExists(token_id)\n      returns (string memory) \n   {\n      require(lagoon_types[token_id]!=LagoonType.REAL,\"only applies to virtual/both\");\n      bytes memory ret = new bytes(11*11);\n      for (uint i=0;i<11*11;i++) {\n        ret[i] = '0';\n      }\n      for (uint i=0;i<game_items[token_id].length;i++) {\n        require( game_items[token_id][i].x<11 && game_items[token_id][i].y<11 ,\"Internal error\");\n        if (game_items[token_id][i].item_type==1) {\n          ret[game_items[token_id][i].x + game_items[token_id][i].y*11] = '1';\n        } else if (game_items[token_id][i].item_type==2) {\n          ret[game_items[token_id][i].x + game_items[token_id][i].y*11] = '2';\n        } \n      }\n      return string(ret);\n   }\n}\n",
  "sourcePath": "/home/deva/decri/contracts/Lagoon.sol",
  "compiler": {
    "name": "solc",
    "version": "0.8.0+commit.c7dfd78e.Emscripten.clang"
  },
  "schemaVersion": "3.3.4",
  "updatedAt": "2021-04-14T16:57:40.159Z",
  "devdoc": {
    "kind": "dev",
    "methods": {
      "balanceOf(address,uint256)": {
        "details": "See {IERC1155-balanceOf}. Requirements: - `account` cannot be the zero address."
      },
      "balanceOfBatch(address[],uint256[])": {
        "details": "See {IERC1155-balanceOfBatch}. Requirements: - `accounts` and `ids` must have the same length."
      },
      "buy_and_put_game_item(uint256,uint8,uint8,uint8)": {
        "params": {
          "item_type": "Item type",
          "token_id": "Token ID which represents our virtual zone",
          "x": "X position where to put the item on our virtual zone",
          "y": "Y position where to put the item on our virtual zone"
        }
      },
      "constructor": {
        "params": {
          "acro_contract_address": "Acro contract address",
          "actors_contract_address": "Actors contract address"
        }
      },
      "get_game_datas(uint256)": {
        "params": {
          "token_id": "Token ID which represents the virtual zone"
        },
        "returns": {
          "_0": "serialized data of the virtual zone"
        }
      },
      "get_game_level(uint256)": {
        "params": {
          "token_id": "Token ID which represents the virtual zone"
        },
        "returns": {
          "_0": "level of the virtual zone"
        }
      },
      "get_tokens_count()": {
        "returns": {
          "_0": "uint token count"
        }
      },
      "isApprovedForAll(address,address)": {
        "details": "See {IERC1155-isApprovedForAll}."
      },
      "merge_tokens(uint256,uint256)": {
        "params": {
          "real_token_id": "Real token ID",
          "virtual_token_id": "Virtual token ID"
        }
      },
      "new_real_zone(string)": {
        "params": {
          "metadatas_url": "json metadata file url"
        }
      },
      "safeBatchTransferFrom(address,address,uint256[],uint256[],bytes)": {
        "details": "See {IERC1155-safeBatchTransferFrom}."
      },
      "safeTransferFrom(address,address,uint256,uint256,bytes)": {
        "details": "See {IERC1155-safeTransferFrom}."
      },
      "setApprovalForAll(address,bool)": {
        "details": "See {IERC1155-setApprovalForAll}."
      },
      "supportsInterface(bytes4)": {
        "details": "See {IERC165-supportsInterface}."
      },
      "update_real_zone(uint256,string)": {
        "params": {
          "metadatas_url": "json metadata file url",
          "token_id": "Token ID"
        }
      },
      "uri(uint256)": {
        "params": {
          "token_id": "Token ID"
        },
        "returns": {
          "_0": "string url"
        }
      }
    },
    "title": "Lagoon Token ",
    "version": 1
  },
  "userdoc": {
    "kind": "user",
    "methods": {
      "buy_and_put_game_item(uint256,uint8,uint8,uint8)": {
        "notice": "Buy and add item for our game and put it on a virtual zone"
      },
      "constructor": {
        "notice": "Acro and Actors contract's addresses are set on this contract during deployment"
      },
      "get_game_datas(uint256)": {
        "notice": "gets serialized datas for a given virtual zone (item mapping)"
      },
      "get_game_level(uint256)": {
        "notice": "Level increase for a virtual zone when a user adds items on it this function gets the level for a given virtual zone"
      },
      "get_tokens_count()": {
        "notice": "Get total tokens count (for UI)"
      },
      "merge_tokens(uint256,uint256)": {
        "notice": "Any user can merge one of his real token with one of his virtual zone Virtual token is linked to real token and change type to \"BOTH\" token The real token is destroyed for this user But this real token is kept in the database"
      },
      "new_real_zone(string)": {
        "notice": "Declare a new physical coral zone in the database this declaration is allowed for verified actors only"
      },
      "new_virtual_zone()": {
        "notice": "Create a new game party (virtual zone) Everybody can create a new virtual zone"
      },
      "update_real_zone(uint256,string)": {
        "notice": "Declare a new state for an existing physical coral zone in the database This declaration is allowed for verified actors only Every actor is allowed to update informations about any coral aone"
      },
      "uri(uint256)": {
        "notice": "get json metadata file urls"
      }
    },
    "version": 1
  }
}